:020000000C945E
:100002002B010C9400000C9400000C9400000C9442
:1000120000000C9400000C9400000C9400000C945E
:1000220000000C9400000C9400000C9400000C944E
:1000320000000C9400000C9400000C9469010C94D4
:1000420000000C94BC040C94F1040C9400000C9479
:1000520064030C9400000C9400000C9400000C94B7
:1000620000000C949E020C9400000C9400000C946E
:1000720000000C9400000C9400000C9400000C94FE
:10008200FD050C9418060C9400000C9418050C94B1
:1000920000000C9400000C9400000C9400000C94DE
:1000A20000000C9400000C9400000C9400000C94CE
:1000B20000000C9400000C9400000C9400000C94BE
:1000C20000000C9400000C9400000C9400000C94AE
:1000D20000000C9400000C9400000C9400000C949E
:1000E2000000DC05DC05DC05DC05DC05DC05DC05E7
:1000F200DC05DC05DC05DC05DC05DC05DC05DC05F6
:10010200DC05DC05DC05DC05DC05DC05DC05DC05E5
:10011200DC05DC05DC05DC05DC05DC05DC05DC05D5
:10012200DC05DC05DC05DC05DC05DC05DC05DC05C5
:10013200DC050F00E803000044430000A841000072
:10014200B0420000AC420000A8410000000041257E
:10015200640A004225640A003D3D3D58595A202553
:10016200302E32662025302E32662025302E326621
:10017200207C7C20003D3D3D58595A2025302E32AE
:10018200662025302E32662025302E3266200A0067
:1001920058595A7365742025302E32662025302E28
:1001A20032662025302E3266207C7C200058595A37
:1001B2007365742025302E32662025302E3266205B
:1001C20025302E3266200A002D2D2D2D2D2D2D2D80
:1001D2002D2D2D2D2D2D2D2D2D2D2D2D2D2D2D2D4D
:1001E2002D2D2D2D2D2D2D2D2D2D2D2D2D2D2D2D3D
:1001F2002D2D2D2D2D2D2D2D2D5A696E2025302E94
:1002020066200A002D4E414E000001002D4E414E47
:1002120000494E4600002800280AE4002800500A3F
:100222000C010100980A34010400B40A38010400E8
:10023200B80A3C010400BC0A40010400C00A44019F
:100242000400C40A4801040003004C010100D10B60
:100252000C020000F894EE27EFBBF1E0F5BFE5BF1A
:10026200E0937400E0937500F8E1A895A4B7A77F26
:10027200A4BFF0936000E09360008DE0A2E0BB2792
:10028200ED938A95E9F780E090E2A0E0B2E0ED9389
:100292000197E9F7E8E1F2E085919591009761F025
:1002A200A591B59105901590BF01F00105900D92B1
:1002B2000197E1F7FB01F0CF8BBF8CBFE0E0EEBB13
:1002C200EFEFEDBFE1E2EEBFC0E0DAE00C94CC0A62
:1002D2000A92EA93FA93EFB7EA93E0EFE093B2005F
:1002E200E1E0F0E0BE0ECF1E00240D140E042CF44B
:1002F200ED2DFE2D3197DE2EEF2EE991EFBFF99114
:10030200E99109901895E0E0E2B9EFEFE1B9E0E098
:10031200E5B9EFEFE4B9E0E0E8B9EFEFE7B9E0E023
:10032200EBB9E0EFEAB9E0E0EEB9EFEFEDB9E0E00A
:10033200E1BBEFEFE0BBE0E0E4BBEFEFE3BBE0E00B
:10034200E0930201EFEFE0930101E0E0E0930501A9
:10035200EFEFE0930401E0E0E0930801EFEFE093B8
:100362000701E0E0E0930B01EFEFE0930A01E0E028
:10037200E0938000E2E0E0938100E0E0E093B000EF
:10038200E7E0E093B100E0E0E0939000E2E0E09388
:100392009100E0E0E093C000E8E9E093C100E6E00C
:1003A200E093C200E0E0E093C500E7E6E093C4001A
:1003B200E0E8E0BFE0E0E0937B00E0937F00E7E06D
:1003C200E0936F00E1E0E0937000E7E0E0937100FA
:1003D200E6E4F7E165E672E4E0937C0BF0937D0BD3
:1003E20060937E0B70937F0BE091B80AF091B90A8B
:1003F2006091BA0A7091BB0A0E94E8120E949C188E
:10040200E0931C0BF0931D0B60931E0B70931F0B5C
:100412000E94F1120E94FA120E949C18E093200B93
:10042200F093210B6093220B7093230BE091C00A8F
:10043200F091C10A6091C20A7091C30A0E9403132B
:10044200E093240BF093250B6093260B7093270BFC
:10045200E091C40AF091C50A6091C60A7091C70A78
:100462000E940E130E949C18E093280BF093290B14
:1004720060932A0B70932B0B0E9417130E941D137B
:10048200ECF40E9423130E942813EA0FFB1F0E9420
:100492002D130E9436130E943913EA0FFB1F0E948C
:1004A2003E130E9436130E944713EA0FFB1F0E945D
:1004B2004C130E9455130E945813E0CF0E94601300
:1004C200E0E0E093940AE093950AA091940AB09137
:1004D200950A54978CF50E948E130E949313EA0F8B
:1004E200FB1F0F010E948E13A0E0B0E00E94981340
:1004F2000E94641AD001ED93FC93E0E5F1E0FA93D7
:10050200EA930E948E130E949D13E5E5F1E0FA93AF
:10051200EA930E948E130E949313AE0FBF1F0E9494
:100522002A1A0E949D13A2E3B0E00E949C17A4E93C
:10053200BAE00E94A613C9CF08950A921A92AA930A
:10054200BA93EA93FA93EFB7EA934090C600E2E0D7
:10055200E61519F46624E1E03E2EE32D0E94AC1369
:1005620029F4EFEFE41509F46394A4C0E130A0E0AC
:10057200FA0751F4EFEFE41511F4639401C0662415
:100582004092880A339496C0E230A0E0FA0759F507
:10059200EFEFE41511F4639401C066244092890AD6
:1005A200E091880AF0E0E370F070FE2FE0E0DF01F6
:1005B200E091890AF0E0EA0FFB1FE093780AF093DA
:1005C200790AE091880AE071F0E00E949F19309761
:1005D20041F00E94AF130E94B413E093780AF093A3
:1005E200790A339467C0E330A0E0FA0729F5EFEF08
:1005F200E41511F4639401C0662440928A0AE091E2
:100602008A0AF0E0E093800AF093810AE091880A76
:10061200E074F0E00E94A3190E949F19309751F0F4
:10062200E091800AF091810A0E94B413E093800A5B
:10063200F093810A33943EC0E430A0E0FA0779F5E2
:10064200EFEFE41511F4639401C0662440928B0A23
:10065200E091880AF0E0EC70F070EE0FEE0F0E946D
:100662009619DF01E0918B0AF0E0EA0FFB1FE0939D
:100672007A0AF0937B0AE091880AE072F0E0F5953D
:10068200E7950E949F19309741F00E94B9130E948A
:10069200B413E0937A0AF0937B0A33940BC0E530EB
:1006A200A0E0FA0739F4EFEFE41511F4639401C006
:1006B20066243324E991EFBFF991E991B991A991A7
:1006C2001990099018951A92AA93BA93EA93FA93F9
:1006D200EFB7EA93E52D0E94AC1389F5E0910B0187
:1006E200E460E0930B01479AE091280AF091290A0D
:1006F200A091000AB091010A0E94BE130E94C31386
:10070200E0938900E091280AA091000A0E94C81390
:10071200A0910C0AB0910D0AE091340AF091350AC9
:100722000E94BE130E94CE13E0938B00A0910C0A8C
:10073200E091340A0E94D513E1E05E2E14C1E1304B
:10074200A0E0FA0789F5E0910B01E860E0930B0164
:10075200469AA091020AB091030AE0912A0AF09106
:100762002B0A0E94BE130E94C313E0938900A0913A
:10077200020AE0912A0A0E94C813A0910E0AB091BF
:100782000F0AE091360AF091370A0E94BE130E94C6
:10079200CE13E0938B00A0910E0AE091360A0E94DC
:1007A200D513E2E05E2EDFC0E230A0E0FA0789F561
:1007B200E0910B01E061E0930B01169AA091040A0B
:1007C200B091050AE0912C0AF0912D0A0E94BE1305
:1007D2000E94CE13E0938900A091040AE0912C0AB2
:1007E2000E94E513A091100AB091110AE091380A13
:1007F200F091390A0E94BE130E94C313E0938B004A
:10080200A091100AE091380A0E94EF13E3E05E2EF5
:10081200AAC0E330A0E0FA0789F5E0910B01E0629B
:10082200E0930B01179AA091060AB091070AE09192
:100832002E0AF0912F0A0E94BE130E94CE13E0935B
:100842008900A091060AE0912E0A0E94E513A09168
:10085200120AB091130AE0913A0AF0913B0A0E94FF
:10086200BE130E94C313E0938B00A091120AE09181
:100872003A0A0E94EF13E4E05E2E75C0E430A0E075
:10088200FA0789F5E0910B01E064E0930B01149AF9
:10089200A091080AB091090AE091300AF091310A58
:1008A2000E94BE130E94C313E0938900A091080A1C
:1008B200E091300A0E94C813A091140AB091150A5F
:1008C200E0913C0AF0913D0A0E94BE130E94CE13B1
:1008D200E0938B00A091140AE0913C0A0E94D51388
:1008E200E5E05E2E40C0E530A0E0FA0789F5E09130
:1008F2000B01E068E0930B01159AA0910A0AB091EE
:100902000B0AE091320AF091330A0E94BE130E9450
:10091200C313E0938900A0910A0AE091320A0E946F
:10092200C813A091160AB091170AE0913E0AF091FD
:100932003F0A0E94BE130E94C313E0938B00A09152
:10094200160AE0913E0A0E94EF13E6E05E2E0BC00B
:10095200E630A0E0FA0739F4E8EFE0938500E0E33F
:10096200E09384005524E991EFBFF991E991B9919F
:10097200A991199018950E94FB1389F1E130A0E02A
:10098200FA0721F4E0910B01EB7F27C0E230A0E0EF
:10099200FA0721F4E0910B01E77F1FC0E330A0E0EA
:1009A200FA0721F4E0910B01EF7E17C0E430A0E0DA
:1009B200FA0721F4E0910B01EF7D0FC0E530A0E0D2
:1009C200FA0721F4E0910B01EF7B07C0E630A0E0CB
:1009D200FA0729F4E0910B01EF77E0930B0141C193
:1009E2000E94FB1319F1E130A0E0FA0711F44798D5
:1009F2001DC0E230A0E0FA0711F4469817C0E330B8
:100A0200A0E0FA0711F4169811C0E430A0E0FA074A
:100A120011F417980BC0E530A0E0FA0711F414980E
:100A220005C0E630A0E0FA0709F415981AC1AA93A6
:100A3200BA93EA93FA93EFB7EA930E94021461F52C
:100A4200889A8F9AA091180AB091190AE091400AE7
:100A5200F091410A0E94BE130E94C313E0939900D1
:100A6200A091180AE091400A0E940514A0911E0A62
:100A7200B0911F0AE091460AF091470A0E94BE1304
:100A82000E94C313E0939B00A0911E0AE091460AC4
:100A92000E940B14E1E0A7C0E130A0E0FA0761F583
:100AA200899A8E9AA0911A0AB0911B0AE091420A81
:100AB200F091430A0E94BE130E94C313E09399006F
:100AC200A0911A0AE091420A0E940514A091200AFC
:100AD200B091210AE091480AF091490A0E94BE139E
:100AE2000E94C313E0939B00A091200AE091480A60
:100AF2000E940B14E2E077C0E230A0E0FA0761F551
:100B02008A9A8D9AA0911C0AB0911D0AE091440A1A
:100B1200F091450A0E94BE130E94C313E09399000C
:100B2200A0911C0AE091440A0E940514A091220A95
:100B3200B091230AE0914A0AF0914B0A0E94BE1337
:100B42000E94C313E0939B00A091220AE0914A0AFB
:100B52000E940B14E3E047C0E330A0E0FA0761F51E
:100B62008B9A8C9AA091240AB091250AE0914C0AA2
:100B7200F0914D0A0E94BE130E94C313E0939900A4
:100B8200A091240AE0914C0A0E940514A091260A21
:100B9200B091270AE0914E0AF0914F0A0E94BE13CB
:100BA2000E94C313E0939B00A091260AE0914E0A93
:100BB2000E940B14E4E017C0E430A0E0FA0721F42D
:100BC2000E941714E5E00FC0E530A0E0FA0721F417
:100BD2000E941714E6E007C0E630A0E0FA0729F405
:100BE2000E941714E0E0E093D00BE991EFBFF99176
:100BF200E991B991A99118950E941E14B9F0E130BA
:100C0200A0E0FA0711F4889811C0E230A0E0FA07D8
:100C120011F489980BC0E330A0E0FA0711F48A9826
:100C220005C0E430A0E0FA0709F48B981AC00E94CC
:100C32001E14B9F0E130A0E0FA0711F48F9811C048
:100C4200E230A0E0FA0711F48E980BC0E330A0E086
:100C5200FA0711F48D9805C0E430A0E0FA0709F410
:100C62008C98E991EFBFF991E991A9911895A0911A
:100C7200960AB091970A0E94911A14F40C942707CD
:100C8200EAE5F1E0FA93EA93E091C80AF091C90A21
:100C92006091CA0A7091CB0A0E944D1AE091D00A63
:100CA200F091D10A6091D20A7091D30A0E944D1A32
:100CB200E091D80AF091D90A6091DA0A7091DB0AC0
:100CC2000E942414E7E7F1E0FA93EA93E091CC0A58
:100CD200F091CD0A6091CE0A7091CF0A0E944D1A0E
:100CE200E091D40AF091D50A6091D60A7091D70AA0
:100CF2000E944D1AE091DC0AF091DD0A6091DE0A51
:100D02007091DF0A0E9424140E942B1431F40E9475
:100D1200361419F40E94411429F0A0E9BAE00E94A5
:100D2200A61305C0E0E0E093900AE093910AE091F7
:100D32009A0AF0919B0AA091900AB091910AEA173F
:100D4200FB07ACF40E942B1431F40E94361419F400
:100D52000E94411439F0E1E0F0E0E093900AF09350
:100D6200910A05C0E0E0E093900AE093910A0E94A4
:100D72004C14E093960AF093970A0E9417130E946C
:100D82001D1314F00C9426070E945114EA0FFB1F46
:100D9200FF93EF930E9457140E945D147F936F9309
:100DA200FF93EF930E9423130E9428130E945D1465
:100DB200AF91BF918F919F910E946214AF91BF91A9
:100DC2000E947014ACE0BBE00E947314FF93EF9397
:100DD2000E942313A0EDBAE00E9478147F936F93D0
:100DE200FF93EF930E9423130E9439130E945D1414
:100DF200AF91BF918F919F910E946214AF91BF9169
:100E02000E947014A4E1BBE00E947314FF93EF935D
:100E12000E942313A8EDBAE00E9478147F936F9387
:100E2200FF93EF930E9423130E9447130E945D14C5
:100E3200AF91BF918F919F910E946214AF91BF9128
:100E42000E94341A0E9458139ACFE1C00E941713CD
:100E52000E941D1314F00C9488070E9423130E9411
:100E62002813EA0FFB1FFF93EF93DF010E942E1A54
:100E72007F936F93FF93EF930E9451140E945D142E
:100E8200AF91BF918F919F910E944C18AF91BF91EA
:100E92000E9470140E943913EA0FFB1FFF93EF9315
:100EA200DF010E942E1A7F936F93FF93EF930E94AC
:100EB2002313ACE0BBE00E947814AF91BF918F91F5
:100EC2009F910E944C18AF91BF910E9470140E9492
:100ED2004713EA0FFB1FFF93EF93DF010E942E1AC5
:100EE2007F936F93FF93EF930E942313A4E1BBE0E0
:100EF2000E947814AF91BF918F919F910E944C18DC
:100F0200AF91BF910E94341A0E945813A1CFE2E917
:100F1200F1E0FA93EA93E091EC0AF091ED0A609124
:100F2200EE0A7091EF0A0E944D1AE091F40AF091D4
:100F3200F50A6091F60A7091F70A0E944D1AE09143
:100F4200FC0AF091FD0A6091FE0A7091FF0A0E946C
:100F52002414EFEAF1E0FA93EA93E091F00AF091B7
:100F6200F10A6091F20A7091F30A0E944D1AE0911F
:100F7200F80AF091F90A6091FA0A7091FB0A0E944C
:100F82004D1AE091000BF091010B6091020B7091F0
:100F9200030B0E9424143CD00E941713A0919E0AB6
:100FA200B0919F0A1C9764F50E947B140E942A1A32
:100FB200E43CA9E0FA072CF00E947B14E4ECF9E08F
:100FC2000CC00E947B140E942A1AE53FA1E0FA0796
:100FD20034F40E947B14E4EFF1E0ED93FC930E9461
:100FE2002313A8E2BAE00E947F140F010E947B142F
:100FF2000E942A1AD001ED93FC930E945813CECF7F
:10100200A6E9BAE0ED91FD913197FE93EE93089532
:10101200E0E0E093920AE093930AA091920AB091E1
:10102200930A129714F00C946D090E9484140E9482
:1010320028130E945D140E948914E0932C0BF093F4
:101042002D0B60932E0B70932F0B0E9484140E9421
:1010520039130E945D140E948914E093300BF093BF
:10106200310B6093320B7093330B0E9484140E94F5
:1010720047130E945D140E948914E093340BF0938D
:10108200350B6093360B7093370BA0912C0BB091FC
:101092002D0B80912E0B90912F0B0E948E140E948B
:1010A200E8120E9445180E940E130E944518E09310
:1010B200380BF093390B60933A0B70933B0B0E9401
:1010C20094140E949C18E0933C0BF0933D0B6093A8
:1010D2003E0B70933F0BE091300BF091310B60911E
:1010E200320B7091330B0E949D140E948E14E09378
:1010F200400BF093410B6093420B7093430B0E94A1
:10110200A614A091400BB091410B8091420B90919B
:10111200430B0E949C18E093440BF093450B6093A1
:10112200460B7093470B0E9484140E9439130E944D
:101132005D140E944D1A0E9494140E946D12E09355
:101142004C0BF0934D0B60934E0B70934F0B0E9420
:101152008414ACE5BBE00E947314FF93EF930E94EA
:1011620084140E9428130E945D140E944D1A0E944A
:1011720084140E9447130E945D14DF01CB010E9478
:101182006D12AF91BF910E94AF140E947314FF932E
:10119200EF930E94B514E091440BF091450B6091DE
:1011A200460B7091470B0E944518A091240BB091F9
:1011B200250B8091260B9091270B0E9445187F9357
:1011C2006F93FF93EF930E94BE14AF91BF918F91E3
:1011D2009F910E94C614AF91BF910E94AF140E94CA
:1011E2007814DF01CB010E9485110E940313E09362
:1011F200480BF093490B60934A0B70934B0B0E9480
:10120200FA120E944C18DF01CB010E94A6140E9420
:10121200C614E093500BF093510B6093520B7093F2
:10122200530B0E948414A4E6BBE00E947314FF9344
:10123200EF93E091500BF091510B6091520B709132
:10124200530BA0914C0BB0914D0B80914E0B909192
:101252004F0B0E94CC14AF91BF910E94341A0E948E
:101262008414A4E5BBE00E947314FF93EF93E09112
:10127200240BF091250B6091260B7091270B0E9495
:10128200B5140E944C180E949D140E9445187F9329
:101292006F93FF93EF930E94BE14AF91BF918F9112
:1012A2009F910E94C614AF91BF910E94341A0E946E
:1012B2008414A4E7BBE00E9473140F010E948414FB
:1012C200ACE5BBE00E947814D0010E94341AA2E976
:1012D200BAE00E94A613A1CEE4E9FBE00E94D11479
:1012E2000E9455130E94D614A0915C0BB0915D0B25
:1012F20080915E0B90915F0B0E94DF14E093900B44
:10130200F093910B6093920B7093930B0E94D614FF
:10131200A091640BB091650B8091660B9091670B65
:101322000E949C180E94E5140E94D614A0916C0B96
:10133200B0916D0B80916E0B90916F0B0E94DF1438
:10134200E093880BF093890B60938A0B70938B0B5D
:101352000E94D614A091540BB091550B8091560B5C
:101362009091570B0E94EE140E94FB140E94CC1421
:101372000E94D1140E944C18E093840BF093850BC9
:101382006093860B7093870B0E94D614A091740B06
:10139200B091750B8091760B9091770B0E94DF14C0
:1013A200E093800BF093810B6093820B7093830B1D
:1013B2000E94FB140E9404150E94E514ECEAFBE073
:1013C2000E94D1140E945513E091600BF091610BC1
:1013D2006091620B7091630B0E940B15A0E0B0E06C
:1013E2008AEB92E40E944C18E093A80BF093A90BAD
:1013F2006093AA0B7093AB0BE091680BF091690BB1
:1014020060916A0B70916B0B0E940B15A0E0B0E02B
:1014120080EA90E40E944C180E941615E091700B2D
:10142200F091710B6091720B7091730B0E941F15FA
:101432000E94DF14E093A00BF093A10B6093A20B28
:101442007093A30BE091580BF091590B60915A0BDA
:1014520070915B0B0E941F150E94EE140E942815CA
:101462000E94CC140E94D1140E944C18A0E0B0E05B
:1014720080E490E40E944C18E0939C0BF0939D0B47
:1014820060939E0B70939F0BE091780BF091790B18
:1014920060917A0B70917B0B0E941F150E94DF14E2
:1014A200E093980BF093990B60939A0B70939B0BBC
:1014B2000E9428150E9404150E9416150E941713F7
:1014C200A0919E0AB0919F0A1C971CF50E942313BB
:1014D200A0E5BAE00E947F14FF93EF930E942313CA
:1014E200A0E8BBE00E947814ABEEB2EE88EF90E485
:1014F2000E949C18A0E0B0E088E494E40E944C189A
:10150200AF91BF910E94DB17ED93FC930E94581399
:10151200D7CF08950E9417130E941D13B4F50E949D
:101522005714EA0FFB1FFF93EF93DF010E942E1A5D
:101532000E942D130E944C18AF91BF910E9470140B
:10154200A0EDBAE00E947314FF93EF93DF010E94B3
:101552002E1A0E943E130E944C18AF91BF910E9416
:101562007014A8EDBAE00E947314FF93EF93DF01A9
:101572000E942E1A0E944C130E944C18AF91BF91E8
:101582000E94341A0E945813C7CFE0E0E093960AF3
:10159200E093970A08950E9484010E946013BADFC3
:1015A2007894E4E0E03021F40E946013B3DFFEC1DE
:1015B200E13001F50E946013ADDF0E94AF130E947B
:1015C2009313AE0FBF1F0E94B913ED93FC930E94B9
:1015D200AF13A0E0B0E00E947F140F010E94AF138E
:1015E2000E949313AE0FBF1F0E942A1AD0010E94BD
:1015F200741ADCC1E23011F00C943E0B0E94AF135E
:10160200E130A0E0FA0729F40E94B913A4EEBAE08F
:1016120011C0E230A0E0FA0729F40E94B913A0EE4B
:10162200BAE008C0E330A0E0FA0751F40E94B9130F
:10163200A8EEBAE00E94AE190E9412180E94341A53
:101642000E9431150E943A150E943115E093CC0A8E
:10165200F093CD0A6093CE0A7093CF0AE091E40A28
:10166200F091E50A6091E60A7091E70A0E9454152A
:101672000E945D150E94661599C1E33011F00C9429
:10168200940B00240D140E0414F40C94930BE92D06
:10169200FA2D309751F4E0E0E093E80AE093E90A8A
:1016A200E093EA0AE093EB0A10C0E130A0E0FA0707
:1016B20061F5E0E0F0E060EA71ECE093E80AF093B3
:1016C200E90A6093EA0A7093EB0AE0E00E9470155F
:1016D2000E945D150E9482150E948D150E9492152E
:1016E2000E945D150E946615E0E0E093960AE09381
:1016F200970AEAECF1E0FA93EA930E945D150E94E0
:101702004D1A84E00E94E40F2696E1E0F0E09E0E7E
:10171200AF1EE915FA0514F49924AA24E4EFF1E0C6
:10172200DE2EEF2E43C1E43011F00C94D70CE0E032
:10173200F0E060EA71E4E093A40AF093A50A6093F2
:10174200A60A7093A70A00240D140E0414F40C9434
:10175200D70CE92DFA2D309751F4E0E00E94701574
:101762000E9495150E948D150E949215E8C0E130E5
:10177200A0E0FA0759F4E0E0F0E06CE872E40E94BD
:101782003A15ECECFAE00E94A115D9C0E230A0E0D3
:10179200FA0781F40E94A715E0E0E093D00AE093F3
:1017A200D10AE093D20AE093D30A0E94B4150E94B0
:1017B200A115C5C0E330A0E0FA0759F40E94A715AD
:1017C2000E94B9150E94C2150E94B4150E94CB1541
:1017D200AEC0E430A0E0FA0749F4E0E0F0E06CE8E3
:1017E20072E40E94D4150E94CB15A1C0E530A0E09E
:1017F200FA0749F40E94DF150E94E9150E948D152F
:101802000E94EB1594C0E630A0E0FA0759F40E945A
:10181200EF15A0E0B0E082E892E40E9455130E9426
:10182200EB1585C0E730A0E0FA0759F40E94EF15E6
:101832000E94F4150E94EB150E9454150E94F9159E
:1018420084C0E830A0E0FA0769F40E9400160E9402
:10185200E9150E94F4150E94B9150E9454150E94C0
:10186200F91573C0E930A0E0FA0769F40E94001686
:101872000E94E9150E94F4150E940D160E9454154B
:101882000E94F91562C0EA30A0E0FA0749F40E940A
:1018920000160E94E915A0E0B0E082E892E443C09D
:1018A200EB30A0E0FA0759F40E94DF150E94A61758
:1018B2000E94E915A0E0B0E080E090E034C0EC3096
:1018C200A0E0FA0791F4E0E0F0E062E872E40E943E
:1018D20019160E94C215E0E0E093D80AE093D90AF3
:1018E200E093DA0AE093DB0A18C0ED30A0E0FA07D1
:1018F20079F5E0E0F0E068EC72E40E9419160E94CB
:10190200C215E0E0F0E06CE572ECE093D80AF093E7
:10191200D90A6093DA0A7093DB0AECECFAE0A0E0F1
:10192200B0E082E892EC0E94481A0E940D16E09301
:10193200D40AF093D50A6093D60A7093D70AECEDD5
:10194200FAE0A0E0B0E080E090E00E94481AE2DD18
:101952000E942B14B9F4A091A40AB091A50A809117
:10196200A60A9091A70A0E9422160E2EA091A80AFA
:10197200B091A90A8091AA0A9091AB0A0E942216FC
:10198200E02971F0E1E0F0E09E0EAF1EEDE0F0E044
:10199200E915FA0524F4E2E0F0E09E2EAF2E02C033
:1019A2009924AA24E4EFF1E0DE2EEF2EEAE0F0E043
:1019B200E0939C0AF0939D0AEB15FC051CF4BB24F2
:1019C200CC2455D9EECDFFCFAA93E091C000E072AE
:1019D200E1F3E881E093C60021960895BA93AA93B1
:1019E200AA81F2DFA881B9810E94A61323960895E5
:1019F2000E942916E0E8EA83EFE3EB830E949D1A36
:101A0200EE85FF85EF3FAFEFFA0749F4E885F985E8
:101A1200FA93EA93A6E0B2E00E94C212B4C0EF3F8A
:101A2200AFE7FA0749F4E885F985FA93EA93A7E064
:101A3200B2E00E94C212A7C0AB85A73010F0E6E068
:101A4200EB871B85E12F1150E03019F00E94301610
:101A5200F9CFEC85FD856E857F850E948D1A21F474
:101A620030E00E9430162EC03B850E943F1609F0DE
:101A720010F40C94470D0E9430160E943F1628F075
:101A82000E944A160E944F16F8CF0DC00E943F16C0
:101A920040F40E944A160E945B160E946216315060
:101AA200F5CF0E943016EC85FD856E857F850E94FC
:101AB20067160E9462160E943F1620F00E944A1684
:101AC2000E944F1610E0EB85E11788F10E946E1616
:101AD2000E9473160E946716DF01CB010E94FE105E
:101AE200EC83FD836E837F830E947A160E944A16DE
:101AF2000E94EA180E94D9170E2F0E947F160E9498
:101B02008616FF27662777270E9412180E948B16D7
:101B12000E944A160E948F160E946216E12F1F5FD2
:101B2200E03089F60E947F16EEE2EC93CCCF0E9461
:101B320094163197AA85A08330302CF43195A8856C
:101B4200B985EDE203C0A885B985EBE2EC930E946A
:101B520094160E9494163197BF01A32FEAE00E94C7
:101B6200D619E05DDB01EC930E9494163197BF0118
:101B7200A32FEAE00E94001AE05DDB01EC93A88546
:101B8200B985E0E0EC930E94A41A60960895BA9396
:101B9200AA93EF9761970E949B1A10E0FE01E85A00
:101BA200FF4F0190F081E02DE887F987FE01EA5AA4
:101BB200FF4F0190F081E02DEE83FF83AE81BF8164
:101BC200E0E0F0E0ED93FC93DE01A45ABF4F0E94E7
:101BD200A6133197E4912E2FE03011F40C94DB0F11
:101BE200E12FE03039F4253211F411E002C00E94F5
:101BF2009A16DFC1E130C1F4253219F40E949A1617
:101C0200D7C112E0E0E0ED8B00E02D3211F401E0EB
:101C1200D0C12B3219F4EBE2ED8BCBC1203219F497
:101C2200E0E2ED8BC6C102C0E23039F450E013E0CD
:101C3200203311F40068BDC102C0E33091F42033B7
:101C420010F02A3308F007C0AAE05A9F502DE22F65
:101C5200E0535E0FAEC140E02E3211F414E0A9C190
:101C62000FC0E43099F4203310F02A3308F008C092
:101C72000062AAE04A9F402DE22FE0534E0F99C125
:101C82002C3619F4026015E094C104C0E53011F05D
:101C92000C94DA0FE22FE33659F40E94A1160E9447
:101CA200A8160E94A116A481AA930E94AF1680C111
:101CB200E53411F0E53609F404C0E63611F00C946F
:101CC200A80EFE017696EE87FF870E94B5160E9447
:101CD2002E1A0E94BC160E94C116AD85AA2322F0BC
:101CE200AD89AB3249F017C00E94C3160E94A617F5
:101CF2000E94BC16EDE2ED8B07FF05C0ED89EA9369
:101D02000E94AF1608C0EE85FF853196EE87FF87E9
:101D12003197AD89A08305FF46E0263651F40E9433
:101D2200C3160E944D1A4A93AB89BC890E940910BE
:101D320009C00E94C3160E944D1A4A932A93AC8985
:101D4200BD8956DEFE0176960E94C8161EC0E33794
:101D520039F40E94C1160E94D0160E94C8160EC005
:101D6200E037C1F40E94C1160E94D016EE87FF87A9
:101D7200AE85BF850E94DB121E2F08600F774030B0
:101D820011F0411708F001C0142F40E0E0E0EC8BA5
:101D920030E06EC0E43611F0E93611F4046002C09E
:101DA200E537A1F4EAE0EC8B01FF08C0E0E0FAECD1
:101DB2006AE97BE30E94D5161AE023C0E0E1F7E26C
:101DC20060E070E00E94D51615E01BC0E83511F402
:101DD200086004C0E83711F00C94D90FE0E1EC8BF5
:101DE20001FF08C0E0E0F0E060E070E10E94D5167B
:101DF20018E007C0E0E0F0E160E070E00E94D51674
:101E020014E0403011F00F7701C041E001FF08C03B
:101E12000E94C1160E94B51614960E942E1A0FC077
:101E220002FF07C00E94C1160E94D0160E94AE197E
:101E320006C00E94C1160E94D01666277727EA873D
:101E4200FB876C877D8702FF12C0AD85AA2342F40F
:101E52000E94C3160E948E190E94BC16EDE2ED8B01
:101E6200ED89E03019F01F5F4F5F01C00B7F342F07
:101E720000FD14C0151710F4351708F00FC007FF46
:101E820008C002FF04C00B7F2D89115001C020E35E
:101E920001C020E20E949A165150ECCF141790F420
:101EA200006102FF06C00E94DA1609F0515011507B
:101EB2004150E0E3EA930E94AF16503009F05150CE
:101EC2004150ECCF312FEC89E030B9F43030A1F041
:101ED20003FF06C0EE85FF852591EE87FF8705C0CB
:101EE200AE85BF852D91AE87BF870E949A1650306E
:101EF20009F051503150EACF51C00E94EC160E94B5
:101F0200DB192E2F2A3030F003FF02C0295C01C0FA
:101F1200295A01C0205D04FD21C0213360F4A88943
:101F2200B9898A899B89A130E0E0BE07E0E08E078B
:101F3200E0E09E0709F40BC0431740F4531710F07A
:101F420000FF01C010C020E207FF08C020E30061CB
:101F520002FF04C00E94DA1609F051500E949A163C
:101F6200503009F0515031500E94EC160E940C1A68
:101F72000E94BC16EC89A889B9898A899B89FF27A6
:101F8200662777270E94DB190E94D516E889F9890E
:101F92006A897B890E948D1A09F0AFCF00FF08C0C1
:101FA200503031F05150E0E2EA930E94AF16F8CF80
:101FB20010E00ACEAE81BF810E942A1A0E94A21AA4
:101FC200EF966F960895FF92F82E26971A930A932A
:101FD200DE0114960E9486198D01E0E0EC83ED8308
:101FE200EE83EF83DE0118960E9486190E942A1A58
:101FF200FA93EA931A930A93EFEEFCE0FA93EA93C8
:10200200DE011896C4DD198108812896FF90089593
:102012000E942916E0E0EA83EFE3EB831A930A9326
:10202200EB85FC85EF3FAFEFFA0739F40E94F51616
:10203200AEE0B2E00E94C212ABC0EF3FAFE7FA07D8
:1020420039F40E94F516AFE0B2E00E94C212A0C0BD
:10205200AC85AA2362F4E985FA856B857C850E94AA
:10206200A6170E94FA160E94FF16EDE2EC93A885CD
:10207200A73010F0E6E0E8871885E12F1150E03034
:1020820039F00E9406170E9473160E940B17F5CFB3
:102092000E9410170E944C180E94FA1610E00E942B
:1020A20019170E940B170E9410170E942F1988F00F
:1020B2000E9406170E945B160E940B171F5F1732C1
:1020C20038F00E94F516A3E1B2E00E94C21260C08D
:1020D200EACF103029F40E94FF16E0E3EC932BC004
:1020E200E12F1150E03039F10E9406170E94731659
:1020F2000E946716DF01CB010E94FE100E940B179F
:102102000E9410170E94EA180E94D9170E2F0E94EF
:10211200FF160E948616F0E00E9406170E94AE1972
:102122000E9412180E949C180E941E170E948F166D
:102132000E94FA16D5CFE885E03031F10E94FF16F1
:10214200EEE2EC93E885E150E887EF5FE9F00E9468
:102152001E170E945B160E94FA16E985FA856B85A6
:102162007C850E94D9170E2F0E94FF160E948616A8
:10217200F0E00E941E170E94AE190E9412180E94DF
:102182008F160E94FA16DECFAE81BF81E0E0EC939B
:10219200198108812D9608950E94521A7B816A81C5
:1021A200F981E88177FB770F67FD7160972F9E5762
:1021B20081F078F0983190F4AA27BB2788270894F9
:1021C2008795B795A7959A95D1F7EA23FB236823BC
:1021D20005C0E8947727EE27FF2766276F77769565
:1021E20008F4606877F9A991B99189919991EA17F0
:1021F200FB076807790797FB08950E9423170E943F
:10220200CD100E94281719F40E942B1763C1E6F71C
:102212000E942E175DC10E943417E3E8F9EF62E2D3
:102222007EE30E949C180E943E17E7DF0E94471738
:102232000E948F160E943E17E0E0F0E060E07FE32C
:102242000E942F1909F010F40C9430110E944C17BF
:10225200A0E0B0E080E09FE30E94511711E00E94ED
:102262004717E0E0F0E060E87EE30E942F1909F0F2
:1022720010F40C9444110E944717E0E0F0E060E093
:102282007FE30E945117103011F00E9458170E94EC
:102292006017E983FA836B837C830E946517A1EB45
:1022A200B4EC86E292E40E949C18DF01CB01EDE1DE
:1022B200F5EE6DE272E40E948F160E946A17ACE49A
:1022C200B3E584E091E40E944C180E9447170E94F3
:1022D2009C187F936F93FF93EF930E946517A1E180
:1022E200BDEE8EED9FE30E944C180E946A17AEE588
:1022F200BBE788EA9FE30E944C18AF91BF918F9190
:102302009F910E94EA18C5C00E942317EBEDFFE0DF
:1023120069EC7FE30E944518DF01CB017CDFDAC064
:102322000E94521A24970E947A160E948B160E94CB
:1023320028170E942B17A5E6B0ED8BEC90E40E94C3
:1023420071170E948B167F936F93FF93EF930E94F6
:102352002B17A0E0BDE689E291E40E944C180E948E
:102362007A170E947117AF91BF918F919F910E942E
:10237200EA18289608950E942317EDECF3E164ED24
:102382007EE30E942F1920F40E947A17C9DFA2C0AF
:102392000E947A17EAE7F2E86AE170E40E942F19D4
:1023A20009F010F40C94DA110E942E170E947D1786
:1023B20089C00E942E170E9445187F936F93FF9346
:1023C200EF930E942E170E944C18AF91BF918F91EC
:1023D2009F910E947D17ABEDBFE089E49FE30E94CD
:1023E2004C1878C00E9434170E94831758F00E943C
:1023F20047170E9419170E942F1919F010F00C9418
:10240200031203C00E948A1744C0A885AA231AF4A3
:102412000E94581711E00E946017A0E0B0E080E827
:102422009FE30E948F16DF01CB010E944F19E983BF
:10243200FA836B837C830E944717E3EFF4E065E342
:102442007FE30E942F1909F010F40C9437120E94B6
:102452004C17A981BA818B819C810E948F17ABEDA9
:10246200BFE089EC9FE30E948F1606C00E946517A9
:102472000E9447170E948F17E983FA836B837C833C
:10248200103029F00E9465170E94A61702C00E9410
:1024920065171881299608950E9423170E948317B1
:1024A20058F00E947A170E9419170E942F1919F0EA
:1024B20010F00C945D1203C00E948A170BC00E9498
:1024C2007A1790DFABEDBFE089EC9FE30E94571AC9
:1024D2000E944518249608950E94521A24970E9439
:1024E2007A160E948D1AD9F4E885F9856A857B856A
:1024F2000E948D1A19F40E948A1741C0A885B985D5
:102502008A859B850E94951A2CF4EBEDFFE069EC1D
:102512007FE335C0EBEDFFE069EC7FEB30C00E945A
:102522007A16A885B9858A859B850E94EA180E9439
:1025320028170E946E160E94951A64F4AB85AA238E
:1025420022F00E947A1717DF1AC00E9495170E9484
:10255200A61715C0AB85AA234AF00E949517ABEDCA
:10256200BFE089E490E40E948F1609C00E947A17A6
:1025720002DFABEDBFE089E490EC0E944C182C9690
:102582000895BA93AA93E991F991A991B991CD01CC
:1025920005900D920020E1F7FC010895BA93AA93E9
:1025A200A991B991EE27FF276D91662311F031961B
:1025B200FBCF0895BA93AA93AA27BB27E991F99171
:1025C2000590002011F01196FBCFFD010895A09116
:1025D200B80AB091B90A8091BA0A9091BB0A0895DB
:1025E200E091BC0AF091BD0A6091BE0A7091BF0AE7
:1025F2000895A091BC0AB091BD0A8091BE0A909143
:10260200BF0A0895A091C00AB091C10A8091C20A7E
:102612009091C30A0E949C180895A091C40AB09197
:10262200C50A8091C60A9091C70A0895E0E0E09336
:102632009E0AE0939F0A0895A0919E0AB0919F0A74
:1026420012970895E0919E0AF0919F0A0895ACEEC8
:10265200BAE00E949A190895A091AC0AB091AD0A0D
:102662008091AE0A9091AF0A08950E94481AEACF6B
:10267200A4EFBAE00E949A190895A091B00AB0910D
:10268200B10A8091B20A9091B30A0895ACEFBAE010
:102692000E949A190895A091B40AB091B50A809146
:1026A200B60A9091B70A08950E94481A0895AEE9B1
:1026B200BAE0ED91FD913196FE93EE930895E0E03C
:1026C200E093C80AE093C90AE093CA0AE093CB0AEE
:1026D200E093D00AE093D10AE093D20AE093D30ABE
:1026E200E093D80AE093D90AE093DA0AE093DB0A8E
:1026F200ECECFAE0A0E0B0E080E090E0D5DFE4EDC1
:10270200FAE0A0E0B0E080E090E0CEDFECEDFAE0AD
:10271200A0E0B0E080E090E0C7CFE091940AF091B1
:10272200950A0895A0E0BAE0EE0FFF1F0895EE0F9C
:10273200FF1FAE0FBF1F08950E94AE190E944D1ACF
:1027420084E00E94E40F26960895ED91FD91319662
:10275200FE93EE930895F0E030970895E091780AA1
:10276200F091790A0895AFEFBFEF0E94C31908955F
:10277200E0917A0AF0917B0A0895EA0FFB1FEE0FAF
:10278200FF1F0895E057F741EF2FF0E00895EA0F99
:10279200EE0FE057E09388000895A0E7B7E10E94AA
:1027A2005D1AEA1BFB0BEECFEA0FEE0FA0E70E94C9
:1027B200601AEA1BE057E0938A00E8EEE093850096
:1027C200E0E9E09384000895EA0FEE0FA0E70E948B
:1027D200601AEA1BE057E09388000895EA0FEE0FB3
:1027E200E057E0938A00E8EEE0938500E0E9E093A9
:1027F20084000895AA93EA93FA93EFB7EA93E52D3A
:10280200AACFE091D00BA7CFEA0FEE0FE057E093EB
:1028120098000895EA0FEE0FE057E0939A00E8EE71
:10282200E0939500E0E9E09394000895E8EEE093E8
:102832009500E0E9E09394000895AA93EA93FA934D
:10284200EFB7EA93DECF0E944D1A8CE00E94E40FAC
:102852002E960895A091A00AB091A10A8091A20A91
:102862009091A30A0E94951A0895A091A40AB0918A
:10287200A50A8091A60A9091A70A0E94951A089526
:10288200A091A80AB091A90A8091AA0A9091AB0AD4
:102892000E94951A0895E091980AF091990A089574
:1028A200D1DEA4E0BBE00E949A190895CBDEA8EC29
:1028B200BAE00E949A190895AE0FBF1F0E942E1A05
:1028C20008950E94571A0E944518DF01CB01E3DFE9
:1028D2000E94AE190E9412180E94EA1808950E94DE
:1028E200341AB0CE0E949A19EA0FFB1F08950E9473
:1028F2009A19E2CFA7DEA0E5BAE019CFEE0FFF1FCB
:10290200EA0FFB1F0895E091920AF091930A08954D
:10291200DF01CB010E949C1808950E944C18DF0130
:10292200CB010C944F19A091380BB091390B8091C7
:102932003A0B90913B0B0895A0913C0BB0913D0B4B
:1029420080913E0B90913F0B0895E091400BF091E6
:10295200410B6091420B7091430B08950E94341A0F
:10296200D2DFACE6BBE00895A091200BB091210B21
:102972008091220B9091230B089532DEA0E0B0E00B
:1029820080E090E40E949C183DCE0E94EA18DF018C
:10299200CB010C944D120E944C180E94A617089568
:1029A200A0E0B0E084EB92E40895E0917C0BF0911A
:1029B2007D0B60917E0B70917F0B08950E949C1895
:1029C200EFDF0E944C180895E0938C0BF0938D0B6F
:1029D20060938E0B70938F0B08950E949C18A0E059
:1029E200B0E084E393E40E94571A0E944518DF0185
:1029F200CB010895E0918C0BF0918D0B60918E0BC1
:102A020070918F0B0895A0E0B0E08CE892E40E94F0
:102A12004C180895A0917C0BB0917D0B80917E0B98
:102A220090917F0B0E949C180895E093A40BF09361
:102A3200A50B6093A60B7093A70B0895A0917C0B36
:102A4200B0917D0B80917E0B90917F0B0895E09168
:102A5200A40BF091A50B6091A60B7091A70B0895A2
:102A6200E091E00AF091E10A6091E20A7091E30AD2
:102A72000895E093C80AF093C90A6093CA0A709352
:102A8200CB0AE0E0E093D00AE093D10AE093D20AC5
:102A9200E093D30AE093D80AE093D90AE093DA0AE2
:102AA200E093DB0A0895E093D40AF093D50A609389
:102AB200D60A7093D70A0895E091E80AF091E90ADC
:102AC2006091EA0A7091EB0A0895E093DC0AF093B0
:102AD200DD0A6093DE0A7093DF0A0C948B0AE0939E
:102AE200C80AE093C90AE093CA0AE093CB0AE0E07D
:102AF200E093D00AE093D10AE093D20AE093D30A9A
:102B02000895E093D80AF093D90A6093DA0A709391
:102B1200DB0AECECFAE00895A0E0B0E080E090E09F
:102B2200C3CDE4EDFAE0F8CFE0E0E093D80AE09319
:102B3200D90AE093DA0AE093DB0AECECFAE00895B2
:102B4200A0E0B0E08CE892ECAFDDEBCFE0E0F0E0AB
:102B52006CED72E4E093C80AF093C90A6093CA0A62
:102B62007093CB0A0895E0E0F0E060E772ECC9CF21
:102B7200E091A40AF091A50A6091A60A7091A70AB1
:102B82000895E093D00AF093D10A6093D20A709329
:102B9200D30A0895A0E0B0E08CE892EC85DDE8DF8E
:102BA2000E94A6170895E093C80AF093C90A609399
:102BB200CA0A7093CB0ADCDFE4DFB6CFE0E0E09331
:102BC200C80AE093C90AE093CA0AE093CB0AD0CFBD
:102BD200D8DFAACFCDDF0E94A6170895E0E0F0E08B
:102BE20062E872ECE0CFA0E0B0E088EC92E45CCD69
:102BF200ECEDFAE0A0E0B0E08CE592EC0895E0E0C4
:102C0200F0E062E872ECE093C80AF093C90A6093BC
:102C1200CA0A7093CB0ADECFABDFA091A40AB091AF
:102C2200A50A8091A60A9091A70A0E944C180895BD
:102C3200E093C80AF093C90A6093CA0A7093CB0A58
:102C4200C9CFE0E0F0E060E070E00E94B3190895BF
:102C5200BA93AA932497E0E0E883E9830895AC81CC
:102C6200BD818E819F81E0E0F0E060E271E40E942C
:102C72009C18EC83FD836E837F830895EC81FD8134
:102C82006E817F81AC85BD858E859F850E942F19BF
:102C92000895AC85BD858E859F850895EDECFCEC8D
:102CA2006CEC7DE30E949C18EC87FD876E877F8722
:102CB2003F5F0895E0E0F0E060E271E40E949C185A
:102CC2000895EC87FD876E877F870895A0E0B0E0C6
:102CD20080E09FE30E944C180895AC81BD818E81F3
:102CE2009F810895EDECFCEC6CEC7DE30E949C1856
:102CF2000895EC81FD816E817F810895A885B98553
:102D02001196A887B98711970895E02FE05DEC939B
:102D1200E02F0895E2DF0E949C1808950E94571A3E
:102D22000E9445180895E885F9853196E887F98764
:102D320008952A93AF81B885E985FA8509950895A2
:102D4200FE01E65AFF4F0190F081E02D089534977D
:102D5200DE01A65ABF4FED93FC930895AF81B8856B
:102D6200E985FA8509950895DE01A65ABF4F0D90AF
:102D7200BC91A02D0895EA87FB876C877D87089513
:102D8200DFDFE5CFEA85FB856C857D850895EE87DB
:102D9200FF87AE85BF850E94CF121E2F0895E4DF04
:102DA20014960E942A1A0895E88BF98B6A8B7B8B02
:102DB20008950B7FED89EA93DE01A95ABF4F0D906A
:102DC200BC91A02DFE01E75AFF4F0190F081E02D4A
:102DD200099550300895E889F9896A897B89AA851D
:102DE200BB858C859D850895EE81FF81FA93EA93D8
:102DF2000895E987FA876B877C870895AE81BF8142
:102E02001196AE83BF8311970895AA81BB818C81ED
:102E12009D810895EA83FB836C837D830895EA8113
:102E2200FB816C817D81A985BA858B859C850895FE
:102E3200E0E0F0E060E87FE30895A985BA858B853C
:102E42009C8508950E94521A0E943E1A08950E947B
:102E5200431A08950E94391A0895FCDFA0E0B0E0F9
:102E620080E89FE308950E94521A24971A9310E073
:102E7200AD81BE818F8198850895ED83FE836F8336
:102E82007887AD81BE818F8198850895AD81BE819D
:102E92008F8198850895ED81FE816F8178850895EF
:102EA2000E944518ED83FE836F8378870895F3DFD0
:102EB2000E94A617ED83FE836F8378870895EBDF68
:102EC200E5DF0E949C180895E981FA816B817C817B
:102ED2000895A981BA818B819C810E949C180895D2
:102EE2000E949C18AEE4BFE88AE491E40E944C1868
:102EF20008950E943E1A08950E94EA18DF01CB014C
:102F02000C949111E0E0F0E060E87FEB0E942F1951
:102F12000895EFEFFFEF6FE77FE708950E94EA1849
:102F2200DF01CB010C94BC1195DF0E94A617DF01D3
:102F3200CB010C94BC11109639F080EA9FE0019706
:102F4200F1F7A8951197C9F708953097604070403E
:102F520009F070580895552342F4503811F4E0FFF7
:102F620004C03196691F791F6BF050E8572711F49E
:102F72005F93CFC05F3F31F0660F000C57956795A6
:102F8200752F08955F9300200AF0CFC0C8C050E8A3
:102F9200192E1522880F991F9527550F879550E8EE
:102FA200072E0522660F771F7527550F679508951F
:102FB200689401C0E8945F93F2DF703818F07F3FA5
:102FC20008F4A7C056E1571BAAF4519558300EF4E5
:102FD200593030F0EFEFFFEF6FEF7FE777F91AC06C
:102FE20077275523B9F0EE0FFF1F661F771F5A95FB
:102FF200D1F710C07727583028F0EF2FF62F672F20
:103002005850F9CF552331F076956795F795E795A6
:103012005A95D1F700200AF480D15F9108956894FF
:1030220001C0E894309760407040B1F0002426F06F
:10303200772312F4009471D1172E7EE1112032F021
:103042007A95EE0FFF1F661F111CF9CFEF2FF62F97
:10305200612D5F938ADF5F9108954F93AF01FD0168
:10306200DA01AB01BC01CA01402D012C142E4F9193
:103072000895EA0FFB1F681F0895E095F09560958B
:10308200EF5FFF4F6F4F08955F9381DF903871F1CB
:1030920050E8152604C05F937ADF903839F1703812
:1030A20021F1572F591B2BF112F4D7DFFACF5831E8
:1030B20018F0AA27BB278827583028F0AB2FB82F43
:1030C20088275850F9CF552329F08695B795A795AB
:1030D2005A95D9F7502D512572F0CBDF38F4679508
:1030E200F795E795739513F420C0B7DF3EDF5F9144
:1030F2000895D8F7FBCFEA1BFB0B680B51F010F4D5
:103102000094BBDF662392F3EE0FFF1F661F7A95D2
:10311200CBF7EE27FF27662777275F910895EFEF1A
:10312200FFEF6FE77FEF5F910895EFEFFFEF6FE73C
:103132007FE75F9108955F932ADF703851F39038EB
:1031420041F301240894791F23F41CF300203AF37D
:10315200ECCF0F921F932F933F934F931127222768
:103162009927689FA0018F9F302D410D591F6B9F9A
:10317200300D411D591F8E9F27D0BF9F25D06A9FBA
:1031820023D0BE9F1DD0AF9F1BD0AE9F110D291F14
:10319200391F491F591FE32FF42F652F522F4F91CB
:1031A2003F912F911F910F9066232AF0550FEE1F2A
:1031B200FF1F661F02C073954BF2CDDE5F9108952B
:1031C200100D211D391F02C0200D311D491F591F2D
:1031D20008955F93DCDE703821F411200AF49FCF4A
:1031E200A4CF903809F495CF01240894970B1BF4CF
:1031F200D4F30020F3CF792F1F932F933F934F9354
:1032020011241127222733274427552790E2AE178E
:10321200BF078607410730F0AE1BBF0B860B410B81
:10322200089401C08894551F221F331F111CAA1F26
:10323200BB1F881F441F9A9551F7F901612D4F91C9
:103242003F912F911F91662332F0550FEE1FFF1F02
:10325200661F7A9543F27FDE5F91089599239AF073
:10326200772342F0971748F029F4AE17BF07860775
:1032720020F031F0989488940895989408940895D1
:103282001894889408957723C2F7971798F3A9F7AB
:10329200EA17FB07680788F399F3ECCF02D124976A
:1032A2005F939F81992311F4289633CF12F42896C5
:1032B2003CCF4F9342E48E81BD81AC818883998358
:1032C200AA83BB83FD01BC01AC81BD818E819F813C
:1032D20080DF88819981AA81BB81DDDE60DE7A95FB
:1032E20044DE88819981AA81BB81AE27A87F21F41F
:1032F200BF178607970729F04A9519F0DF01CB011E
:10330200DDCF4F915F91289608950024AF0DB01D37
:103312000895F195E195F0400895F09560957095C6
:10332200E195FF4F6F4F7F4F0895EE0FFF1FEE0F96
:10333200FF1FEE0FFF1FEE0FFF1F0895F595E79594
:10334200F595E795F595E795F595E7950895FE2F9F
:10335200FF0FFF0B6F2F7F2F08956F2F660F660BE6
:10336200762F0895EA17FB0768077907E1E009F469
:10337200EE270895FA9FF02DEB9FF00DEA9FE02DC6
:10338200F10D089558D0F6DF0EF4C3DF089500243E
:1033920098E0AA0F001C0E1A10F40E0E01C0A160D4
:1033A2009A95B9F7EA2FA02D089539D0F0DF0EF4DF
:1033B200E19508953F934F935F930024112444278E
:1033C200552730E2AA0FBB1F881F991F001C111C32
:1033D200441F551F0E1A1F0A460B570B28F40E0ED8
:1033E2001F1E461F571F01C0A1603A9559F7FD01E4
:1033F200BC01D001CA015F914F913F910895E894B9
:10340200A7FF02C0A1956894E7FDE195C0DFEA2F0E
:103412000EF4E1950895CEDFFD01BC010895E89414
:10342200E7FF02C0E1956894A7FF04C0A19500F8E8
:10343200039400FA0895E894F7FF02C06ADF6894E3
:10344200B7FF06C0A095B095119600F8039400FA54
:103452000895ED91FC9111970895ED91FD916D9173
:103462007C9113970895ED93FD936D937C9308954A
:10347200E881F9816A817B810895A881B9818A8175
:103482009B810895E883F9836A837B830895A083EF
:10349200B1838283938308957A936A93FA93EA932A
:1034A20008959A938A93BA93AA930895182E862F11
:1034B200612D192E972F712D1B2EBF2FF12D1A2E34
:1034C200AE2FE12D0895119602D0FE2F1197F99992
:1034D200FECFFF93FFB7F894A1BDB2BDF89AE0B555
:1034E200FFBFFF91089507D01196EF93EF2F03D0FE
:1034F200EF9111970895F99B02C0A895FCCF9FB751
:10350200F894A1BDB2BDF89A80B5E81719F0E0BDF4
:10351200FA9AF99A9FBF08953097604070400895D3
:1035220000240A160B06089500240A160B06080644
:10353200090608955A934A933A932A931A930A933F
:1035420008955D814C813B812A811981088108950A
:00000001FF
