:040000000C94AD01AE
:100004000C9400000C9400000C9400000C94390330
:100014000C9400000C9400000C9400000C9400005C
:100024000C9400000C9400000C9400000C9400004C
:100034000C9400000C9400000C94EB010C94000050
:100044000C944F060C9484060C9400000C94F70452
:100054000C9400000C9400000C9400000C9400001C
:100064000C944A030C9400000C9400000C940000BF
:100074000C9400000C9400000C9400000C94E6070F
:100084000C9401080C9400000C94AB060C94000032
:100094000C9400000C9400000C9400000C940000DC
:1000A4000C9400000C9400000C9400000C940000CC
:1000B4000C9400000C9400000C9400000C940000BC
:1000C4000C9400000C9400000C944B030C9400005E
:1000D4000C9400000C9404040C9400000C94000094
:1000E4000000DC05DC05DC05DC05DC05DC05DC05E5
:1000F400DC05DC05DC05DC05DC05DC05DC05DC05F4
:10010400DC05DC05DC05DC05DC05DC05DC05DC05E3
:10011400DC05DC05DC05DC05DC05DC05DC05DC05D3
:10012400DC05DC05DC05DC05DC05DC05DC05DC05C3
:10013400DC050100E803000044430000A84100007E
:10014400A8420000B2420000A84101002C012C0189
:100154002C012C0158025700480063617269206227
:100164006F6C61202564202564203D3D202564209A
:100174000D0A006361726920626F6C61202564203E
:100184002564203D3D2025640D0A0068616C61757D
:1001940020626F6C61202564202564203D3D20256C
:1001A40064200D0A0068616C617520626F6C6120C7
:1001B4002564202564203D3D2025640D0A00504916
:1001C4004420536572766F202D2D202664202D2D1A
:1001D400202564202D2D202564202D2D2025640D1F
:1001E4000A002564207365726F6E67206B697269FB
:1001F40020626F730D0A002564206D616A75206AA0
:10020400616C616E0D0A002564207365726F6E6700
:10021400206B616E616E0D0A0025642054656E6466
:10022400616E670D0A00416D6272756B20646570C2
:10023400616E202025640D0A00416D6272756B2089
:1002440062656C616B616E67202025640D0A006332
:10025400656B20416D6272756B20646570616E2000
:1002640025640D0A0063656B20416D6272756B2015
:1002740062656C616B616E672025640D0A007072A3
:100284006F7365732062616E67756E20646570615B
:100294006E2025640D0A007765730D0A0070726F75
:1002A4007365732062616E67756E2062656C616B45
:1002B400616E672025640D0A0057657320636F6BB8
:1002C4000D0A004361726920426F6C61204C6167C2
:1002D40069202564202D2025640D0A002D4E414EF1
:1002E400000001002D4E414E00494E460000010021
:1002F4000400E4002800280AE6002800500A0E0141
:100304000100840A36010400A40A3A010400A80A80
:100314003E010400AC0A42010400B00A4601040094
:10032400B40A4A010100B40B4E010200C00B500193
:100334000200C20B52010200C40B54010200C60B9E
:1003440058010100C80B5A010100CA0B5C010100ED
:10035400100CE6020000F894EE27EFBBF1E0F5BFC5
:10036400E5BFE0937400E0937500F8E1A895A4B7A5
:10037400A77FA4BFF0936000E09360008DE0A2E04B
:10038400BB27ED938A95E9F780E090E2A0E0B2E024
:10039400ED930197E9F7E2EFF2E0859195910097EB
:1003A40061F0A591B59105901590BF01F0010590FC
:1003B4000D920197E1F7FB01F0CF8BBF8CBFE0E01A
:1003C400EEBBEFEFEDBFE1E2EEBFC0E0DAE00C948C
:1003D400420C0A92AA93BA93EA93FA93EFB7EA9378
:1003E400E0EFE093B200A8E7BAE00E94E5180E94AB
:1003F400EB1824F4AAE7BAE00E94F218E991EFBFDF
:10040400F991E991B991A99109901895E0E0E2B9BF
:10041400EFEFE1B9E0E0E5B9EFEFE4B9E0E0E8B926
:10042400EFEFE7B9E0E0EBB9E0EFEAB9E0E0EEB90D
:10043400EFEFEDB9E0E0E1BBEFEFE0BBE0E0E4BB00
:10044400EFEFE3BBE0E0E0930201EFEFE0930101A3
:10045400E0E0E0930501EFEFE0930401E0E0E093D6
:100464000801EFEFE0930701E0E0E0930B01EFEF09
:10047400E0930A01E0ECE0936900E0E0E0936A00B5
:10048400E8E0EDBBECBBE0E0E0938000E2E0E09369
:100494008100E0E0E093B000E7E0E093B100E0E049
:1004A400E0939000E2E0E0939100E0E0E093C0008C
:1004B400E8E0E093C100E6E0E093C200E0E0E0930E
:1004C400C500E7E6E093C400E0E0E093D000E0E993
:1004D400E093D100E6E0E093D200E0E0E093D500C1
:1004E400E7E6E093D400E0E0E0933001E0E9E09354
:1004F4003101E6E0E0933201E0E0E0933501E8E029
:10050400E0933401E0E8E0BFE0E0E0937B00E093B7
:100514007F00E7E0E0936F00E1E0E0937000E7E044
:10052400E0937100E6E4F7E165E672E4E093600BC2
:10053400F093610B6093620B7093630BE091A80AD4
:10054400F091A90A6091AA0A7091AB0A0E94F81866
:100554000E940B21E093000BF093010B6093020BBC
:100564007093030B0E9401190E940A190E940B2127
:10057400E093040BF093050B6093060B7093070B49
:10058400E091B00AF091B10A6091B20A7091B30A95
:100594000E941319E093080BF093090B60930A0B64
:1005A40070930B0BE091B40AF091B50A6091B60A0E
:1005B4007091B70A0E941E190E940B21E0930C0B44
:1005C400F0930D0B60930E0B70930F0B0E94271981
:1005D4000E942D19ECF40E9433190E943819EA0F75
:1005E400FB1F0E943D190E9446190E944919EA0FF7
:1005F400FB1F0E944E190E9446190E945719EA0FC8
:10060400FB1F0E945C190E9465190E946819E0CFC3
:100614000E946B19E0E0E093800AE093810AA091C4
:10062400800AB091810A54970CF5E091800AF09108
:10063400810AA0E0BAE0EE0FFF1FEA0FFB1F0F01D3
:10064400E091800AF091810AA0E0B0E00E9499193B
:100654000E94DE22D001ED93FC93A2E3B0E00E945D
:100664000B20A0E8BAE00E94E518D9CF0895AA9318
:10067400BA93EA93FA93EFB7EA93A0E0BCE00E943E
:10068400E518E991EFBFF991E991B991A99118950C
:1006940018950A921A92AA93EA93FA93EFB7EA93F7
:1006A4001A931091D600E091FB0BF0E0309731F4EF
:1006B4001F3F19F4E1E0E093FB0B9BC0E130A0E0A5
:1006C400FA0799F41F3F11F4E1E00CC01093F10B09
:1006D400A091F10BE2E0EA9FF001E093E10BF093CB
:1006E400E20BE2E0E093FB0B84C0E230A0E0FA0707
:1006F40089F41F3F11F4E1E00AC01093F20BE0917A
:10070400F20BF0E0E093E30BF093E40BE3E0E0930F
:10071400FB0B6FC0E330A0E0FA0751F41F3F11F464
:10072400E1E003C01093F30BE4E0E093FB0B61C042
:10073400E430A0E0FA0751F41F3F11F4E1E003C0F4
:100744001093F40BE5E0E093FB0B53C0E530A0E01D
:10075400FA0751F41F3F11F4E1E003C01093F50BC5
:10076400E6E0E093FB0B45C0E630A0E0FA0751F465
:100774001F3F11F4E1E003C01093F60BE7E0E093B0
:10078400FB0B37C0E730A0E0FA0751F41F3F11F428
:10079400E1E003C01093F70BE8E0E093FB0B29C002
:1007A400E830A0E0FA0751F41F3F11F4E1E003C080
:1007B4001093F80BE9E0E093FB0B1BC0E930A0E0D9
:1007C400FA0751F41F3F11F4E1E003C01093F90B51
:1007D400EAE0E093FB0B0DC0EA30A0E0FA0749F42D
:1007E4001F3F11F4E1E003C01093FA0BE0E0E09343
:1007F400FB0B1991E991EFBFF991E991A991199036
:10080400099018950A921A92AA93BA93EA93FA93C2
:10081400EFB7EA93E0913601E093EF0BE091F00B30
:10082400F0E0309741F4A091EF0BAF3F19F4E1E011
:10083400E093F00BB9C0E130A0E0FA0781F4A09195
:10084400EF0BAF3F11F4E1E007C0E091EF0BE09351
:10085400E50B0E949E19E2E0E093F00BA5C0E230A4
:10086400A0E0FA0781F4A091EF0BAF3F11F4E1E0AF
:1008740007C0E091EF0BE093E60B0E94AE19E3E0B2
:10088400E093F00B91C0E330A0E0FA0781F4A0916B
:10089400EF0BAF3F11F4E1E007C0E091EF0BE09301
:1008A400E70B0E94BE19E4E0E093F00B7DC0E43056
:1008B400A0E0FA0771F4A091EF0BAF3F11F4E1E06F
:1008C40005C0E091EF0BE093E80BE5E0E093F00B5B
:1008D4006BC0E530A0E0FA0771F4A091EF0BAF3FD5
:1008E40011F4E1E005C0E091EF0BE093E90BE6E0E1
:1008F400E093F00B59C0E630A0E0FA0771F4A09140
:10090400EF0BAF3F11F4E1E005C0E091EF0BE09392
:10091400EA0BE7E0E093F00B47C0E730A0E0FA070A
:1009240071F4A091EF0BAF3F11F4E1E005C0E09149
:10093400EF0BE093EB0BE8E0E093F00B35C0E8300D
:10094400A0E0FA0771F4A091EF0BAF3F11F4E1E0DE
:1009540005C0E091EF0BE093EC0BE9E0E093F00BC2
:1009640023C0E930A0E0FA0771F4A091EF0BAF3F88
:1009740011F4E1E005C0E091EF0BE093ED0BEAE048
:10098400E093F00B11C0EA30A0E0FA0769F4A091FB
:10099400EF0BAF3F11F4E1E005C0E091EF0BE09302
:1009A400EE0BE0E0E093F00BE991EFBFF991E991F0
:1009B400B991A9911990099018950E949E190E94C5
:1009C400AE190E94BE190895A8E0BCE00E94C315A8
:1009D400E093040CF093050CACE0BCE00E94C3155A
:1009E400E093060CF093070C08951A92AA93BA9315
:1009F400EA93FA93EFB7EA93E32DF0E0309789F5A1
:100A0400E0910B01E460E0930B01479AE091280A1E
:100A1400F091290AA091000AB091010A0E94C81914
:100A24000E94CD19E0938900E091280AA091000A60
:100A34000E94D219A0910C0AB0910D0AE091340AD7
:100A4400F091350A0E94C8190E94D819E0938B00CE
:100A5400A0910C0AE091340A0E94DF19E1E03E2ED5
:100A640014C1E130A0E0FA0789F5E0910B01E860D8
:100A7400E0930B01469AA091020AB091030AE09117
:100A84002A0AF0912B0A0E94C8190E94CD19E093FA
:100A94008900A091020AE0912A0A0E94D219A09129
:100AA4000E0AB0910F0AE091360AF091370A0E94BB
:100AB400C8190E94D819E0938B00A0910E0AE09106
:100AC400360A0E94DF19E2E03E2EDFC0E230A0E0E9
:100AD400FA0789F5E0910B01E061E0930B01169AA6
:100AE400A091040AB091050AE0912C0AF0912D0A14
:100AF4000E94C8190E94D819E0938900A091040AA1
:100B0400E0912C0A0E94EF19A091100AB091110AE9
:100B1400E091380AF091390A0E94C8190E94CD194F
:100B2400E0938B00A091100AE091380A0E94F91911
:100B3400E3E03E2EAAC0E330A0E0FA0789F5E09195
:100B44000B01E062E0930B01179AA091060AB091A1
:100B5400070AE0912E0AF0912F0A0E94C8190E94F8
:100B6400D819E0938900A091060AE0912E0A0E9408
:100B7400EF19A091120AB091130AE0913A0AF09188
:100B84003B0A0E94C8190E94CD19E0938B00A091E2
:100B9400120AE0913A0A0E94F919E4E03E2E75C067
:100BA400E430A0E0FA0789F5E0910B01E064E093FA
:100BB4000B01149AA091080AB091090AE091300A35
:100BC400F091310A0E94C8190E94CD19E09389005E
:100BD400A091080AE091300A0E94D219A091140A47
:100BE400B091150AE0913C0AF0913D0A0E94C8199F
:100BF4000E94D819E0938B00A091140AE0913C0A5A
:100C04000E94DF19E5E03E2E40C0E530A0E0FA077F
:100C140089F5E0910B01E068E0930B01159AA0912E
:100C24000A0AB0910B0AE091320AF091330A0E9449
:100C3400C8190E94CD19E0938900A0910A0AE09195
:100C4400320A0E94D219A091160AB091170AE091B3
:100C54003E0AF0913F0A0E94C8190E94CD19E09300
:100C64008B00A091160AE0913E0A0E94F919E6E071
:100C74003E2E0BC0E630A0E0FA0739F4E8EFE0932B
:100C84008500E0E3E09384003324E991EFBFF99118
:100C9400E991B991A991199018950E94051A89F1C1
:100CA400E130A0E0FA0721F4E0910B01EB7F27C0CB
:100CB400E230A0E0FA0721F4E0910B01E77F1FC0C6
:100CC400E330A0E0FA0721F4E0910B01EF7E17C0B6
:100CD400E430A0E0FA0721F4E0910B01EF7D0FC0AE
:100CE400E530A0E0FA0721F4E0910B01EF7B07C0A7
:100CF400E630A0E0FA0729F4E0910B01EF77E093E6
:100D04000B0197C10E94051A19F1E130A0E0FA071E
:100D140011F447981DC0E230A0E0FA0711F4469898
:100D240017C0E330A0E0FA0711F4169811C0E430BC
:100D3400A0E0FA0711F417980BC0E530A0E0FA0719
:100D440011F4149805C0E630A0E0FA0709F41598E8
:100D540070C10A921A92FA926A937A938A939A9336
:100D6400AA93BA93EA93FA93EFB7EA930E940E1AFE
:100D740061F5889A8F9AA091180AB091190AE091A6
:100D8400400AF091410A0E94C8190E94CD19E093CB
:100D94009900A091180AE091400A0E94131AA091A8
:100DA4001E0AB0911F0AE091460AF091470A0E9478
:100DB400C8190E94CD19E0939B00A0911E0AE091EE
:100DC400460A0E94191AE1E0EFC0E130A0E0FA07F8
:100DD40041F5899A8E9AA0911A0AB0911B0A0E9431
:100DE400251A0E94C8190E94CD19E0939900A09178
:100DF4001A0AE091420A0E94131AA091200AB091A3
:100E0400210A0E942A1A0E94C8190E94CD19E0934F
:100E14009B00A091200AE091480A0E94191AE2E07E
:100E2400C3C0E230A0E0FA0761F58A9A8D9AA091D6
:100E34001C0AB0911D0AE091440AF091450A0E94EF
:100E4400C8190E94CD19E0939900A0911C0AE09161
:100E5400440A0E94131AA091220AB091230AE09135
:100E64004A0AF0914B0A0E94C8190E94CD19E093D6
:100E74009B00A091220AE0914A0A0E94191AE3E019
:100E840093C0E330A0E0FA0741F58B9A8C9AA091C5
:100E9400240AB091250A0E942F1A0E94C8190E94A0
:100EA400CD19E0939900A091240AE0914C0A0E9484
:100EB400131AA091260AB091270A0E94341A0E949C
:100EC400C8190E94CD19E0939B00A091260AE091D5
:100ED4004E0A0E94191AE4E067C0E430A0E0FA0761
:100EE40061F5A091C60BB091C70B0E94F22224F4C5
:100EF400A6ECBBE00E94F218A091FE0BB091FF0B90
:100F04000E94F22224F4AEEFBBE00E94F218A091FA
:100F1400C00BB091C10B0E94F22224F4A0ECBBE000
:100F24000E94F2180E94391A24F4A4ECBBE00E9437
:100F3400F2180E94401AE5E037C0E530A0E0FA0755
:100F440029F442DD0E94401AE6E02EC0E630A0E01B
:100F5400FA0761F5ACEFBBE00E94E518A091FC0B29
:100F6400B091FD0B5E9794F0E0E0E093FC0BE0930E
:100F7400FD0BE091000CF091010CE093020CF09356
:100F8400030CE0E0E093000CE093010C0E94471A8C
:100F9400159714F0A79A05C00E94471A16970CF4E7
:100FA400A7980E94401AE0E0E093DA0BE991EFBFC2
:100FB400F991E991B991A99199918991799169915D
:100FC400F9901990099018950E944C1AB9F0E130E3
:100FD400A0E0FA0711F4889811C0E230A0E0FA0703
:100FE40011F489980BC0E330A0E0FA0711F48A9851
:100FF40005C0E430A0E0FA0709F48B981AC00E94F7
:101004004C1AB9F0E130A0E0FA0711F48F9811C03E
:10101400E230A0E0FA0711F48E980BC0E330A0E0B0
:10102400FA0711F48D9805C0E430A0E0FA0709F43A
:101034008C98E991EFBFF991E991A9911895A09144
:10104400820AB091830A0E94F2220CF4A1C00E9489
:10105400521A31F40E945D1A19F40E94681A29F098
:10106400ACE7BAE00E94E51805C0E0E0E0937C0A32
:10107400E0937D0AE091860AF091870AA0917C0AA8
:10108400B0917D0AEA17FB07ACF40E94521A31F4BE
:101094000E945D1A19F40E94681A39F0E1E0F0E048
:1010A400E0937C0AF0937D0A05C0E0E0E0937C0ABB
:1010B400E0937D0A0E94731AE093820AF093830AF4
:1010C4000E9427190E942D190CF061C00E94781A01
:1010D400EA0FFB1FFF93EF930E947E1A0E94841A6B
:1010E4007F936F93FF93EF930E9433190E943819F3
:1010F4000E94841AAF91BF918F919F910E94891A87
:10110400AF91BF910E94971AA0EFBAE00E949A1A79
:10111400FF93EF930E943319A0ECBAE00E949F1A48
:101124007F936F93FF93EF930E9433190E944919A1
:101134000E94841AAF91BF918F919F910E94891A46
:10114400AF91BF910E94971AA8EFBAE00E949A1A31
:10115400FF93EF930E943319A8ECBAE00E949F1A00
:101164007F936F93FF93EF930E9433190E94571953
:101174000E94841AAF91BF918F919F910E94891A06
:10118400AF91BF910E94AE220E9468199BCF9BC071
:101194000E9427190E942D190CF05AC00E9433197D
:1011A4000E943819EA0FFB1FFF93EF93DF010E949F
:1011B400A8227F936F93FF93EF930E94781A0E9463
:1011C400841AAF91BF918F919F910E94BB20AF91E0
:1011D400BF910E94971A0E944919EA0FFB1FFF93BF
:1011E400EF93DF010E94A8227F936F93FF93EF9305
:1011F4000E943319A0EFBAE00E949F1AAF91BF91E9
:101204008F919F910E94BB20AF91BF910E94971A2A
:101214000E945719EA0FFB1FFF93EF93DF010E940F
:10122400A8227F936F93FF93EF930E943319A8EF43
:10123400BAE00E949F1AAF91BF918F919F910E9433
:10124400BB20AF91BF910E94AE220E946819A2CF29
:101254003BD00E942719A0918A0AB0918B0A1C974F
:1012640074F50E94A21A0E94A422E43CA9E0FA07A1
:101274002CF00E94A21AE4ECF9E00CC00E94A21A1D
:101284000E94A422E53FA1E0FA0734F40E94A21AC6
:10129400E4EFF1E0ED93FC930E943319A8E2BAE085
:1012A400EE0FFF1FEA0FFB1F0F010E94A21A0E94FC
:1012B400A422D001ED93FC930E946819CCCFA2E83C
:1012C400BAE00E94F2180895E0E0E0937E0AE09309
:1012D4007F0AA0917E0AB0917F0A12970CF063C135
:1012E4000E94A61A0E9438190E94841A0E94AB1AFE
:1012F400E093100BF093110B6093120B7093130B8C
:101304000E94A61A0E9449190E94841A0E94AB1ACC
:10131400E093140BF093150B6093160B7093170B5B
:101324000E94A61A0E9457190E94841A0E94AB1A9E
:10133400E093180BF093190B60931A0B70931B0B2B
:10134400A091100BB091110B8091120B9091130B83
:101354000E94B01A0E94F8180E94B4200E941E191C
:101364000E94B420E0931C0BF0931D0B60931E0BA2
:1013740070931F0B0E94B61A0E940B21E093200B5E
:10138400F093210B6093220B7093230BE091140BC9
:10139400F091150B6091160B7091170BA091200B17
:1013A400B091210B8091220B9091230B0E94B01AD3
:1013B400E093240BF093250B6093260B7093270B7B
:1013C4000E94BF1AA091240BB091250B8091260B8B
:1013D4009091270B0E940B21E093280BF093290B8B
:1013E40060932A0B70932B0B0E94A61A0E94491932
:1013F4000E94841A0E94C7220E94B61A0E9456189C
:10140400E093300BF093310B6093320B7093330BFA
:101414000E94A61AA0E4BBE00E949A1AFF93EF93DD
:101424000E94A61A0E9438190E94841A0E94C72298
:101434000E94A61A0E9457190E94841ADF01CB0148
:101444000E945618AF91BF910E94C81A0E949A1A1E
:10145400FF93EF930E94CE1AE091280BF091290B91
:1014640060912A0B70912B0B0E94B420A091080B61
:10147400B091090B80910A0B90910B0B0E94B42040
:101484007F936F93FF93EF930E94D71AAF91BF910D
:101494008F919F910E94DF1AAF91BF910E94C81A49
:1014A4000E949F1ADF01CB010E9472170E94131938
:1014B400E0932C0BF0932D0B60932E0B70932F0B5A
:1014C4000E940A190E94BB20DF01CB010E94BF1AAF
:1014D4000E94DF1AE093340BF093350B6093360BC4
:1014E4007093370B0E94A61AA8E4BBE00E949A1AD4
:1014F400FF93EF93E091340BF091350B6091360B31
:101504007091370BA091300BB091310B8091320B5D
:101514009091330B0E94E51AAF91BF910E94AE22C5
:101524000E94A61AA8E3BBE00E949A1AFF93EF93C5
:10153400E091080BF091090B60910A0B70910B0B71
:101544000E94CE1A0E94BB20A091280BB091290BB7
:1015540080912A0B90912B0B0E94B4207F936F9360
:10156400FF93EF930E94D71AAF91BF918F919F91F0
:101574000E94DF1AAF91BF910E94AE220E94A61A68
:10158400A8E5BBE00E949A1A0F010E94A61AA0E4E3
:10159400BBE00E949F1AD0010E94AE22AEE7BAE0DF
:1015A4000E94E51896CEE8E7FBE00E94EA1A0E9442
:1015B40065190E94EF1AA091400BB091410B8091E4
:1015C400420B9091430B0E94F81AE093740BF09332
:1015D400750B6093760B7093770B0E94EF1AA091B2
:1015E400480BB091490B80914A0B90914B0B0E9490
:1015F4000B210E94FE1A0E94EF1AA091500BB09189
:10160400510B8091520B9091530B0E94F81A0E9437
:10161400071BE0936C0BF0936D0B60936E0B709350
:101624006F0B0E94EF1AA091380BB091390B809187
:101634003A0B90913B0B0E940E1B0E941B1B0E94B5
:10164400E51AA0E0B0E086EA92E40E94BB20E093B1
:10165400680BF093690B60936A0B70936B0B0E9499
:10166400EF1AA091580BB091590B80915A0B90919D
:101674005B0B0E94F81AE093640BF093650B609384
:10168400660B7093670B0E941B1BA0E0B0E082E81E
:1016940092E40E94BB200E94FE1AE0E9FBE0A0E075
:1016A400B0E088EC92E40E946519E091440BF0915B
:1016B400450B6091460B7091470B0E94241BA0E0E0
:1016C400B0E084EC92E40E942F1BE0E0F0E060EADA
:1016D40070E40E94341BE0938C0BF0938D0B6093A9
:1016E4008E0B70938F0BE0914C0BF0914D0B60912E
:1016F4004E0B70914F0B0E94241B0E94071B0E94EB
:10170400391BE091540BF091550B6091560B70917D
:10171400570B0E94421B0E94F81AE093840BF0932B
:10172400850B6093860B7093870BE0913C0BF091D3
:101734003D0B60913E0B70913F0B0E94421B0E9437
:101744000E1B0E944B1B0E94E51A0E94EA1A0E947B
:10175400BB20E093800BF093810B6093820B70931A
:10176400830BE0915C0BF0915D0B60915E0B7091CB
:101774005F0B0E94421B0E94F81A0E94071BE09311
:101784007C0BF0937D0B60937E0B70937F0B0E9418
:101794004B1BA0E0B0E080E792E40E94BB200E94D3
:1017A400391B0E942719A0918A0AB0918B0A1C97B1
:1017B4002CF50E943319A0E5BAE0EE0FFF1FEA0FE3
:1017C400FB1FFF93EF930E943319A4E6BBE00E9432
:1017D4009F1AABEEB2EE88EF90E40E940B21A0E0DA
:1017E400B0E088E494E40E94BB20AF91BF910E94D2
:1017F4004A20ED93FC930E946819D5CF08950E9466
:1018040027190E942D19B4F50E947E1AEA0FFB1FB6
:10181400FF93EF93DF010E94A8220E943D190E94CA
:10182400BB20AF91BF910E94971AA0ECBAE00E942E
:101834009A1AFF93EF93DF010E94A8220E944E1987
:101844000E94BB20AF91BF910E94971AA8ECBAE006
:101854000E949A1AFF93EF93DF010E94A8220E942C
:101864005C190E94BB20AF91BF910E94AE220E94DE
:101874006819C7CFE0E0E093820AE093830A0895F1
:101884000E9408020E946B19BADF7894EAE5F0E03E
:10189400E093FE0BF093FF0BE1E0F0E05E2E6F2E81
:1018A400E0E0E093B40BE093B50B0E94541BE0918D
:1018B400B40BF091B50B309719F1E130A0E0FA07C1
:1018C40011F4AED01DC0E230A0E0FA0711F401D14A
:1018D40017C0E330A0E0FA0711F4D9D111C0E43005
:1018E400A0E0FA0711F452D00BC0E530A0E0FA07EB
:1018F40011F408D005C0E536A0E0FA0709F4BDD21A
:10190400D6CFFFCFE091B60BF091B70B3097C9F467
:101914000E945A1B24F0E0E4FAE00E94641B0E9437
:10192400691B0E94761B0E947B1B0E94801B3A97B6
:101934000E94851BAD3BE2E0BE0714F40E948E1B9F
:1019440023C0E130A0E0FA07F9F40E945A1B34F4F2
:10195400E0E4FAE0A0EDB7E0A083B1830E94951B18
:101964000E942F1A0E94761B0E947B1B0E94801BE0
:101974003A960E94851BA837E5E0BE072CF0E0E00C
:10198400E093B60BE093B70BC9D20895E091B60B80
:10199400F091B70B3097E1F40E949E1BA935E2E069
:1019A400BE0724F0E6E4FAE00E94641B0E94691B6F
:1019B4000E94761B0E947B1B0E94A51B3A960E94E4
:1019C400AA1BAC3FE8E0BE0714F00E948E1B26C0A1
:1019D400E130A0E0FA0711F50E949E1BA830E7E071
:1019E400BE0734F4E6E4FAE0ACEBB2E0A083B183E2
:1019F4000E94951B0E942F1A0E94761B0E947B1B3B
:101A04000E94A51B3A970E94AA1BAD3DE5E0BE07C4
:101A14002CF4E0E0E093B60BE093B70BA1D2089569
:101A2400E091B80BF091B90B309729F50E94B31BE4
:101A340014F00E94BD1BEEE5F1E00E94C01B0E9461
:101A4400341A0E94761B0E947B1B0E94C71B35968A
:101A54000E94CC1BAC3FE8E0BE0714F00E94D51BEB
:101A64000E94471A159734F00E942F1A0E94DC1B1B
:101A74000E94E11B2CC0E130A0E0FA0741F50E946E
:101A8400B31B34F4EEE4FAE0A8E0B7E0A083B1833A
:101A9400E7E7F1E00E94C01B0E942F1A0E94761B08
:101AA4000E947B1B0E94C71B35970E94CC1BAD3B39
:101AB400E2E0BE0714F40E94541B0E94471A1597D3
:101AC40034F00E942F1A0E94DC1B0E94E11B01D2F9
:101AD40008950E94EC1BE091C80BF091C90BEA1B1E
:101AE400FB0BE093CC0BF093CD0BA091CC0BB091FE
:101AF400CD0BE5E0F0E00E945022E093D00BF09390
:101B0400D10B0E94F11BEA0FFB1FE093D40BF0935F
:101B1400D50BE0934C0AF0934D0A0E94F11BA036BA
:101B2400E9E0BE071CF0E0E6F9E008C00E94F11B02
:101B3400A93EE3E0BE0734F4E8EEF3E0E093D40B0F
:101B4400F093D50BA091E30BB091E40BE091CA0B99
:101B5400F091CB0BEA1BFB0BE093CE0BF093CF0B76
:101B6400A091CE0BB091CF0BE2E0F0E00E945022A6
:101B7400E093D20BF093D30BA091D20BB091D30B83
:101B8400E091D60BF091D70BEA1BFB0BE093D60B3D
:101B9400F093D70BE0934E0AF0934F0AA091D60B23
:101BA400B091D70BA03DE7E0BE071CF0E0EDF7E0F5
:101BB4000AC0A091D60BB091D70BAD3DE5E0BE07AE
:101BC40034F4ECEDF5E0E093D60BF093D70BE2ECB4
:101BD400F1E00E94C01BE091E10BF091E20B0E9446
:101BE400761BE091E30BF091E40B0E94761B0E94BC
:101BF400F61B0E94761B80E10E949E1562960E944D
:101C0400471A109721F40E94EC1B9A970CF006C017
:101C14000E94FB1B0E94541B0E94041C0E94471A32
:101C2400109721F40E94EC1B99970CF406C00E94B3
:101C3400FB1B0E94D51B0E94041C0E94471A159787
:101C440044F00E94EC1B549724F00E94EC1BDD9797
:101C54000CF002C00E94041C0E94471A159724F03D
:101C64000E94EC1B54970CF004C0E4E0F0E00E94E6
:101C74000B1C0E94471A159724F00E94EC1BDD9759
:101C84000CF404C0E5E0F0E00E940B1C0895E09120
:101C9400BA0BF091BB0B309701F50E94101C74F045
:101CA4000E94EC1B549754F00E94EC1BDD9734F413
:101CB4000E94191CA53AE6E0BE070CF002C00E947F
:101CC4001E1C0E94F61B309729F40E94FB1B0E94E5
:101CD400041CABC0E6EEF1E09EC0E130A0E0FA07E0
:101CE40021F5A4D069D1F5DE0E94F61B309729F4C2
:101CF4000E94FB1B0E94041C98C00E94191CA8305F
:101D0400E7E0BE072CF0E0E0E093BA0BE093BB0BF6
:101D14000E94191CA13BE4E0BE0724F4E2E0F0E0D9
:101D24000E94251CEBEFF1E076C0E230A0E0FA0758
:101D340031F57CD04CD2CDDE0E94471A159784F041
:101D44000E94EC1BD29764F00E94EC1BA931E1E0E5
:101D5400BE0734F40E94191CA431E5E0BE070CF45C
:101D640002C00E942A1C0E94F61B309729F40E948C
:101D7400FB1B0E94041C59C0EBE0F2E04CC0E330B2
:101D8400A0E0FA0711F50E94101C84F00E94EC1BDD
:101D9400D29764F00E94EC1BA931E1E0BE0734F451
:101DA4000E94191CA431E5E0BE070CF402C00E9495
:101DB4002A1C0E94F61B309729F40E94FB1B0E94E8
:101DC400041C33C0EBE0F2E026C0E430A0E0FA07E4
:101DD40061F587D22BD00E94471A159774F00E94A0
:101DE400EC1B549754F00E94EC1BDD9734F40E94D2
:101DF400191CA53AE6E0BE070CF002C00E941E1CA6
:101E04000E94F61B309729F40E94FB1B0E94041CBD
:101E14000CC0EDE1F2E0FA93EA930E942F1A0E94BB
:101E2400761B84E00E949E15269608950E94DF0486
:101E3400A091DB0BB091DC0BE8EDFFEFEA17FB0799
:101E44001CF0EAE2F2E008C0A091DB0BB091DC0BDD
:101E5400989794F0EDE3F2E0FA93EA93E091DB0BC8
:101E6400F091DC0B0E94761B84E00E949E1526965E
:101E7400EDE0F0E00E940B1C0895D8DF9DD0ECE467
:101E8400FAE00E94641B0E94BD1B0E94391A24F0D0
:101E94000E94FB1B0E94041C0E94471A159754F0D1
:101EA4000E94341AE093D40BF093D50B0E942F1A9E
:101EB4000E94E11BE7ECF2E00E94C01BE091C40B1E
:101EC400F091C50B0E94761B88E00E949E152A960D
:101ED40008950E942E1C0E94411CD1F40E947A1C79
:101EE400BCF0ED2DFE2D309719F40E946B1987DCA0
:101EF4000E94521A19F40E94871C31F00E94A61CF9
:101F040014F4DD24EE2402C0DD24EE240E94AE1C71
:101F14000E94B51C14F40E94C21C08950E94411C26
:101F2400C9F40E947A1CB4F0ED2DFE2D309711F403
:101F34000E94C91C0E94521A19F40E94871C31F095
:101F44000E94A61C14F4DD24EE2402C0DD24EE2439
:101F54000E94AE1C0E94B51C14F40E94C21C089579
:101F64000E942E1C0E94FD1C0E940C1D0E94111D2B
:101F74000E940C1DE0E0E030C9F40E947A1CB4F029
:101F8400ED2DFE2D309711F40E94C91C0E94521AA7
:101F940019F40E94871C31F00E94A61C14F4DD245D
:101FA400EE2402C0DD24EE240E94AE1C0E94B51C67
:101FB40014F40E94C21C08950E942E1C0E94411C0D
:101FC40009F068C0E0E0F0E060E172E40E94201DE6
:101FD4000CF460C0ED2DFE2D309719F40E94291DDC
:101FE40044C0E130A0E0FA0739F40E94571D0E9472
:101FF400641D0E94781D39C0E230A0E0FA0799F40C
:102004000E94571DE0E0F0E060E272E40E948B1D44
:10201400E0E0F0E060EF71EC0E94941DECEBFAE07C
:102024000E94781D22C0E330A0E0FA0719F40E9450
:10203400291D1BC0E430A0E0FA0739F40E949D1D5D
:102044000E94AA1D0E94AF1D10C0E530A0E0FA074F
:1020540079F40E949D1D0E94AA1D0E94BD1D0E942C
:10206400C61DA0E0B0E080EF91EC0E94C222C7DB65
:102074000E94521A19F40E94871C31F00E94D11D4B
:1020840014F4DD24EE2402C0DD24EE24E5E5F0E0C2
:102094000E94DA1D0E94B51C14F40E94C21C08950B
:1020A4000E942E1C0E94DF1D09F08BC00E94F41DAB
:1020B4000CF487C0ED2DFE2D309769F40E94FD1CB1
:1020C4000E94051E0E94111D0E94051E0E940A1EE8
:1020D4000E94131E57C0E130A0E0FA0719F40E94D1
:1020E4002D1E50C0E230A0E0FA07C9F4E6E1FAE0A0
:1020F400A8E8BFEFA083B1830E942D1E0E94311E69
:10210400E4ECFAE0A0E0B0E080E292EC0E94651911
:10211400ECECFAE0A0E0B0E080EA91EC3DC0E33002
:10212400A0E0FA0771F40E943A1E0E94441EE0E007
:10213400E093C80AE093C90AE093CA0AE093CB0A81
:1021440017C0E430A0E0FA0729F4EAE0FAE0A2E9D3
:10215400BFEF06C0E530A0E0FA0709F50E944E1E65
:10216400A083B1830E943A1E0E94BD1D0E94571E87
:10217400E0918C0AF0918D0A60918E0A70918F0A19
:102184000E941520E093BC0AF093BD0A6093BE0A36
:102194007093BF0A0E94AF1D0E94C22230DB0E94CE
:1021A400521A19F40E94871C31F00E94D11D14F4B4
:1021B400DD24EE2402C0DD24EE24E0E5F0E00E94FC
:1021C400DA1D0E94B51C14F40E94C21C08950E94DA
:1021D4002E1C0E94DF1D09F07EC00E94F41D0CF429
:1021E4007AC0ED2DFE2D309789F40E94FD1C0E94CB
:1021F400051E0E94111D0E94051E0E940A1E0E94B7
:10220400131E0E94311E0E94AF1D50C0E130A0E099
:10221400FA0759F40E940A1E0E94131E0E941520F8
:102224000E94311E0E94AF1D41C0E230A0E0FA07B7
:10223400A9F4EAE0FAE0A8E7B0E00E945D1EE0E05D
:10224400F0E060E272EC0E94571E0E940A1E0E9497
:1022540015200E94311E0E94AF1D28C0E330A0E06B
:10226400FA0739F40E942D1E0E94311E0E94AF1DF0
:102274001DC0E430A0E0FA0729F4E6E1FAE0AEE696
:10228400B0E006C0E530A0E0FA0799F40E944E1EC3
:10229400A083B1830E942D1E0E94311E0E94BD1D89
:1022A4000E94C61DA0E0B0E080EA91EC0E94C22228
:1022B400A6DA0E94521A19F40E94871C31F00E9477
:1022C400D11D14F4DD24EE2402C0DD24EE24E0E567
:1022D400F0E00E94DA1D0E94B51C14F40E94C21C96
:1022E4000895E8E2F0E0E093840AF093850A0E94FE
:1022F4002E1CEAE4FAE0A6E4B5E0A083B183E8E4A6
:10230400FAE0AAEBB9E0A083B183E6E4FAE0A2EC38
:10231400B1E0A083B1830E94601EE0938C0AF09325
:102324008D0A60938E0A70938F0AE0E0E03009F022
:10233400FFC0E0E0F0E066E972E4E093900AF09315
:10234400910A6093920A7093930AE0E0F0E06CE0E3
:1023540072ECE093940AF093950A6093960A709352
:10236400970A0E94EB180CF4E3C0ED2DFE2D309774
:1023740049F40E94FD1C0E94651E0E94111DA2EFDB
:10238400BEEFA6C0E130A0E0FA0769F40E946A1E1D
:102394000E94721EA0E0B0E00E947B1E0E94441EB8
:1023A4000E94821EA4C0E230A0E0FA0769F40E94F1
:1023B4006A1E0E94721EA2E9BFEF0E947B1E0E9449
:1023C400441E0E94821E93C0E330A0E0FA0769F421
:1023D4000E946A1E0E94721EACE3BFEF0E947B1E25
:1023E4000E94441E0E94821E82C0E430A0E0FA07CC
:1023F40069F40E94891EE6E0FAE00E94651E0E94CC
:10240400901E0E94441E0E94951E71C0E530A0E0FB
:10241400FA07C9F40E94891EE2E0FAE0A0E9B1E0FB
:10242400A083B183E4E0FAE00E940C1DE6E0FAE048
:102434000E94651E0E94901E0E94BD1D0E948B1D5D
:102444000E94951E54C0E630A0E0FA0769F40E9489
:10245400891E0E94FD1C0E94651E0E94901E0E94FF
:10246400441E0E94951E43C0E730A0E0FA0719F508
:10247400EAE5F0E0E093000AF093010AECE0FAE008
:10248400AAE6BFEF0E945D1E0E94441EA091940A1A
:10249400B091950A8091960A9091970AE0E0F0E055
:1024A40060EA70E40E9459210E94941D0E940A1E51
:1024B4000E94311E1CC0E830A0E0FA0709F5E0E0F4
:1024C400E093000AE093010AECE0FAE0A0E0B0E057
:1024D400A083B183E0E0E093B80AE093B90AE09303
:1024E400BA0AE093BB0A0E94641D0E94A01EE4EC99
:1024F400FAE00E94A01EECECFAE00E94A01E7FD934
:102504000E94521A19F40E94871C61F0E1E0F0E085
:10251400DE0EEF1EE8E0F0E0ED15FE0514F4DD2418
:10252400EE2402C0DD24EE24E8EEF3E00E94DA1D7E
:102534000E94B51C14F40E94C21C0895AA93E09151
:10254400C000E072E1F3E881E093C60021960895AB
:10255400BA93AA93AA81F2DFA881B9810E94E518EF
:10256400239608950E94A51EE0E8EA83EFE3EB8337
:102574000E94FE22EE85FF85EF3FAFEFFA0749F494
:10258400E885F985FA93EA93A0EEB2E00E94BF18B9
:10259400B5C0EF3FAFE7FA0749F4E885F985FA9348
:1025A400EA93A1EEB2E00E94BF18A8C0AB85A730A1
:1025B40010F0E6E0EB871B85E12F1150E03019F0B5
:1025C4000E94AC1EF9CFEC85FD856E857F850E9447
:1025D400EE2221F430E00E94AC1E2FC03B850E9405
:1025E400B81E09F008F40BC00E94AC1E0E94B81E6D
:1025F40028F00E94C31E0E94C81EF8CF0DC00E947E
:10260400B81E40F40E94C31E0E94D41E0E94D81E0D
:102614003150F5CF0E94AC1EEC85FD856E857F851B
:102624000E94DD1E0E94BB200E94D81E0E94B81E7C
:1026340020F00E94C31E0E94C81E10E0EB85E11723
:1026440088F10E94E21E0E94E71E0E94DD1E0E9485
:102654002F1B0E94EF16EC83FD836E837F830E9401
:10266400EE1E0E94C31E0E9459210E9448200E2F74
:102674000E94F31E0E94FA1EFF27662777270E94F6
:1026840081200E94FF1E0E94C31E0E94341B0E94D0
:10269400D81EE12F1F5FE03089F60E94F31EEEE2A0
:1026A400EC93CCCF0E94031F3197AA85A0833030CE
:1026B4002CF43195A885B985EDE203C0A885B985C8
:1026C400EBE2EC930E94031F0E94031F3197BF01AA
:1026D400A32FEAE00E943822E05DDB01EC930E9424
:1026E400031F3197BF01A32FEAE00E947A22E05D25
:1026F400DB01EC93A885B985E0E0EC930E94052307
:1027040060960895BA93AA93EF9761970E94FC226A
:1027140010E0FE01E85AFF4F0190F081E02DE887B8
:10272400F987FE01EA5AFF4F0190F081E02DEE8314
:10273400FF83AE81BF81E0E0F0E0ED93FC93DE0126
:10274400A45ABF4F0E94E5183197E4912E2FE03030
:1027540009F4E9C1E12FE03039F4253211F411E034
:1027640002C00E94091FDEC1E130C1F4253219F410
:102774000E94091FD6C112E0E0E0ED8B00E02D328B
:1027840011F401E0CFC12B3219F4EBE2ED8BCAC195
:10279400203219F4E0E2ED8BC5C102C0E23039F415
:1027A40050E013E0203311F40068BCC102C0E330F0
:1027B40091F4203310F02A3308F007C0AAE05A9F9E
:1027C400502DE22FE0535E0FADC140E02E3211F4E4
:1027D40014E0A8C10FC0E43099F4203310F02A3378
:1027E40008F008C00062AAE04A9F402DE22FE0539F
:1027F4004E0F98C12C3619F4026015E093C103C042
:10280400E53009F08FC1E22FE33659F40E94101F1E
:102814000E94171F0E94101FA481AA930E941E1FCA
:1028240080C1E53411F0E53609F403C0E63609F059
:1028340048C0FE017696EE87FF870E94241F0E94FF
:10284400A8220E942B1F0E94301FAD85AA2332F0BC
:10285400AD89AB3259F0A03281F017C00E94321F0B
:102864000E9415200E942B1FEDE2ED8B07FF05C08F
:10287400ED89EA930E941E1F08C0EE85FF853196FC
:10288400EE87FF873197AD89A08305FF46E02636A2
:1028940051F40E94321F0E94C7224A93AB89BC891B
:1028A4000E94FA1509C00E94321F0E94C7224A934F
:1028B4002A93AC89BD8956DEFE0176960E94371FA5
:1028C4001EC0E33739F40E94301F0E943F1F0E944C
:1028D400371F0EC0E037C1F40E94301F0E943F1F13
:1028E400EE87FF87AE85BF850E94D8181E2F08602B
:1028F4000F77403011F0411708F001C0142F40E069
:10290400E0E0EC8B30E06DC0E43611F0E93611F410
:10291400046002C0E537A1F4EAE0EC8B01FF08C0D3
:10292400E0E0FAEC6AE97BE30E94441F1AE022C06B
:10293400E0E1F7E260E070E00E94441F15E01AC095
:10294400E83511F4086003C0E83709F0EAC0E0E1B3
:10295400EC8B01FF08C0E0E0F0E060E070E10E9471
:10296400441F18E007C0E0E0F0E160E070E00E947E
:10297400441F14E0403011F00F7701C041E001FF23
:1029840008C00E94301F0E94241F14960E94A8228F
:102994000FC002FF07C00E94301F0E943F1F0E9409
:1029A400102206C00E94301F0E943F1F662777270F
:1029B400EA87FB876C877D8702FF12C0AD85AA2357
:1029C40042F40E94321F0E94FD210E942B1FEDE25F
:1029D400ED8BED89E03019F01F5F4F5F01C00B7F75
:1029E400342F00FD14C0151710F4351708F00FC06C
:1029F40007FF08C002FF04C00B7F2D89115001C0DE
:102A040020E301C020E20E94091F5150ECCF1417AB
:102A140090F4006102FF06C00E94491F09F0515062
:102A240011504150E0E3EA930E941E1F503009F018
:102A340051504150ECCF312FEC89E030B9F43030B3
:102A4400A1F003FF06C0EE85FF852591EE87FF8781
:102A540005C0AE85BF852D91AE87BF870E94091F33
:102A6400503009F051503150EACF51C00E945B1FE1
:102A74000E9455222E2F2A3030F003FF02C0295C19
:102A840001C0295A01C0205D04FD21C0213360F436
:102A9400A889B9898A899B89A130E0E0BE07E0E072
:102AA4008E07E0E09E0709F40BC0431740F4531768
:102AB40010F000FF01C010C020E207FF08C020E3AF
:102AC400006102FF04C00E94491F09F051500E9496
:102AD400091F503009F0515031500E945B1F0E9471
:102AE40086220E942B1FEC89A889B9898A899B892F
:102AF400FF27662777270E9455220E94441FE889F2
:102B0400F9896A897B890E94EE2209F0AFCF00FF20
:102B140008C0503031F05150E0E2EA930E941E1F89
:102B2400F8CF10E00CCEAE81BF810E94A4220E9497
:102B34000323EF966F960895FF92F82E26971A9323
:102B44000A93DE0114960E94F5218D01E0E0EC83E6
:102B5400ED83EE83EF83DE0118960E94F5210E9437
:102B6400A422FA93EA931A930A93EAEAF2E1FA9313
:102B7400EA93DE011896C6DD198108812896FF9034
:102B84000895BA93AA93B981A881EC918A2FAE2FA4
:102B94000E94B418A82FEE2311F01196F6CFE894F2
:102BA400EC91ED3211F4689402C0EB3209F4119601
:102BB40066277727EC918A2FAE2F0E94AB18A82F97
:102BC400EE2379F0FB01660F771F660F771F6E0FF8
:102BD4007F1F660F771FED91FF27E0536E0F7F1F56
:102BE400E9CFFB011EF4E095F09531962296089505
:102BF4000E94A51EE0E0EA83EFE3EB831A930A93B5
:102C0400EB85FC85EF3FAFEFFA0739F40E94641FB0
:102C1400A8EEB2E00E94BF18ABC0EF3FAFE7FA07DF
:102C240039F40E94641FA9EEB2E00E94BF18A0C04C
:102C3400AC85AA2362F4E985FA856B857C850E94BC
:102C440015200E94691F0E946E1FEDE2EC93A88577
:102C5400A73010F0E6E0E8871885E12F1150E03046
:102C640039F00E94751F0E94E71E0E947A1FF5CF5B
:102C74000E947F1F0E94BB200E94691F10E00E94D7
:102C8400881F0E947A1F0E947F1F0E949E2188F045
:102C94000E94751F0E94D41E0E947A1F1F5F173264
:102CA40038F00E94641FADEEB2E00E94BF1860C00D
:102CB400EACF103029F40E946E1FE0E3EC932BC09E
:102CC400E12F1150E03039F10E94751F0E94E71E78
:102CD4000E94DD1E0E942F1B0E94EF160E947A1F85
:102CE4000E947F1F0E9459210E9448200E2F0E949B
:102CF4006E1F0E94FA1EF0E00E94751F0E941022AF
:102D04000E9481200E940B210E948D1F0E94341B6F
:102D14000E94691FD5CFE885E03031F10E946E1F13
:102D2400EEE2EC93E885E150E887EF5FE9F00E947A
:102D34008D1F0E94D41E0E94691FE985FA856B8548
:102D44007C850E9448200E2F0E946E1F0E94FA1E4E
:102D5400F0E00E948D1F0E9410220E9481200E9498
:102D6400341B0E94691FDECFAE81BF81E0E0EC938B
:102D7400198108812D9608950E94CC227B816A8155
:102D8400F981E88177FB770F67FD7160972F9E5774
:102D940081F078F0983190F4AA27BB27882708940B
:102DA4008795B795A7959A95D1F7EA23FB236823CE
:102DB40005C0E8947727EE27FF2766276F77769577
:102DC40008F4606877F9A991B99189919991EA1702
:102DD400FB076807790797FB08950E94921F0E94DA
:102DE400BE160E94971F19F40E949A1F5BC1E6F752
:102DF4000E949D1F55C10E94A31FE3E8F9EF62E200
:102E04007EE30E940B210E94AD1FE7DF0E94B61FE4
:102E14000E94341B0E94AD1FE0E0F0E060E07FE31D
:102E24000E949E2109F008F407C00E94BB1F0E9463
:102E3400DD1E0E94C01F11E00E94B61FE0E0F0E01A
:102E440060E87EE30E949E2109F008F408C00E9415
:102E5400B61FE0E0F0E060E07FE30E94C01F1030A6
:102E640011F00E94C71F0E94CF1FE983FA836B836E
:102E74007C830E94D41FA1EBB4EC86E292E40E940E
:102E84000B21DF01CB01EDE1F5EE6DE272E40E946E
:102E9400341B0E94D91FACE4B3E584E091E40E94A2
:102EA400BB200E94B61F0E940B217F936F93FF9358
:102EB400EF930E94D41FA1E1BDEE8EED9FE30E942B
:102EC400BB200E94D91FAEE5BBE788EA9FE30E94BE
:102ED400BB20AF91BF918F919F910E945921C2C095
:102EE4000E94921FEBEDFFE069EC7FE30E94B420A7
:102EF400DF01CB0180DFD6C00E94CC2224970E9440
:102F0400EE1E0E94FF1E0E94971F0E949A1FA5E6B4
:102F1400B0ED8BEC90E40E94E01F0E94FF1E7F93B3
:102F24006F93FF93EF930E949A1FA0E0BDE689E29E
:102F340091E40E94BB200E94E91F0E94E01FAF9110
:102F4400BF918F919F910E945921289608950E94C4
:102F5400921FEDECF3E164ED7EE30E949E2120F4E8
:102F64000E94E91FC9DF9EC00E94E91FEAE7F2E858
:102F74006AE170E40E949E2109F008F405C00E94F1
:102F84009D1F0E94EC1F86C00E949D1F0E94B420BA
:102F94007F936F93FF93EF930E949D1F0E94BB202A
:102FA400AF91BF918F919F910E94EC1FABEDBFE059
:102FB40089E49FE30E94BB2075C00E94A31F0E9466
:102FC400F21F50F00E94B61F0E94881F0E949E218B
:102FD40011F008F001C003C00E94F91F43C0A88586
:102FE400AA231AF40E94C71F11E00E94CF1FA0E079
:102FF400B0E080E89FE30E94341BDF01CB010E9414
:10300400BE21E983FA836B837C830E94B61FE3EFBE
:10301400F4E065E37FE30E949E2109F008F40FC009
:103024000E94BB1FA981BA818B819C810E94FE1FD3
:10303400ABEDBFE089EC9FE30E94341B06C00E9405
:10304400D41F0E94B61F0E94FE1FE983FA836B837C
:103054007C83103029F00E94D41F0E94152002C0E6
:103064000E94D41F1881299608950E94921F0E94DD
:10307400F21F50F00E94E91F0E94881F0E949E21A7
:1030840011F008F001C003C00E94F91F0BC00E9498
:10309400E91F93DFABEDBFE089EC9FE30E94D122EF
:1030A4000E94B420249608950E94CC2224970E9462
:1030B400EE1E0E94EE22D9F4E885F9856A857B85A7
:1030C4000E94EE2219F40E94F91F41C0A885B98517
:1030D4008A859B850E94F6222CF4EBEDFFE069ECD7
:1030E4007FE335C0EBEDFFE069EC7FEB30C00E947D
:1030F400EE1EA885B9858A859B850E9459210E9468
:10310400971F0E94E21E0E94F62264F4AB85AA2354
:1031140022F00E94E91F1BDF1AC00E9404200E94B3
:10312400152015C0AB85AA234AF00E940420ABEDFC
:10313400BFE089E490E40E94341B09C00E94E91FA7
:1031440006DFABEDBFE089E490EC0E94BB202C9637
:103154000895AA93E1E0F991F03310F0FA3308F0FE
:10316400EE270895AA93E1E0F991F03229F0F930BD
:1031740010F0FE3008F0EE270895BA93AA93E9916F
:10318400F991A991B991CD0105900D920020E1F733
:10319400FC010895BA93AA93A991B991EE27FF2748
:1031A4006D91662311F03196FBCF0895BA93AA93DB
:1031B400AA27BB27E991F9910590002011F01196F7
:1031C400FBCFFD010895ED91FD913196FE93EE93B1
:1031D4000895A0917A0AB0917B0A0E94F222089580
:1031E400ED91FD913197FE93EE930895A091A80A75
:1031F400B091A90A8091AA0A9091AB0A0895E0912E
:10320400AC0AF091AD0A6091AE0A7091AF0A0895CC
:10321400A091AC0AB091AD0A8091AE0A9091AF0A28
:103224000895A091B00AB091B10A8091B20A909128
:10323400B30A0E940B210895A091B40AB091B50A73
:103244008091B60A9091B70A0895E0E0E0938A0A63
:10325400E0938B0A0895A0918A0AB0918B0A129781
:103264000895E0918A0AF0918B0A0895A0EDBAE0DE
:103274000E9405220895A0919C0AB0919D0A809114
:103284009E0A90919F0A08950E94C222EACFA8ED57
:10329400BAE00E9405220895A091A00AB091A10A63
:1032A4008091A20A9091A30A0895A0EEBAE00E9428
:1032B40005220895A091A40AB091A50A8091A60AB6
:1032C4009091A70A08950E94C2220895AAE8BAE03C
:1032D4007ACFE0E0E093B80AE093B90AE093BA0A3F
:1032E400E093BB0AE093C00AE093C10AE093C20AE8
:1032F400E093C30AE093C80AE093C90AE093CA0AB8
:10330400E093CB0AECEBFAE0A0E0B0E080E090E0E0
:10331400DADFE4ECFAE0A0E0B0E080E090E0D3DFB4
:10332400ECECFAE0A0E0B0E080E090E0CCCFEE0F6F
:10333400FF1FAE0FBF1F0895A091E50BE2E0EA9FC7
:10334400F001E45BF040AFEFBFEF0E942522E09371
:10335400DB0BF093DC0B0895A091E60BE2E0EA9F0F
:10336400F001E45BF040AFEFBFEF0E942522E09351
:10337400DD0BF093DE0B0895A091E70BE2E0EA9FEA
:10338400F001E093DF0BF093E00B0895EA0FFB1FCD
:10339400EE0FFF1F0895E057F741EF2FF0E0089577
:1033A400EA0FEE0FE057E09388000895A0E7B7E135
:1033B4000E94D722EA1BFB0BEECFEA0FEE0FA0E729
:1033C4000E94DA22EA1BE057E0938A00E8EEE093D9
:1033D4008500E0E9E09384000895EA0FEE0FA0E78A
:1033E4000E94DA22EA1BE057E09388000895EA0F6E
:1033F400EE0FE057E0938A00E8EEE0938500E0E901
:10340400E09384000895AA93EA93FA93EFB7EA93BA
:10341400E32DF0E030970895E091DA0BF0E0309777
:103424000895EA0FEE0FE057E09398000895EA0F2D
:10343400EE0FE057E0939A00E8EEE0939500E0E9A0
:10344400E09394000895E091420AF091430A0895AC
:10345400E091480AF091490A0895E0914C0AF091EC
:103464004D0A0895E0914E0AF0914F0A0895A091F3
:10347400C40BB091C50B0E94F2220895E8EEE093CC
:103484009500E0E9E09394000895A091020CB091B6
:10349400030C0895AA93EA93FA93EFB7EA93BCCF87
:1034A400A0918C0AB0918D0A80918E0A90918F0A16
:1034B4000E94F6220895A091900AB091910A8091F9
:1034C400920A9091930A0E94F6220895A091980A74
:1034D400B091990A80919A0A90919B0A0E94F622CF
:1034E4000895E091840AF091850A0895BADEA8EE61
:1034F400BAE00E9405220895B4DEA8EBBAE00E9467
:1035040005220895AE0FBF1F0E94A82208950E94AD
:10351400D1220E94B420DF01CB01E3DF0E941022FC
:103524000E9481200E94592108950E94AE2299CEC2
:103534000E940522EA0FFB1F08950E940522E2CF94
:1035440090DEA0E5BAE0F3CEE0917E0AF0917F0A26
:103554000895DF01CB010E940B2108950E94BB2036
:10356400DF01CB010C94BE21A0911C0BB0911D0B6B
:1035740080911E0B90911F0B0895E091240BF09104
:10358400250B6091260B7091270B08950E94AE22A3
:10359400DBDFA0E5BBE00895A091040BB091050B1F
:1035A4008091060B9091070B089529DEA0E0B0E00E
:1035B40080E090E40E940B2134CE0E945921DF0167
:1035C400CB010C9437180E94BB200E94152008954B
:1035D400A0E0B0E084EB92E40895E091600BF091F8
:1035E400610B6091620B7091630B08950E940B2133
:1035F400EFDF0E94BB200895E093700BF093710BF2
:103604006093720B7093730B0895A0E0B0E080EAAE
:1036140090E40E94BB2008950E940B21A0E0B0E03A
:1036240084E393E40E94D1220E94B420DF01CB0101
:103634000895E091700BF091710B6091720B709191
:10364400730B0895A091600BB091610B8091620B94
:103654009091630B0E940B2108950E94BB20DF010F
:10366400CB0108950E94D1220E94B4200895E093D2
:10367400880BF093890B60938A0B70938B0B0895DE
:10368400A091600BB091610B8091620B9091630BE0
:103694000895E091880BF091890B60918A0B7091E9
:1036A4008B0B0895E0E0E093B80BE093B90B089519
:1036B4000E94180FA091400AB091410AA830E7E097
:1036C400BE070895ACEDB5E0A083B1830895EFE89B
:1036D400F1E0FA93EA93E091DB0BF091DC0B0E94AA
:1036E40010220E94C722BECE0E9410220E94C7222E
:1036F4000895E091C00BF091C10BF6CF8CE00E94CD
:103704009E152E96A0CEE093420AF093430AA09110
:10371400420AB091430A0895E1E0F0E0E093B60B69
:10372400F093B70B0895E9EAF1E0FA93EA93E09194
:10373400DB0BF091DC0BD8CF0E94180FA091460A46
:10374400B091470A08958CE00E949E152E9680CE73
:10375400E093480AF093490AA091480AB091490AB3
:1037640008950E94180FA0914E0AB0914F0AA830F4
:10377400E7E0BE070895EEE4FAE0A4CFFA93EA93F3
:10378400E091DB0BF091DC0BAFCF8CE00E949E1537
:103794002E9663CEE0934C0AF0934D0AA0914C0A06
:1037A400B0914D0A0895E1E0F0E0E093B80BF09396
:1037B400B90B0895E093D40BF093D50B53CEE0935B
:1037C400D60BF093D70BE2E0F0E0E093B40BF09368
:1037D400B50B0895A091E10BB091E20B0895A0916F
:1037E400D40BB091D50B0895E091020CF091030C29
:1037F4000895E091C20BF091C30BE093C00BF093DA
:10380400C10B0895E1E0F0E0E093B40BF093B50B45
:103814000895E093B40BF093B50B08950E94180F2C
:103824000E9452100E946B0D30DE15970895A091EE
:103834004E0AB0914F0A0895E4E0F0E0E093BA0B29
:10384400F093BB0B98CFE093BA0BF093BB0B0895A6
:10385400E1E0F0E0F8DF8FCFE4E4FAE0A6EDB6E0D3
:10386400A083B183E2E4FAE0AAE3B2E0A083B183E7
:10387400E0E4FAE0A4ECB9E0A083B1830895EAE4BB
:10388400FAE0A6E4B5E0A083B183E8E4FAE0AAEBA9
:10389400B9E0A083B183E6E4FAE0A2ECB1E0A0834E
:1038A400B183E2E0FAE0ACE9BFEFA083B183E4E0E6
:1038B400FAE0A6E3B1E0A083B183E6E0FAE0A6E093
:1038C400BFEFA083B183EEE0FAE0ACE9BFEFA083E1
:1038D400B183E0E1FAE0A6E3B1E0A083B183E2E1E1
:1038E400FAE0A6E0BFEFA083B183E0E0E030089502
:1038F400E0E0F0E060E271E4E093900AF093910A72
:103904006093920A7093930A64CCA091900AB09148
:10391400910A8091920A9091930AE0E0F0E060E0CD
:1039240070E00E9415220E2EA091980AB091990A77
:1039340080919A0A90919B0AE0E0F0E060E070E0E8
:103944000E941522E0290895E1E0F0E0DE0EEF1E6A
:1039540000240D140E040895EBE4F0E0E0937A0AD9
:10396400F0937B0A0895E1E0F0E0E093880AF09395
:10397400890AA091780AB091790AEA17FB07089599
:10398400E0E0E093780AE093790A0C942108E0E0FF
:10399400E093B80AE093B90AE093BA0AE093BB0A49
:1039A400E093C00AE093C10AE093C20AE093C30A19
:1039B400E0E0F0E060EF71ECE093C80AF093C90A2C
:1039C4006093CA0A7093CB0AECEBFAE0A0E0B0E093
:1039D40080E090E078DCE4ECFAE0A0E0B0E080E0A5
:1039E40090E071DCECECFAE0A0E0B0E080EF91EC68
:1039F4006ADC0C94010CE2E0FAE0ACE9BFEFA083CE
:103A0400B183E4E0FAE0A6E3B1E0A083B183E6E0A9
:103A1400FAE00895A6E0BFEFA083B1830895EEE035
:103A2400FAE0ACE9BFEFA083B183E0E1FAE0A6E3FA
:103A3400B1E0A083B183E2E1FAE00895E093900A53
:103A4400F093910A6093920A7093930AC2CBE0E0D8
:103A5400E093B80AE093B90AE093BA0AE093BB0A88
:103A6400E093C00AE093C10AE093C20AE093C30A58
:103A7400E093C80AE093C90AE093CA0AE093CB0A28
:103A8400ECEBFAE0A0E0B0E080E090E01CDCE4ECD9
:103A9400FAE0A0E0B0E080E090E015DCECECFAE0C5
:103AA400A0E0B0E080E090E00895E0E0F0E060E6BF
:103AB40071E4E093B80AF093B90A6093BA0A709378
:103AC400BB0A0895E0E0E093C00AE093C10AE093E2
:103AD400C20AE093C30AE093C80AE093C90AE093D8
:103AE400CA0AE093CB0AECEBFAE00895A0E0B0E058
:103AF40080E691ECE8DBE4ECFAE0A0E0B0E080E002
:103B040090E0E1DBECECFAE0A0E0B0E080E090E0F3
:103B14000895E093C00AF093C10A6093C20A7093B7
:103B2400C30A0895E093C80AF093C90A6093CA0AC5
:103B34007093CB0A0895E0E0F0E060E671ECE09366
:103B4400B80AF093B90A6093BA0A7093BB0ABACF61
:103B5400A0E0B0E080E691E4B6CBE4ECFAE0A0E0CB
:103B6400B0E080E090E0AFDBECECFAE0A0E0B0E0A5
:103B740080E090E00895E091900AF091910A6091BC
:103B8400920A7091930A0895E093C40AF093C50AC7
:103B94006093C60A7093C70AECECFAE00895E1E07A
:103BA400F0E0DE0EEF1EE5E0F0E0ED15FE05089511
:103BB400E0937A0AF0937B0A0895EAE4FAE0A6E433
:103BC400B5E0A083B183E8E4FAE0AAEBB9E0A0830E
:103BD400B183E6E4FAE0A2ECB1E0A083B183E0E0D3
:103BE400E0300895E0E0F0E060E671E4E0938C0AF0
:103BF400F0938D0A60938E0A70938F0AE0E0F0E0F0
:103C040068EC71E41BCFA0E1BFEFA083B1830895FA
:103C1400E0918C0AF0918D0A60918E0A70918F0A5E
:103C24000895E093B80AF093B90A6093BA0A7093BE
:103C3400BB0AE0E0E093C00AE093C10AE093C20A41
:103C4400E093C30AE093C80AE093C90AE093CA0A5E
:103C5400E093CB0ADDCFDCDF0E941520E2CFE093B6
:103C6400BC0AF093BD0A6093BE0A7093BF0A08951C
:103C7400CFDFE093B80AF093B90A6093BA0A70935D
:103C8400BB0A0895E0E0E093C00AE093C10AE09320
:103C9400C20AE093C30A0895EAE0FAE0A0E0B0E0C3
:103CA400A083B183E6E1FAE0089533DFE0E0F0E0D9
:103CB40060EA71EC37CFA083B183DACFE0E0F0E0C3
:103CC40060E271E40895A2EFBEEFA083B18308958A
:103CD400E0E0E093000AE093010AE6E0FAE0F3CFC3
:103CE400E8E0FAE0A8E2B0E0A083B183ECE0FAE017
:103CF4000895A083B183E2E1FAE0A2EFBEEFDBCF47
:103D0400E0E0F0E060E771E40DDF82DFA8CFE4EBF0
:103D1400F0E0E093000AF093010A0895E8E0FAE085
:103D2400A8E2B0E0C8CFE091940AF091950A6091BE
:103D3400960A7091970AF6DE6BDF91CFA0E0B0E0AF
:103D440080E090E0C0CABA93AA932497E0E0E883A5
:103D5400E9830895AC81BD818E819F81AFDF0E948C
:103D64000B21EC83FD836E837F830895EC81FD81B9
:103D74006E817F81AC85BD858E859F850E949E2145
:103D84000895AC85BD858E859F850895EDECFCEC8A
:103D94006CEC7DE30E940B21EC87FD876E877F87A7
:103DA4003F5F08958BDF0E940B210895EC87FD8708
:103DB4006E877F870895A0E0B0E080E09FE30895D8
:103DC400AC81BD818E819F810895EDECFCEC6CEC9F
:103DD4007DE30E940B210895EC81FD816E817F813A
:103DE4000895A885B9851196A887B987119708956C
:103DF400E02FE05DEC93E02F0895E2DF0E940B21B9
:103E04000895E885F9853196E887F98708952A9316
:103E1400AF81B885E985FA8509950895FE01E65ACA
:103E2400FF4F0190F081E02D08953497DE01A65AEA
:103E3400BF4FED93FC930895AF81B885E985FA856A
:103E440009950895DE01A65ABF4F0D90BC91A02D8F
:103E54000895EA87FB876C877D870895DFDFE5CFC8
:103E6400EA85FB856C857D850895EE87FF87AE85A1
:103E7400BF850E94CC181E2F0895E4DF14960E947B
:103E8400A4220895E88BF98B6A8B7B8B08950B7FB2
:103E9400ED89EA93DE01A95ABF4F0D90BC91A02D84
:103EA400FE01E75AFF4F0190F081E02D0995503053
:103EB4000895E889F9896A897B89AA85BB858C85F7
:103EC4009D850895EE81FF81FA93EA930895E98729
:103ED400FA876B877C870895AE81BF811196AE8384
:103EE400BF8311970895AA81BB818C819D81089518
:103EF400EA83FB836C837D830895EA81FB816C8173
:103F04007D81A985BA858B859C850895E0E0F0E0E4
:103F140060E87FE30895A985BA858B859C8508951B
:103F24000E94CC220E94B82208950E94BD220895C6
:103F34000E94B3220895FCDFA0E0B0E080E89FE394
:103F440008950E94CC2224971A9310E0AD81BE817B
:103F54008F8198850895ED83FE836F837887AD8183
:103F6400BE818F8198850895AD81BE818F819885AA
:103F74000895ED81FE816F81788508950E94B420B3
:103F8400ED83FE836F8378870895F3DF0E94152005
:103F9400ED83FE836F8378870895EBDFE5DF0E946E
:103FA4000B210895E981FA816B817C810895A981AF
:103FB400BA818B819C810E940B2108950E940B2160
:103FC400AEE4BFE88AE491E40E94BB2008950E9415
:103FD400B82208950E945921DF01CB010C947E1769
:103FE400E0E0F0E060E87FEB0E949E210895EFEFAF
:103FF400FFEF6FE77FE708950E945921DF01CB01AE
:104004000C94A91795DF0E941520DF01CB010C94B5
:10401400A917109639F080EA9FE00197F1F7A89567
:104024001197C9F7089530976040704009F07058AF
:104034000895552342F4503811F4E0FF04C031963A
:10404400691F791F6BF050E8572711F45F93CFC0B5
:104054005F3F31F0660F000C57956795752F0895F3
:104064005F9300200AF0CFC0C8C050E8192E152273
:10407400880F991F9527550F879550E8072E05221D
:10408400660F771F7527550F67950895689401C0CB
:10409400E8945F93F2DF703818F07F3F08F4A7C00C
:1040A40056E1571BAAF4519558300EF4593030F0AC
:1040B400EFEFFFEF6FEF7FE777F91AC0772755230C
:1040C400B9F0EE0FFF1F661F771F5A95D1F710C086
:1040D4007727583028F0EF2FF62F672F5850F9CF55
:1040E400552331F076956795F795E7955A95D1F76D
:1040F40000200AF480D15F910895689401C0E89487
:10410400309760407040B1F0002426F0772312F419
:10411400009471D1172E7EE1112032F07A95EE0FC2
:10412400FF1F661F111CF9CFEF2FF62F612D5F9330
:104134008ADF5F9108954F93AF01FD01DA01AB016E
:10414400BC01CA01402D012C142E4F910895EA0F91
:10415400FB1F681F0895E095F0956095EF5FFF4F92
:104164006F4F08955F9381DF903871F150E8152601
:1041740004C05F937ADF903839F1703821F1572FFA
:10418400591B2BF112F4D7DFFACF583118F0AA27B4
:10419400BB278827583028F0AB2FB82F88275850D2
:1041A400F9CF552329F08695B795A7955A95D9F750
:1041B400502D512572F0CBDF38F46795F795E795CC
:1041C400739513F420C0B7DF3EDF5F910895D8F7ED
:1041D400FBCFEA1BFB0B680B51F010F40094BBDF20
:1041E400662392F3EE0FFF1F661F7A95CBF7EE2737
:1041F400FF27662777275F910895EFEFFFEF6FE7BB
:104204007FEF5F910895EFEFFFEF6FE77FE75F9137
:1042140008955F932ADF703851F3903841F30124F5
:104224000894791F23F41CF300203AF3ECCF0F9287
:104234001F932F933F934F93112722279927689F0A
:10424400A0018F9F302D410D591F6B9F300D411DD3
:10425400591F8E9F27D0BF9F25D06A9F23D0BE9F12
:104264001DD0AF9F1BD0AE9F110D291F391F491FB1
:10427400591FE32FF42F652F522F4F913F912F9108
:104284001F910F9066232AF0550FEE1FFF1F661F24
:1042940002C073954BF2CDDE5F910895100D211D80
:1042A400391F02C0200D311D491F591F08955F9306
:1042B400DCDE703821F411200AF49FCFA4CF9038AB
:1042C40009F495CF01240894970B1BF4D4F3002030
:1042D400F3CF792F1F932F933F934F9311241127DB
:1042E400222733274427552790E2AE17BF078607B6
:1042F400410730F0AE1BBF0B860B410B089401C085
:104304008894551F221F331F111CAA1FBB1F881F0F
:10431400441F9A9551F7F901612D4F913F912F91C7
:104324001F91662332F0550FEE1FFF1F661F7A950B
:1043340043F27FDE5F91089599239AF0772342F048
:10434400971748F029F4AE17BF07860720F031F01D
:104354009894889408959894089408951894889447
:1043640008957723C2F7971798F3A9F7EA17FB077D
:10437400680788F399F3ECCF0DD124975F939F815D
:10438400992311F4289633CF12F428963CCF4F93F7
:1043940042E48E81BD81AC8188839983AA83BB83E7
:1043A400FD01BC01AC81BD818E819F8180DF88814C
:1043B4009981AA81BB81DDDE60DE7A9544DE888145
:1043C4009981AA81BB81AE27A87F21F4BF178607F4
:1043D400970729F04A9519F0DF01CB01DDCF4F9102
:1043E4005F91289608950024AF0DB01D0895F195AE
:1043F400E195F0400895F09560957095E195FF4F33
:104404006F4F7F4F0895EE0FFF1FEE0FFF1F0895AC
:10441400FE2FFF0FFF0B6F2F7F2F08956F2F660F57
:10442400660B762F0895EA17FB0768077907E1E022
:1044340009F4EE270895FA9FF02DEB9FF00DEA9F03
:10444400E02DF10D089570D0F6DF0EF4D0DF08955D
:10445400002498E0AA0F001C0E1A10F40E0E01C0DE
:10446400A1609A95B9F7EA2FA02D089551D0F0DFF5
:104474000EF4E19508950024112490E1AA0FBB1FC6
:10448400001C111C0E1A1F0A18F40E0E1F1E01C068
:10449400A1609A9599F7FD01D001089545D0EBDF0D
:1044A4000EF4A5DF08953F934F935F9300241124E6
:1044B4004427552730E2AA0FBB1F881F991F001CF1
:1044C400111C441F551F0E1A1F0A460B570B28F4C4
:1044D4000E0E1F1E461F571F01C0A1603A9559F7C3
:1044E400FD01BC01D001CA015F914F913F91089534
:1044F400E894A7FF02C0A1956894E7FDE195A8DFC1
:10450400EA2F0EF4E1950895CEDFFD01BC01089574
:10451400E894E7FF02C0E1956894A7FF04C0A19561
:1045240000F8039400FA0895E894F7FF02C05FDFEF
:104534006894B7FF06C0A095B095119600F803944F
:1045440000FA0895ED91FC9111970895ED91FD9174
:104554006D917C9113970895ED93FD936D937C93E6
:104564000895E881F9816A817B810895A881B981E0
:104574008A819B810895E883F9836A837B83089504
:10458400A083B1838283938308957A936A93FA9381
:10459400EA9308959A938A93BA93AA930895182E46
:1045A400862F612D192E972F712D1B2EBF2FF12DC4
:1045B4001A2EAE2FE12D0895119602D0FE2F1197D9
:1045C400F999FECFFF93FFB7F894A1BDB2BDF89A55
:1045D400E0B5FFBFFF9108953097604070400895A3
:1045E40000240A160B06089500240A160B06080672
:1045F400090608955A934A933A932A931A930A936D
:1046040008955D814C813B812A8119810881089537
:00000001FF
