:080000000C9445000C94000073
:100008000C9400000C9400000C9400000C94000068
:100018000C9400000C9400000C9400000C94000058
:100028000C9400000C9400000C9400000C94000048
:100038000C9400000C9400000C9400000C94000038
:100048000C9400000C9400000C9400000C94000028
:100058000C9400000C9400000C947D000C9400009B
:1000680025642025640D0A002D4E414E0000010034
:100078002D4E414E00494E4600000100080376000F
:100088000000F894EE27EFBBF1E0F5BFE5BFF8E11B
:10009800A895A4B7A77FA4BFF0936000E093600081
:1000A8008DE0A2E0BB27ED938A95E9F780E098E020
:1000B800A0E0B1E0ED930197E9F7E2E8F0E085917F
:1000C8009591009761F0A591B59105901590BF01A4
:1000D800F00105900D920197E1F7FB01F0CFE0E008
:1000E800EEBBEFEFEDBFE8E0EEBFC0E0D3E00C946D
:1000F800DA00AA93EA93FA93EFB7EA931A930A936A
:100108000EB5E92DF0E03097E9F4013261F4E1E051
:100118009E2EAA24E0E0E0930003E0930103E0931D
:100128000203E0930303003461F4E2E09E2E772497
:10013800E0E0E0930403E0930503E0930603E09313
:1001480007031FC0E130A0E0FA0761F40C3719F487
:100158009924AA2406C0EA2DF0E0E050FD4F008360
:10016800A3940FC0E230A0E0FA0759F40C3719F451
:100178009924772406C0E72DF0E0EC5FFC4F00835C
:10018800739409911991E991EFBFF991E991A991B6
:100198001895A0E0B3E00E9480043E2E4F2EA4E004
:1001A800B3E00E9480045E2E6F2E089517D0F1DF11
:1001B800E8E6F0E0FA93EA93E32DF42D0E94A10813
:1001C8000E941309E52DF62D0E94A1080E9413092B
:1001D80088E00E945B042A96EACFFFCFE0E8E0932C
:1001E8006100E0E0E0936100E5B9E0E1E4B9E0E056
:1001F800E8B9E7B9EBB9EAB9E4BDE5BDE6BDE7BDE5
:10020800E8BDE0938000E0938100E0938500E093EF
:100218008400E0938700E0938600E0938900E093F0
:100228008800E0938B00E0938A00E093B600E093A7
:10023800B000E093B100E093B200E093B300E09324
:10024800B400E0936900EDBBE0936800E0936E00B2
:10025800E0936F00E0937000E093C000E8E0E09363
:10026800C100E6E0E093C200E0E0E093C500E7E605
:10027800E093C400E0E8E0BFE0E0E0937B00E093B7
:100288007F00E0937A00E0ECECBDE0E0EDBDEDB579
:10029800EEB5E0E0E093BC0078940895AA93E0916D
:1002A800C000E072E1F3E881E093C600219608956A
:1002B800BA93AA93AA81F2DFA881B981ED91FD9141
:1002C8003196FE93EE93239608950E94FF05E0E889
:1002D800EA83EFE3EB830E943009EE85FF85EF3F69
:1002E800AFEFFA0749F4E885F985FA93EA93A0E7AE
:1002F800B0E00E949105B8C0EF3FAFE7FA0749F4B4
:10030800E885F985FA93EA93A1E7B0E00E949105A0
:10031800ABC0AB85A73010F0E6E0EB871B85E12F7B
:100328001150E03019F00E940606F9CFEC85FD85E2
:100338006E857F850E942A0921F430E00E94060616
:100348002EC03B850E94150609F010F40C94B701E5
:100358000E9406060E94150628F00E9420060E94A8
:100368002506F8CF0DC00E94150640F40E9420060D
:100378000E9431060E9438063150F5CF0E940606C9
:10038800EC85FD856E857F850E943D060E943806B6
:100398000E94150620F00E9420060E94250610E003
:1003A800EB85E117A8F1AC81BD818E819F810E9408
:1003B80044060E943D06DF01CB010E94E805EC835C
:1003C800FD836E837F830E9420060E942A080E9474
:1003D80019070E2F0E944B060E945206FF27662718
:1003E80077270E945207AC81BD818E819F810E9430
:1003F800DC070E9420060E9457060E943806E12F5B
:100408001F5FE03069F60E944B06EEE2EC93C8CF1E
:100418000E945C063197AA85A08330302CF4319570
:10042800A885B985EDE203C0A885B985EBE2EC9310
:100438000E945C060E945C063197BF01A32FEAE088
:100448000E94B408E05DDB01EC930E945C063197E2
:10045800BF01A32FEAE00E94DE08E05DDB01EC9318
:10046800A885B985E0E0EC930E9437096096089565
:10047800BA93AA93EF9761970E942E0910E0FE01A4
:10048800E85AFF4F0190F081E02DE887F987FE01D7
:10049800EA5AFF4F0190F081E02DEE83FF83AE8191
:1004A800BF81E0E0F0E0ED93FC93DE01A45ABF4F7A
:1004B800ED91FD913196FE93EE933197E4912E2FB5
:1004C800E03011F40C945204E12FE03039F4253275
:1004D80011F411E002C00E946206DFC1E130C1F4EC
:1004E800253219F40E946206D7C112E0E0E0ED8BD4
:1004F80000E02D3211F401E0D0C12B3219F4EBE207
:10050800ED8BCBC1203219F4E0E2ED8BC6C102C0FD
:10051800E23039F450E013E0203311F40068BDC133
:1005280002C0E33091F4203310F02A3308F007C0FA
:10053800AAE05A9F502DE22FE0535E0FAEC140E073
:100548002E3211F414E0A9C10FC0E43099F420331D
:1005580010F02A3308F008C00062AAE04A9F402D34
:10056800E22FE0534E0F99C12C3619F4026015E0C2
:1005780094C104C0E53011F00C945104E22FE33625
:1005880059F40E9469060E9470060E946906A481B7
:10059800AA930E94770680C1E53411F0E53609F484
:1005A80004C0E63611F00C941F03FE017696EE8720
:1005B800FF870E947D060E94FE080E9484060E9412
:1005C8008906AD85AA2322F0AD89AB3249F017C060
:1005D8000E948B060E94E6060E948406EDE2ED8BDF
:1005E80007FF05C0ED89EA930E94770608C0EE85EB
:1005F800FF853196EE87FF873197AD89A08305FF88
:1006080046E0263651F40E948B060E9413094A934D
:10061800AB89BC890E94B70409C00E948B060E945E
:1006280013094A932A93AC89BD894FDEFE01769659
:100638000E9490061EC0E33739F40E9489060E9482
:1006480098060E9490060EC0E037C1F40E94890601
:100658000E949806EE87FF87AE85BF850E94AA058F
:100668001E2F08600F77403011F0411708F001C0C5
:10067800142F40E0E0E0EC8B30E06EC0E43611F07F
:10068800E93611F4046002C0E537A1F4EAE0EC8B26
:1006980001FF08C0E0E0FAEC6AE97BE30E949D06EE
:1006A8001AE023C0E0E1F7E260E070E00E949D06F6
:1006B80015E01BC0E83511F4086004C0E83711F0F4
:1006C8000C945004E0E1EC8B01FF08C0E0E0F0E09E
:1006D80060E070E10E949D0618E007C0E0E0F0E1EC
:1006E80060E070E00E949D0614E0403011F00F7742
:1006F80001C041E001FF08C00E9489060E947D06F2
:1007080014960E94FE080FC002FF07C00E948906C7
:100718000E9498060E94A10806C00E9489060E94AD
:10072800980666277727EA87FB876C877D8702FF0D
:1007380012C0AD85AA2342F40E948B060E9493083A
:100748000E948406EDE2ED8BED89E03019F01F5F21
:100758004F5F01C00B7F342F00FD14C0151710F434
:10076800351708F00FC007FF08C002FF04C00B7F51
:100778002D89115001C020E301C020E20E946206C9
:100788005150ECCF141790F4006102FF06C00E948C
:10079800A20609F0515011504150E0E3EA930E943B
:1007A8007706503009F051504150ECCF312FEC8989
:1007B800E030B9F43030A1F003FF06C0EE85FF85C4
:1007C8002591EE87FF8705C0AE85BF852D91AE8741
:1007D800BF870E946206503009F051503150EACF6D
:1007E80051C00E94B4060E94B9082E2F2A3030F05A
:1007F80003FF02C0295C01C0295A01C0205D04FD25
:1008080021C0213360F4A889B9898A899B89A130DC
:10081800E0E0BE07E0E08E07E0E09E0709F40BC0C9
:10082800431740F4531710F000FF01C010C020E236
:1008380007FF08C020E3006102FF04C00E94A2066F
:1008480009F051500E946206503009F05150315061
:100858000E94B4060E94EA080E948406EC89A889CE
:10086800B9898A899B89FF27662777270E94B90853
:100878000E949D06E889F9896A897B890E942A096C
:1008880009F0AFCF00FF08C0503031F05150E0E21E
:10089800EA930E947706F8CF10E007CEAE81BF81B9
:1008A8000E94FA080E943509EF966F960895FF9204
:1008B800F82E26971A930A93DE0114960E948F0841
:1008C8008D01E0E0EC83ED83EE83EF83DE01189683
:1008D8000E948F080E94FA08FA93EA931A930A93DF
:1008E800ECE5F1E0FA93EA93DE011896C1DD19818F
:1008F80008812896FF900895BA93AA93B981A88190
:10090800EC918A2FAE2F0E948605A82FEE2311F0B6
:100918001196F6CFE894EC91ED3211F4689402C088
:10092800EB3209F4119666277727EC918A2FAE2FC0
:100938000E947D05A82FEE2379F0FB01660F771F33
:10094800660F771F6E0F7F1F660F771FED91FF27CA
:10095800E0536E0F7F1FE9CFFB011EF4E095F09581
:100968003196229608950E94FF05E0E0EA83EFE3BE
:10097800EB831A930A93EB85FC85EF3FAFEFFA07F9
:1009880039F40E94BD06A8E7B0E00E949105ADC009
:10099800EF3FAFE7FA0739F40E94BD06A9E7B0E0D8
:1009A8000E949105A2C0AC85AA2362F4E985FA8564
:1009B8006B857C850E94E6060E94C2060E94C706D7
:1009C800EDE2EC93A885A73010F0E6E0E8871885FB
:1009D800E12F1150E03039F00E94CE060E94440603
:1009E8000E94D306F5CF0E94D8060E948C070E9469
:1009F800C20610E0E0E0F0E060E87FE30E94D30682
:100A08000E94D8060E946F0888F00E94CE060E94B5
:100A180031060E94D3061F5F173238F00E94BD06C8
:100A2800ADE7B0E00E94910560C0EACF103029F42C
:100A38000E94C706E0E3EC932BC0E12F1150E03091
:100A480039F10E94CE060E9444060E943D06DF014D
:100A5800CB010E94E8050E94D3060E94D8060E9496
:100A68002A080E9419070E2F0E94C7060E945206E4
:100A7800F0E00E94CE060E94A1080E9452070E9440
:100A8800DC070E94E1060E9457060E94C206D5CFE5
:100A9800E885E03031F10E94C706EEE2EC93E88584
:100AA800E150E887EF5FE9F00E94E1060E94310615
:100AB8000E94C206E985FA856B857C850E94190724
:100AC8000E2F0E94C7060E945206F0E00E94E1061F
:100AD8000E94A1080E9452070E9457060E94C2065F
:100AE800DECFAE81BF81E0E0EC93198108812D96BD
:100AF8000895AA93E1E0F991F03310F0FA3308F081
:100B0800EE270895AA93E1E0F991F03229F0F9303F
:100B180010F0FE3008F0EE270895BA93AA93E991F1
:100B2800F991A991B991CD0105900D920020E1F7B5
:100B3800FC010895BA93AA93A991B991EE27FF27CA
:100B48006D91662311F03196FBCF0895BA93AA935D
:100B5800AA27BB27E991F9910590002011F0119679
:100B6800FBCFFD0108950E9418097B816A81F981F4
:100B7800E88177FB770F67FD7160972F9E5781F0AB
:100B880078F0983190F4AA27BB278827089487958E
:100B9800B795A7959A95D1F7EA23FB23682305C053
:100BA800E8947727EE27FF2766276F77769508F46E
:100BB800606877F9A991B99189919991EA17FB072A
:100BC8006807790797FB08950E9418090E94090988
:100BD8000E94B7050E940E0919F40E94040909C071
:100BE800E6F70E940409A0E0B0E080E89FE30E94D5
:100BF800850724960895BA93AA932497E0E0E8839A
:100C0800E9830895AC81BD818E819F81E0E0F0E0A9
:100C180060E271E40E94DC07EC83FD836E837F83CE
:100C28000895EC81FD816E817F81AC85BD858E85BF
:100C38009F850E946F080895AC85BD858E859F8528
:100C48000895EDECFCEC6CEC7DE30E94DC07EC878E
:100C5800FD876E877F873F5F0895E0E0F0E060E200
:100C680071E40E94DC070895EC87FD876E877F8713
:100C78000895A0E0B0E080E09FE30E948C0708950B
:100C8800EDECFCEC6CEC7DE30E94DC070895A88594
:100C9800B9851196A887B98711970895E02FE05D67
:100CA800EC93E02F08950E941D090E94850708957E
:100CB800E885F9853196E887F98708952A93AF8101
:100CC800B885E985FA8509950895FE01E65AFF4F2A
:100CD8000190F081E02D08953497DE01A65ABF4FA8
:100CE800ED93FC930895AF81B885E985FA85099558
:100CF8000895DE01A65ABF4F0D90BC91A02D08950E
:100D0800EA87FB876C877D870895DFDFE5CFEA8573
:100D1800FB856C857D850895EE87FF87AE85BF8549
:100D28000E949E051E2F0895E4DF14960E94FA087B
:100D38000895E88BF98B6A8B7B8B08950B7FED897F
:100D4800EA93DE01A95ABF4F0D90BC91A02DFE0178
:100D5800E75AFF4F0190F081E02D09955030089532
:100D6800E889F9896A897B89AA85BB858C859D85EF
:100D78000895EE81FF81FA93EA930895E987FA8747
:100D88006B877C870895AE81BF811196AE83BF8340
:100D980011970895AA81BB818C819D810895EA836A
:100DA800FB836C837D830895EA81FB816C817D815F
:100DB800A985BA858B859C850895A985BA858B8573
:100DC8009C85089530976040704009F070580895E8
:100DD800552342F4503811F4E0FF04C03196691FDE
:100DE800791F6BF050E8572711F45F93CFC05F3F2E
:100DF80031F0660F000C57956795752F08955F932E
:100E080000200AF0CFC0C8C050E8192E1522880F5C
:100E1800991F9527550F879550E8072E0522660FCD
:100E2800771F7527550F67950895689401C0E89452
:100E38005F93F2DF703818F07F3F08F4A7C056E1DF
:100E4800571BAAF4519558300EF4593030F0EFEF93
:100E5800FFEF6FEF7FE777F91AC077275523B9F0CF
:100E6800EE0FFF1F661F771F5A95D1F710C077271F
:100E7800583028F0EF2FF62F672F5850F9CF552309
:100E880031F076956795F795E7955A95D1F7002053
:100E98000AF445D15F910895689401C0E8943097A9
:100EA80060407040B1F0002426F0772312F40094DB
:100EB80036D1172E7EE1112032F07A95EE0FFF1F02
:100EC800661F111CF9CFEF2FF62F612D5F938ADF74
:100ED8005F9108954F93AF01FD01DA01AB01BC01A9
:100EE800CA01402D012C142E4F910895EA0FFB1FC3
:100EF800681F0895E095F0956095EF5FFF4F6F4F7D
:100F080008955F9381DF903871F150E8152604C089
:100F18005F937ADF903839F1703821F1572F591BD8
:100F28002BF112F4D7DFFACF583118F0AA27BB27D4
:100F38008827583028F0AB2FB82F88275850F9CF7A
:100F4800552329F08695B795A7955A95D9F7502D29
:100F5800512572F0CBDF38F46795F795E7957395CF
:100F680013F420C0B7DF3EDF5F910895D8F7FBCFB9
:100F7800EA1BFB0B680B51F010F40094BBDF6623EF
:100F880092F3EE0FFF1F661F7A95CBF7EE27FF2728
:100F9800662777275F910895EFEFFFEF6FE77FEF01
:100FA8005F910895EFEFFFEF6FE77FE75F91089597
:100FB8005F932ADF703851F3903841F30124089485
:100FC800791F23F41CF300203AF3ECCF0F921F9300
:100FD8002F933F934F93112722279927689FA001AA
:100FE8008F9F302D410D591F6B9F300D411D591F8B
:100FF8008E9F27D0BF9F25D06A9F23D0BE9F1DD02C
:10100800AF9F1BD0AE9F110D291F391F491F591FB4
:10101800E32FF42F652F522F4F913F912F911F915E
:101028000F9066232AF0550FEE1FFF1F661F02C0A0
:1010380073954BF2CDDE5F910895100D211D391F78
:1010480002C0200D311D491F591F08955F93DCDE32
:10105800703821F411200AF49FCFA4CF903809F4F6
:1010680095CF01240894970B1BF4D4F30020F3CFF9
:10107800792F1F932F933F934F93112411272227E2
:1010880033274427552790E2AE17BF078607410745
:1010980030F0AE1BBF0B860B410B089401C088943F
:1010A800551F221F331F111CAA1FBB1F881F441F57
:1010B8009A9551F7F901612D4F913F912F911F9109
:1010C800662332F0550FEE1FFF1F661F7A9543F215
:1010D8007FDE5F91089599239AF0772342F097175E
:1010E80048F029F4AE17BF07860720F031F098942E
:1010F8008894089598940894089518948894089565
:101108007723C2F7971798F3A9F7EA17FB07680739
:1011180088F399F3ECCF0024AF0DB01D0895F09536
:1011280060957095E195FF4F6F4F7F4F0895FE2FA3
:10113800FF0FFF0B6F2F7F2F08956F2F660F660B22
:10114800762F0895002498E0AA0F001C0E1A10F4B8
:101158000E0E01C0A1609A95B9F7EA2FA02D089547
:1011680039D0F0DF0EF4E19508953F934F935F93E4
:10117800002411244427552730E2AA0FBB1F881FDB
:10118800991F001C111C441F551F0E1A1F0A460BDD
:10119800570B28F40E0E1F1E461F571F01C0A160D3
:1011A8003A9559F7FD01BC01D001CA015F914F91F1
:1011B8003F910895E894A7FF02C0A1956894E7FDC0
:1011C800E195C0DFEA2F0EF4E1950895CEDFFD0129
:1011D800BC010895E894E7FF02C0E1956894A7FF71
:1011E80004C0A19500F8039400FA0895ED91FC91CC
:1011F80011970895ED91FD916D917C911397089544
:10120800E881F9816A817B810895A881B9818A8101
:101218009B810895E883F9836A837B8308957A9391
:101228006A93FA93EA9308959A938A93BA93AA933E
:101238000895182E862F612D192E972F712D1B2E8C
:10124800BF2FF12D1A2EAE2FE12D08953097604053
:10125800704008955A934A933A932A931A930A939B
:1012680008955D814C813B812A8119810881089507
:00000001FF
