:0C0000000C9489010C9400000C9400008A
:10000C000C9400000C940B030C9400000C94000056
:10001C000C9400000C9400000C9400000C94000054
:10002C000C9400000C9400000C9400000C94000044
:10003C000C94C7010C9400000C94CC050C94040691
:10004C000C9400000C9474040C9400000C940000AC
:10005C000C9400000C9400000C941C030C940000F5
:10006C000C9400000C9400000C9400000C94000004
:10007C000C9400000C9452070C946F070C94000025
:10008C000C942E060C9400000C9400000C940000B0
:10009C000C9400000C9400000C9400000C940000D4
:1000AC000C9400000C9400000C9400000C940000C4
:1000BC000C9400000C9400000C9400000C940000B4
:1000CC000C941D030C9400000C9400000C9475030C
:1000DC000C9400000C940000DC05DC05DC05DC0550
:1000EC00DC05DC05DC05DC05DC05DC05DC05DC05FC
:1000FC00DC05DC05DC05DC05DC05DC05DC05DC05EC
:10010C00DC05DC05DC05DC05DC05DC05DC05DC05DB
:10011C00DC05DC05DC05DC05DC05DC05DC05DC05CB
:10012C00DC05DC05DC05DC050100E80300004443CC
:10013C000000A8410000A8420000B2420000A84103
:10014C000100E803E803450645065802A0007800C4
:10015C00000052617370692059202025640D0A003B
:10016C0070696420736572766F0D0A00416D62725E
:10017C00756B20646570616E202025640D0A00414A
:10018C006D6272756B2062656C616B616E672020AD
:10019C0025640D0A0063656B20416D6272756B20DE
:1001AC00646570616E2025640D0A0063656B2041E7
:1001BC006D6272756B2062656C616B616E67202578
:1001CC00640D0A0070726F7365732062616E6775DF
:1001DC006E20646570616E2025640D0A007765736E
:1001EC000D0A0070726F7365732062616E67756EB5
:1001FC002062656C616B616E672025640D0A005787
:10020C00657320636F6B0D0A002564207365726F34
:10021C006E67206B69726920626F730D0A0025642A
:10022C00206D616A75206A616C616E0D0A0025642F
:10023C00207365726F6E67206B616E616E0D0A00C4
:10024C006361726920626F6C6120256420256420D3
:10025C003D3D202564200D0A006361726920626FA8
:10026C006C61202564202564203D3D2025640D0A09
:10027C0000416B75204E6761777572202564202DC7
:10028C002025640D0A002D4E414E000001002D4E1C
:10029C00414E00494E4600002800280AE400280080
:1002AC00500A0C010100840A34010400A40A38012C
:1002BC000400A80A3C010400AC0A40010400B00A86
:1002CC0044010400B40A48010100B40B4C010200C3
:1002DC00C00B4E010200C20B50010200C40B5201B4
:1002EC000200C60B54010200C80B56010100CA0BD8
:1002FC0058010100CC0B5A01010004005C01010003
:10030C000A0C98020000F894EE27EFBBF1E0F5BF61
:10031C00E5BFE0937400E0937500F8E1A895A4B7ED
:10032C00A77FA4BFF0936000E09360008DE0A2E093
:10033C00BB27ED938A95E9F780E090E2A0E0B2E06C
:10034C00ED930197E9F7E4EAF2E085919591009736
:10035C0061F0A591B59105901590BF01F001059044
:10036C000D920197E1F7FB01F0CF8BBF8CBFE0E062
:10037C00EEBBEFEFEDBFE1E2EEBFC0E0DAE00C94D4
:10038C00C20B0E94DD1BE0EFE093B200A8E7BAE0DD
:10039C000E94E51B0E94EB1B24F4AAE7BAE00E9422
:1003AC00F21B0E94F81B1895E0E0E2B9EFEFE1B9FF
:1003BC00E0E0E5B9EFEFE4B9E0E0E8B9EFEFE7B979
:1003CC00E0E0EBB9E0EFEAB9E0E0EEB9EFEFEDB960
:1003DC00E0E0E1BBEFEFE0BBE0E0E4BBEFEFE3BB61
:1003EC00E0E0E0930201EFEFE0930101E0E0E09345
:1003FC000501EFEFE0930401E0E0E0930801EFEF7B
:10040C00E0930701E0E0E0930B01EFEFE0930A01CA
:10041C00E0ECE0936900E0E0E0936A00E8E0EDBB1B
:10042C00ECBBE0E0E0938000E2E0E0938100E0E0F0
:10043C00E093B000E7E0E093B100E0E0E0939000DF
:10044C00E2E0E0939100E0E0E093C000E8E0E093AC
:10045C00C100E6E0E093C200E0E0E093C500E8E014
:10046C00E093C400E0E0E093D000E8E1E093D10039
:10047C00E6E0E093D200E0E0E093D500E7E6E0931D
:10048C00D400E0E0E0933001E0E9E0933101E6E0F4
:10049C00E0933201E0E0E0933501E8E0E0933401D1
:1004AC00E0E8E0BFE0E0E0937B00E0937F00E7E072
:1004BC00E0936F00E1E0E0937000E7E0E0937100FF
:1004CC00E6E4F7E165E672E4E093600BF093610B10
:1004DC006093620B7093630BE091A80AF091A90AE8
:1004EC006091AA0A7091AB0A0E94001C0E941F2501
:1004FC00E093000BF093010B6093020B7093030BD2
:10050C000E94091C0E94121C0E941F25E093040BE0
:10051C00F093050B6093060B7093070BE091B00AF8
:10052C00F091B10A6091B20A7091B30A0E941B1C3F
:10053C00E093080BF093090B60930A0B70930B0B71
:10054C00E091B40AF091B50A6091B60A7091B70ABD
:10055C000E94261C0E941F25E0930C0BF0930D0BA0
:10056C0060930E0B70930F0B0E942F1C0E94351C76
:10057C00ECF40E943B1C0E94401CEA0FFB1F0E94E3
:10058C00451C0E944E1C0E94511CEA0FFB1F0E942E
:10059C00561C0E944E1C0E945F1CEA0FFB1F0E94FF
:1005AC00641C0E946D1C0E94701CE0CF0E94731C86
:1005BC00E0E0E093800AE093810AA091800AB09178
:1005CC00810A54970CF5E091800AF091810AA0E021
:1005DC00BAE0EE0FFF1FEA0FFB1F0F01E091800A3C
:1005EC00F091810AA0E0B0E00E94A11C0E94F226CA
:1005FC00D001ED93FC93A2E3B0E00E941F24A0E88D
:10060C00BAE00E94E51BD9CF0895AA93BA93EA9356
:10061C00FA93EFB7EA93A7EFBBE00E94E51BE991D1
:10062C00EFBFF991E991B991A991189518950E948C
:10063C00A61C1A931091D600E091090C0E94AC1CD8
:10064C0009F5113271F4E1E0E093090CE0E0E0937C
:10065C00080CE093FF0BE093000CE093010CE0938B
:10066C00020C103471F4E2E0E093090CE0E0E0934A
:10067C00070CE093030CE093040CE093050CE0935F
:10068C00060C2BC0E130A0E0FA0791F41C3721F4E2
:10069C00E0E0E093090C09C0E091080CF0E0E150B7
:1006AC00F44F1083E091080CEF5FE093080C15C039
:1006BC00E230A0E0FA0789F41C3721F4E0E0E09383
:1006CC00090C09C0E091070CF0E0ED5FF34F1083CB
:1006DC00E091070CEF5FE093070C199116C40A9296
:1006EC001A92AA93BA93EA93FA93EFB7EA93E0912A
:1006FC003601E093F10BE091F20B0E94AC1C41F43B
:10070C00A091F10BAF3F19F4E1E0E093F20BCCC0F8
:10071C00E130A0E0FA07B1F4A091F10BAF3F11F476
:10072C00E1E00DC0E091F10BE093E70BA091E70B3A
:10073C000E94AF1CE093DD0BF093DE0BE2E0E09344
:10074C00F20BB2C0E230A0E0FA07B1F4A091F10BC9
:10075C00AF3F11F4E1E00DC0E091F10BE093E80B39
:10076C00A091E80B0E94AF1CE093DF0BF093E00B21
:10077C00E3E0E093F20B98C0E330A0E0FA07B9F4A1
:10078C00A091F10BAF3F11F4E1E00EC0E091F10B41
:10079C00E093E90BA091E90BE2E0EA9FF001E09312
:1007AC00E10BF093E20BE4E0E093F20B7DC0E4305C
:1007BC00A0E0FA0771F4A091F10BAF3F11F4E1E066
:1007CC0005C0E091F10BE093EA0BE5E0E093F20B4E
:1007DC006BC0E530A0E0FA0771F4A091F10BAF3FCC
:1007EC0011F4E1E005C0E091F10BE093EB0BE6E0D6
:1007FC00E093F20B59C0E630A0E0FA0771F4A09137
:10080C00F10BAF3F11F4E1E005C0E091F10BE09387
:10081C00EC0BE7E0E093F20B47C0E730A0E0FA07FF
:10082C0071F4A091F10BAF3F11F4E1E005C0E09140
:10083C00F10BE093ED0BE8E0E093F20B35C0E83000
:10084C00A0E0FA0771F4A091F10BAF3F11F4E1E0D5
:10085C0005C0E091F10BE093EE0BE9E0E093F20BB5
:10086C0023C0E930A0E0FA0771F4A091F10BAF3F7F
:10087C0011F4E1E005C0E091F10BE093EF0BEAE03D
:10088C00E093F20B11C0EA30A0E0FA0769F4A091F2
:10089C00F10BAF3F11F4E1E005C0E091F10BE093F7
:1008AC00F00BE0E0E093F20BE991EFBFF991E991E5
:1008BC00B991A991199009901895AFEFBBE00E94DE
:1008CC00B318E093FB0BF093FC0BA3E0BCE00E948D
:1008DC00B318E093FD0BF093FE0B08951A92AA93B4
:1008EC00BA93EA93FA93EFB7EA93E32D0E94AC1C08
:1008FC0089F5E0910B01E460E0930B01479AE091DC
:10090C00280AF091290AA091000AB091010A0E94CC
:10091C00B91C0E94BE1CE0938900E091280AA091AA
:10092C00000A0E94C31CA0910C0AB0910D0AE09120
:10093C00340AF091350A0E94B91C0E94C91CE0933C
:10094C008B00A0910C0AE091340A0E94D01CE1E0CB
:10095C003E2E14C1E130A0E0FA0789F5E0910B01BD
:10096C00E860E0930B01469AA091020AB091030A49
:10097C00E0912A0AF0912B0A0E94B91C0E94BE1C1D
:10098C00E0938900A091020AE0912A0A0E94C31CFC
:10099C00A0910E0AB0910F0AE091360AF091370A35
:1009AC000E94B91C0E94C91CE0938B00A0910E0AF6
:1009BC00E091360A0E94D01CE2E03E2EDFC0E2300D
:1009CC00A0E0FA0789F5E0910B01E061E0930B01DF
:1009DC00169AA091040AB091050AE0912C0AF091A4
:1009EC002D0A0E94B91C0E94C91CE0938900A09199
:1009FC00040AE0912C0A0E94E01CA091100AB0910C
:100A0C00110AE091380AF091390A0E94B91C0E942F
:100A1C00BE1CE0938B00A091100AE091380A0E9452
:100A2C00EA1CE3E03E2EAAC0E330A0E0FA0789F509
:100A3C00E0910B01E062E0930B01179AA091060A7A
:100A4C00B091070AE0912E0AF0912F0A0E94B91C6E
:100A5C000E94C91CE0938900A091060AE0912E0A1D
:100A6C000E94E01CA091120AB091130AE0913A0A7C
:100A7C00F0913B0A0E94B91C0E94BE1CE0938B00B3
:100A8C00A091120AE0913A0A0E94EA1CE4E03E2E80
:100A9C0075C0E430A0E0FA0789F5E0910B01E06441
:100AAC00E0930B01149AA091080AB091090AE09105
:100ABC00300AF091310A0E94B91C0E94BE1CE093CE
:100ACC008900A091080AE091300A0E94C31CA091F1
:100ADC00140AB091150AE0913C0AF0913D0A0E946B
:100AEC00B91C0E94C91CE0938B00A091140AE091E0
:100AFC003C0A0E94D01CE5E03E2E40C0E530A0E050
:100B0C00FA0789F5E0910B01E068E0930B01159A67
:100B1C00A0910A0AB0910B0AE091320AF091330AC3
:100B2C000E94B91C0E94BE1CE0938900A0910A0A85
:100B3C00E091320A0E94C31CA091160AB091170AC8
:100B4C00E0913E0AF0913F0A0E94B91C0E94BE1C23
:100B5C00E0938B00A091160AE0913E0A0E94EA1CD9
:100B6C00E6E03E2E0BC0E630A0E0FA0739F4E8EFE1
:100B7C00E0938500E0E3E09384003324E991EFBF38
:100B8C00F991E991B991A991199018950E94A61C17
:100B9C00E32D0E94AC1C89F1E130A0E0FA0721F4AE
:100BAC00E0910B01EB7F27C0E230A0E0FA0721F4C3
:100BBC00E0910B01E77F1FC0E330A0E0FA0721F4BE
:100BCC00E0910B01EF7E17C0E430A0E0FA0721F4AE
:100BDC00E0910B01EF7D0FC0E530A0E0FA0721F4A6
:100BEC00E0910B01EF7B07C0E630A0E0FA0729F497
:100BFC00E0910B01EF77E0930B0187C10E94A61CDB
:100C0C00E32D0E94AC1C19F1E130A0E0FA0711F4BD
:100C1C0047981DC0E230A0E0FA0711F4469817C0BF
:100C2C00E330A0E0FA0711F4169811C0E430A0E00C
:100C3C00FA0711F417980BC0E530A0E0FA0711F48D
:100C4C00149805C0E630A0E0FA0709F415985DC1C8
:100C5C000E94DD1B0E94F61C61F5889A8F9AA09168
:100C6C00180AB091190AE091400AF091410A0E94C9
:100C7C00B91C0E94BE1CE0939900A091180AE09147
:100C8C00400A0E94F91CA0911E0AB0911F0AE09123
:100C9C00460AF091470A0E94B91C0E94BE1CE093C0
:100CAC009B00A0911E0AE091460A0E94FF1CE1E005
:100CBC00EEC0E130A0E0FA0761F5899A8E9AA09116
:100CCC001A0AB0911B0AE091420AF091430A0E9461
:100CDC00B91C0E94BE1CE0939900A0911A0AE091E5
:100CEC00420A0E94F91CA091200AB091210AE091BD
:100CFC00480AF091490A0E94B91C0E94BE1CE0935C
:100D0C009B00A091200AE091480A0E94FF1CE2E09F
:100D1C00BEC0E230A0E0FA0761F58A9A8D9AA091E4
:100D2C001C0AB0911D0AE091440AF091450A0E94F8
:100D3C00B91C0E94BE1CE0939900A0911C0AE09182
:100D4C00440A0E94F91CA091220AB091230AE09156
:100D5C004A0AF0914B0A0E94B91C0E94BE1CE093F7
:100D6C009B00A091220AE0914A0A0E94FF1CE3E03A
:100D7C008EC0E330A0E0FA0741F58B9A8C9AA091D3
:100D8C00240AB091250A0E940B1D0E94B91C0E94D6
:100D9C00BE1CE0939900A091240AE0914C0A0E9499
:100DAC00F91CA091260AB091270A0E94101D0E94DE
:100DBC00B91C0E94BE1CE0939B00A091260AE091F6
:100DCC004E0A0E94FF1CE4E062C0E430A0E0FA0787
:100DDC0041F5A091C80BB091C90B0E94062724F4D1
:100DEC00A8ECBBE00E94F21BA091F50BB091F60BA6
:100DFC000E94062724F4A5EFBBE00E94F21B0E9480
:100E0C00151D24F4A0ECBBE00E94F21B0E941C1DDB
:100E1C0024F4A4ECBBE00E94F21B0E94231DE5E02D
:100E2C0036C0E530A0E0FA0721F40E94231DE6E06D
:100E3C002EC0E630A0E0FA0761F5A3EFBBE00E94FC
:100E4C00E51BA091F30BB091F40B5E9794F0E0E0EE
:100E5C00E093F30BE093F40BE091F70BF091F80BAC
:100E6C00E093F90BF093FA0BE0E0E093F70BE093CF
:100E7C00F80B0E942A1D159714F0A79A05C00E9422
:100E8C002A1D16970CF4A7980E94231DE0E0E0930E
:100E9C00DC0B0E94F81B18950E94A61C0E94F61CE5
:100EAC00B9F0E130A0E0FA0711F4889811C0E230F3
:100EBC00A0E0FA0711F489980BC0E330A0E0FA0720
:100ECC0011F48A9805C0E430A0E0FA0709F48B9875
:100EDC001CC00E94A61C0E94F61CB9F0E130A0E0D8
:100EEC00FA0711F48F9811C0E230A0E0FA0711F460
:100EFC008E980BC0E330A0E0FA0711F48D9805C072
:100F0C00E430A0E0FA0709F48C98E991EFBFF9916D
:100F1C00E991A9911895A091820AB091830A0E9437
:100F2C00062714F40C943C080E942F1D31F40E94E7
:100F3C003A1D19F40E94451D29F0ACE7BAE00E9455
:100F4C00E51B05C0E0E0E0937C0AE0937D0AE091AC
:100F5C00860AF091870AA0917C0AB0917D0AEA1763
:100F6C00FB07ACF40E942F1D31F40E943A1D19F4BA
:100F7C000E94451D39F0E1E0F0E0E0937C0AF0932B
:100F8C007D0A05C0E0E0E0937C0AE0937D0A0E94B4
:100F9C00501DE093820AF093830A0E942F1C0E943A
:100FAC00351C14F00C943B080E94551DEA0FFB1FD6
:100FBC00FF93EF930E945B1D0E94611D7F936F93C3
:100FCC00FF93EF930E943B1C0E94401C0E94611DEA
:100FDC00AF91BF918F919F910E94661DAF91BF9170
:100FEC000E94741DA0EFBAE00E94771DFF93EF934F
:100FFC000E943B1CA0ECBAE00E947C1D7F936F9377
:10100C00FF93EF930E943B1C0E94511C0E94611D98
:10101C00AF91BF918F919F910E94661DAF91BF912F
:10102C000E94741DA8EFBAE00E94771DFF93EF9306
:10103C000E943B1CA8ECBAE00E947C1D7F936F932E
:10104C00FF93EF930E943B1C0E945F1C0E94611D4A
:10105C00AF91BF918F919F910E94661DAF91BF91EF
:10106C000E94C2260E94701C9ACF9CC00E942F1C0A
:10107C000E94351C14F00C949D080E943B1C0E948D
:10108C00401CEA0FFB1FFF93EF93DF010E94BC266D
:10109C007F936F93FF93EF930E94551D0E94611DE8
:1010AC00AF91BF918F919F910E94CF24AF91BF912F
:1010BC000E94741D0E94511CEA0FFB1FFF93EF93BB
:1010CC00DF010E94BC267F936F93FF93EF930E94E6
:1010DC003B1CA0EFBAE00E947C1DAF91BF918F9199
:1010EC009F910E94CF24AF91BF910E94741D0E94CA
:1010FC005F1CEA0FFB1FFF93EF93DF010E94BC26DE
:10110C007F936F93FF93EF930E943B1CA8EFBAE081
:10111C000E947C1DAF91BF918F919F910E94CF2413
:10112C00AF91BF910E94C2260E94701CA1CF3BD0F0
:10113C000E942F1CA0918A0AB0918B0A1C9774F5FF
:10114C000E947F1D0E94B826E43CA9E0FA072CF00F
:10115C000E947F1DE4ECF9E00CC00E947F1D0E94F0
:10116C00B826E53FA1E0FA0734F40E947F1DE4EFB6
:10117C00F1E0ED93FC930E943B1CA8E2BAE0EE0F69
:10118C00FF1FEA0FFB1F0F010E947F1D0E94B82654
:10119C00D001ED93FC930E94701CCCCFA2E8BAE076
:1011AC000E94F21B0895E0E0E0937E0AE0937F0A30
:1011BC00A0917E0AB0917F0A129714F00C94490A00
:1011CC000E94831D0E94401C0E94611D0E94881D6C
:1011DC00E093100BF093110B6093120B7093130BA5
:1011EC000E94831D0E94511C0E94611D0E94881D3B
:1011FC00E093140BF093150B6093160B7093170B75
:10120C000E94831D0E945F1C0E94611D0E94881D0C
:10121C00E093180BF093190B60931A0B70931B0B44
:10122C00A091100BB091110B8091120B9091130B9C
:10123C000E948D1D0E94001C0E94C8240E94261C26
:10124C000E94C824E0931C0BF0931D0B60931E0BA3
:10125C0070931F0B0E94931D0E941F25E093200B7F
:10126C00F093210B6093220B7093230BE091140BE2
:10127C00F091150B6091160B7091170BA091200B30
:10128C00B091210B8091220B9091230B0E948D1D0C
:10129C00E093240BF093250B6093260B7093270B94
:1012AC000E949C1DA091240BB091250B8091260BC4
:1012BC009091270B0E941F25E093280BF093290B8C
:1012CC0060932A0B70932B0B0E94831D0E94511C60
:1012DC000E94611D0E94DB260E94931D0E944E1BE2
:1012EC00E093300BF093310B6093320B7093330B14
:1012FC000E94831DA0E4BBE00E94771DFF93EF9337
:10130C000E94831D0E94401C0E94611D0E94DB26CE
:10131C000E94831D0E945F1C0E94611DDF01CB0196
:10132C000E944E1BAF91BF910E94A51D0E94771D7C
:10133C00FF93EF930E94AB1DE091280BF091290BCA
:10134C0060912A0B70912B0B0E94C824A091080B62
:10135C00B091090B80910A0B90910B0B0E94C82441
:10136C007F936F93FF93EF930E94B41DAF91BF9146
:10137C008F919F910E94BC1DAF91BF910E94A51DA2
:10138C000E947C1DDF01CB010E94661A0E941B1C6F
:10139C00E0932C0BF0932D0B60932E0B70932F0B73
:1013AC000E94121C0E94CF24DF01CB010E949C1DC5
:1013BC000E94BC1DE093340BF093350B6093360BFD
:1013CC007093370B0E94831DA8E4BBE00E94771D2D
:1013DC00FF93EF93E091340BF091350B6091360B4A
:1013EC007091370BA091300BB091310B8091320B77
:1013FC009091330B0E94C21DAF91BF910E94C226E7
:10140C000E94831DA8E3BBE00E94771DFF93EF931E
:10141C00E091080BF091090B60910A0B70910B0B8A
:10142C000E94AB1D0E94CF24A091280BB091290BD8
:10143C0080912A0B90912B0B0E94C8247F936F9361
:10144C00FF93EF930E94B41DAF91BF918F919F9129
:10145C000E94BC1DAF91BF910E94C2260E94831DA9
:10146C00A8E5BBE00E94771D0F010E94831DA0E43C
:10147C00BBE00E947C1DD0010E94C226AEE7BAE000
:10148C000E94E51B95CEE8E7FBE0A0E0B0E088EC1D
:10149C0092E40E946D1C0E94C71DA091400BB0915C
:1014AC00410B8091420B9091430B0E94D01DE09315
:1014BC00740BF093750B6093760B7093770B0E9403
:1014CC00C71DA091480BB091490B80914A0B90918C
:1014DC004B0B0E941F250E94D91D0E94C71DA09175
:1014EC00500BB091510B8091520B9091530B0E9469
:1014FC00D01DE0936C0BF0936D0B60936E0B70939F
:10150C006F0B0E94C71DA091380BB091390B8091C5
:10151C003A0B90913B0B0E94E21D0E94EF1D0E9422
:10152C00C21DA0E0B0E08EEB92E40E94CF24E093C9
:10153C00680BF093690B60936A0B70936B0B0E94B2
:10154C00C71DA091580BB091590B80915A0B9091DB
:10155C005B0B0E94D01DDF01CB01E0E0F0E060EA04
:10156C0070E40E94F81D0E94FD1DE093640BF09343
:10157C00650B6093660B7093670B0E94EF1DA0E0E8
:10158C00B0E088E592E40E94CF240E94D91DE0E9E6
:10159C00FBE0A0E0B0E084EB92E40E946D1CE091D3
:1015AC00440BF091450B6091460B7091470B0E94D8
:1015BC00041EA0E0B0E084EC92E40E94CF24E093FF
:1015CC008C0BF0938D0B60938E0B70938F0BE091C3
:1015DC004C0BF0914D0B60914E0B70914F0B0E9488
:1015EC00041E0E94FD1D0E940F1EE091540BF091F1
:1015FC00550B6091560B7091570B0E94181E0E9450
:10160C00D01DE093840BF093850B6093860B709345
:10161C00870BE0913C0BF0913D0B60913E0B709170
:10162C003F0B0E94181E0E94E21D0E94211E0E9468
:10163C00C21DA0E0B0E084EB92E40E94CF24A0E0B5
:10164C00B0E080E490E40E94CF24E093800BF09310
:10165C00810B6093820B7093830BE0915C0BF09188
:10166C005D0B60915E0B70915F0B0E94181E0E94C7
:10167C00D01D0E94FD1DE0937C0BF0937D0B6093BD
:10168C007E0B70937F0B0E94211EA0E0B0E088E4DB
:10169C0092E40E94CF240E940F1E0E942F1CA09146
:1016AC008A0AB0918B0A1C972CF50E943B1CA0E572
:1016BC00BAE0EE0FFF1FEA0FFB1FFF93EF930E94A0
:1016CC003B1CA4E6BBE00E947C1DABEEB2EE88EFA7
:1016DC0090E40E941F25A0E0B0E088E494E40E940E
:1016EC00CF24AF91BF910E945E24ED93FC930E9496
:1016FC00701CD5CF08950E942F1C0E94351CB4F588
:10170C000E945B1DEA0FFB1FFF93EF93DF010E940A
:10171C00BC260E94451C0E94CF24AF91BF910E9411
:10172C00741DA0ECBAE00E94771DFF93EF93DF01CC
:10173C000E94BC260E94561C0E94CF24AF91BF91E0
:10174C000E94741DA8ECBAE00E94771DFF93EF93E2
:10175C00DF010E94BC260E94641C0E94CF24AF9122
:10176C00BF910E94C2260E94701CC7CFE0E0E0939C
:10177C00820AE093830A08950E94DA010E94731C86
:10178C00BADF7894EAE5F0E0E093F50BF093F60B12
:10179C00E1E0F0E05E2E6F2E0E942A1ED7D2E0917F
:1017AC00B40BF091B50B309769F4D0D286D8EEE536
:1017BC00F1E0FA93EA93E091FB0BF091FC0B0E94A1
:1017CC00311E2FC0E130A0E0FA0711F40AD229C073
:1017DC00E230A0E0FA0711F426D023C0E330A0E0F9
:1017EC00FA0711F461D11DC0EA30A0E0FA0711F438
:1017FC00D5D017C0EB30A0E0FA0711F412D111C00C
:10180C00EC30A0E0FA0711F490D00BC0ED30A0E062
:10181C00FA0711F4A1D005C0E536A0E0FA0709F4E7
:10182C0040D2BCCFFFCF81D00E943A1E0E943F1EF7
:10183C001CF0ECEFF8E005C00E946B1E34F4ECEBEE
:10184C00F2E0E093D60BF093D70B0E94731EAC3FE3
:10185C00E8E0BE071CF0ECEFF8E00AC0A091D80B52
:10186C00B091D90BAD3DE5E0BE0734F4ECEDF5E0FD
:10187C00E093D80BF093D90BECE6F1E00E94A41E98
:10188C000E942A1D109731F40E943A1EA13AE0E002
:10189C00BE070CF009C00E94AB1EE0E0E093B60B53
:1018AC00E093B70B0E942A1E0E942A1D109731F458
:1018BC000E943A1EA03AE0E0BE070CF406C00E945B
:1018CC00AB1E0E94B41E0E942A1E0E942A1D159750
:1018DC003CF00E943A1ED2971CF00E94BB1E0CF0EA
:1018EC0004C00E94C01E0E94C71E0E942A1D15978C
:1018FC0024F00E943A1E5A970CF007C0E0E0E093E7
:10190C00B80BE093B90B0E94C71E0E942A1D1597B5
:10191C0034F00E943A1EA831E1E0BE070CF404C07A
:10192C000E94CE1E0E94C71E08950E94D51E0E94C2
:10193C00DA1E1CF0E8E7F1E006C00E94D51E98976D
:10194C0054F0EBE8F1E0FA93EA930E94DF1EEDE02D
:10195C00F0E00E94E41E08950E94E91E6CF00E94C3
:10196C00EB1EE1EAF1E00E94F11EE7E0E0936F006C
:10197C00EAE0F0E00E94E41E0E94D51E98976CF0FD
:10198C000E94EB1EE7EBF1E00E94F11EE7E0E09312
:10199C006F00EBE0F0E00E94E41E0895E0EDF1E052
:1019AC000E94F11E86D40E94F41E21F40E94D51EC2
:1019BC005F970CF007C0E1E0F0E0E093BC0BF09314
:1019CC00BD0B15C00E94F41E21F40E94D51E5E971B
:1019DC003CF40E94F41E19F40E94E91E0CF406C09B
:1019EC00E0E0E093BC0BE093BD0B01C0D7CFE9EE78
:1019FC00F1E00E94A41E9924AA24A091BC0BB091E2
:101A0C00BD0B119729F40E94AB1EE1E0F0E004C07D
:101A1C000E94EB1EECE0F0E0E093B40BF093B50BFE
:101A2C000895EFEEF1E00E94F11E54D20E94F41ED4
:101A3C0021F40E94D51E5F970CF007C0E1E0F0E0A6
:101A4C00E093BE0BF093BF0B15C00E94F41E21F463
:101A5C000E94D51E5E973CF40E94F41E19F40E945D
:101A6C00E91E0CF406C0E0E0E093BE0BE093BF0B64
:101A7C0001C0D7CFEBE0F2E00E94A41EBB24CC2423
:101A8C00A091BE0BB091BF0B119729F40E94AB1E15
:101A9C00E1E0F0E004C00E94EB1EECE0F0E0E0932B
:101AAC00B40BF093B50B0895E091B80BF091B90B12
:101ABC00309711F53ADF80D10E94FA1E6CF00E942B
:101ACC003A1ED2974CF00E94BB1E34F40E94FF1EAB
:101ADC00A53AE6E0BE070CF004C00E94C01E0E94AE
:101AEC00041F0E940B1F29F40E94AB1E0E942A1E89
:101AFC0077C0E5E1F2E06EC0E130A0E0FA0709F54D
:101B0C0014DF08D6FAD00E940B1F29F40E94AB1EDA
:101B1C000E942A1E65C00E94FF1EA830E7E0BE0787
:101B2C002CF0E0E0E093B80BE093B90B0E94FF1EA1
:101B3C00A13BE4E0BE0714F40E94CE1EEAE2F2E000
:101B4C0049C0E230A0E0FA0701F5EFDE42D70E946F
:101B5C00FA1E6CF00E943A1ED2974CF00E94BB1EEB
:101B6C0034F40E94FF1EA431E5E0BE070CF404C05F
:101B7C000E94C01E0E94041F0E940B1F29F40E9489
:101B8C00AB1E0E942A1E2CC023C0E330A0E0FA0733
:101B9C0039F5CBDE49D60E94FA1E6CF00E943A1E33
:101BAC00D2974CF00E94BB1E34F40E94FF1EA4314D
:101BBC00E5E0BE070CF404C00E94C01E0E94041F86
:101BCC000E940B1F29F40E94AB1E0E942A1E08C003
:101BDC00EAE3F2E0FA93EA930E940B1D0E94311E95
:101BEC000895E091B60BF091B70B309741F50E9438
:101BFC00111F14F00E941B1FECE4F2E00E94221F44
:101C0C000E942D1F0E94321F0E94371F31960E9486
:101C1C003C1FAC3FE8E0BE0714F00E94B41E0E94CB
:101C2C002A1D159734F00E94101D0E94411F0E941E
:101C3C00461F0E94151D14F00E944D1F30C0E1304C
:101C4C00A0E0FA0761F50E94111F24F4ECE4FAE01D
:101C5C000E94581FE5E6F2E00E94221F0E942D1FF1
:101C6C000E94321F0E94371F31970E943C1FAD3BD0
:101C7C00E2E0BE072CF4E0E0E093B60BE093B70B88
:101C8C000E942A1D159734F00E94101D0E94411FBE
:101C9C000E94461F0E94151D14F00E944D1F56D025
:101CAC00089543DE37D50E941B1F0E94041F0E941B
:101CBC001C1D24F00E94AB1E0E942A1E0E942A1D8D
:101CCC00159734F00E94101D0E94411F0E94461F60
:101CDC00EDE7F2E0FA93EA93E091DD0BF091DE0B85
:101CEC000E942D1FE091C40BF091C50B0E942D1F7B
:101CFC0088E00E948E182A9608950E943A1E0E942F
:101D0C003F1E1CF0ECEFF8E005C00E946B1E34F493
:101D1C00ECEBF2E0E093D60BF093D70B0E94731E22
:101D2C00A93EE3E0BE071CF4E8EEF3E00AC0A09184
:101D3C00D80BB091D90BAC3FE8E0BE0734F0ECEF18
:101D4C00F8E0E093D80BF093D90B0895E4E4FAE0B3
:101D5C00A6E4B5E00E945D1FA2E7B6E00E946E1FEC
:101D6C0029F50E947F1F14F1ED2DFE2D309749F4BB
:101D7C00EEE0FAE0A8E2B0E0A083B1830E94731C0D
:101D8C00BADC0E942F1D19F40E948C1F49F00E948E
:101D9C00AB1F00240D140E0414F4DD24EE2402C039
:101DAC00DD24EE24EBE4F0E00E94B01F0E94B51F8E
:101DBC0014F40E94C21F08950E94C91F0E945D1F47
:101DCC00ACEDB5E00E946E1F11F00C946A0F0E94EE
:101DDC007F1F14F40C946A0FED2DFE2D309739F4FF
:101DEC000E94CE1F0E94EA1F0E94EF1F4EC0E130DE
:101DFC00A0E0FA0739F40E94F31F0E9412200E94FF
:101E0C00EF1F43C0E230A0E0FA0769F40E94F31F11
:101E1C000E9417200E946D1C0E941C200E942320EF
:101E2C000E94272038C0E330A0E0FA0729F40E9472
:101E3C00CE1F0E94172025C0E430A0E0FA0729F439
:101E4C000E942C200E94362013C0E530A0E0FA0737
:101E5C0039F40E942C200E9440200E944D200BC07F
:101E6C00E630A0E0FA07D1F40E942C200E9440201A
:101E7C00E0E00E945A20ECEBFAE0A0E0B0E080E752
:101E8C0091EC0E94D6260E941C200E94D626ECECD7
:101E9C00FAE00E94EA1F0E94D6262DDC0E942F1D1C
:101EAC0019F40E948C1F51F00E94AB1FE6E0F0E089
:101EBC00ED15FE0514F4DD24EE2402C0DD24EE2421
:101ECC00E5E5F0E00E94B01F0E94B51F14F40E94DB
:101EDC00C21F08950E946320EB2DFC2D3097B9F49E
:101EEC000E946A200E94A7200E94AE200E94B3206C
:101EFC000E94B8200E94BB200E94BE200E94C120DC
:101F0C00A8EBBBE00E941F24BB24CC24D1C1E13040
:101F1C00A0E0FA0741F50E94C4200E94C7200E944D
:101F2C00CA200E94CD200E94D0200E94D3200E9463
:101F3C00DC200E94DF200E94E2200E94E5200E940B
:101F4C00A7200E94AE200E94E8200E94B8200E9488
:101F5C00BB200E94ED20D8010E941F24E2E0F0E09B
:101F6C00BE2ECF2EA5C1E230A0E0FA0761F50E948B
:101F7C00C4200E94C7200E94F4200E94CD200E9401
:101F8C00D0200E94D3200E94DC20EAE3FAE00E94D9
:101F9C00F7200E94E2200E94E5200E94FC200E9473
:101FAC00FF200E94E820E0E4FAE00E9404210E9455
:101FBC00BB200E94ED20D8010E941F24E3E0F0E03A
:101FCC00BE2ECF2E75C1E330A0E0FA0741F50E947A
:101FDC00C4200E94C7200E94CA200E94CD200E94CB
:101FEC00D0200E94D3200E94DC200E94DF200E947F
:101FFC00E2200E94E5200E94FC200E94FF200E940B
:10200C00E8200E94B8200E94BB200E94ED20D8013D
:10201C000E941F24E4E0F0E0BE2ECF2E49C1E43034
:10202C00A0E0FA0751F50E94C4200E94C7200E942C
:10203C00CA200E94CD200E94D0200E94D3200E9452
:10204C00DC200E94DF200E94E2200E94E5200E94FA
:10205C00A7200E94AE200E94B3200E94B8200E94AC
:10206C00BB200E94BE200E94C120D8010E941F24C8
:10207C00E5E0F0E0BE2ECF2E1BC1E530A0E0FA0764
:10208C00F1F40E94C4200E94C7200E9409210E94E2
:10209C00DC200E941C210E94AE200E94B3200E94D2
:1020AC00B8200E94BB200E94BE200E94C120D901F2
:1020BC000E941F24E6E0F0E0BE2ECF2EF9C0E630E1
:1020CC00A0E0FA07E1F40E94C4200E94C7200E94FD
:1020DC0009210E94DC200E941C210E94AE200E943B
:1020EC00F7200E94B8200E94C1200E942F21D90104
:1020FC000E941F24E7E0F0E0BE2ECF2ED9C0E730BF
:10210C00A0E0FA07E1F40E94C4200E94C7200E94BC
:10211C0009210E94DC200E9436210E94FF200E948F
:10212C00F7200E94B8200E9449210E942F21D9013A
:10213C000E941F24E8E0F0E0BE2ECF2EB9C0E8309C
:10214C00A0E0FA0701F50E94C4200E94C7200E945B
:10215C0050210E945F210E9464210E94DC200E9479
:10216C006D210E94FC200E947C210E94F7200E947D
:10217C0081210E948821D9010E941F24E9E0F0E00E
:10218C00BE2ECF2E95C0E930A0E0FA07F9F40E94DC
:10219C00C4200E94C7200E948F210E9464210E94AB
:1021AC00DC200E949E210E945F210E94FC200E9444
:1021BC00FF200E94AD21E8E4FAE00E94E8200E9492
:1021CC00B821EAE0F0E0BE2ECF2E72C0EA30A0E0DB
:1021DC00FA0709F50E94C4200E94C7200E945021D2
:1021EC000E94C1210E94D3200E94DC200E949E21CB
:1021FC000E94C1210E94FC200E94FF200E94F72017
:10220C000E94C6210E9449210E94C921EBE0F0E006
:10221C00BE2ECF2E4DC0EB30A0E0FA07F9F40E9491
:10222C00C4200E94C7200E9450210E94C1210E94FC
:10223C00D3200E94DC200E949E210E94C1210E947A
:10224C00FC200E94D8210E9404210E94C6210E94D9
:10225C00DD21ECE0F0E0BE2ECF2E2AC0EC30A0E069
:10226C00FA0709F50E94C4200E94C7200E94F4209E
:10227C000E94F2210E94DC20EAE3FAE00E94E820AE
:10228C000E94FF210E940C220E9404210E94C62160
:10229C00EAE4FAE00E94581F0E941122EDE0F0E0FF
:1022AC00BE2ECF2E05C0ED30A0E0FA0709F43CD1CC
:1022BC0037C10E946320E92DFA2D3097B1F40E94AA
:1022CC006A200E94A7200E94AE200E94B3200E9488
:1022DC00B8200E94BB200E94BE200E94C120D801C1
:1022EC000E941F249924AA241BC1E130A0E0FA0704
:1022FC00F1F40E94C4200E94C7200E9409210E9470
:10230C00DC200E941C210E94AE200E94B3200E945F
:10231C00B8200E94BB200E94BE200E94C120D9017F
:10232C000E941F24E2E0F0E09E2EAF2EF9C0E230B6
:10233C00A0E0FA07E1F40E94C4200E94C7200E948A
:10234C0009210E94DC200E941C210E94AE200E94C8
:10235C00F7200E94B8200E94C1200E942F21D90191
:10236C000E941F24E3E0F0E09E2EAF2ED9C0E33094
:10237C00A0E0FA07E1F40E94C4200E94C7200E944A
:10238C0009210E94DC200E9436210E94FF200E941D
:10239C00F7200E94B8200E9449210E942F21D901C8
:1023AC000E941F24E4E0F0E09E2EAF2EB9C0E43072
:1023BC00A0E0FA0701F50E94C4200E94C7200E94E9
:1023CC0050210E945F210E9464210E94DC200E9407
:1023DC006D210E94FC200E947C210E94F7200E940B
:1023EC0081210E948821D9010E941F24E5E0F0E0A0
:1023FC009E2EAF2E95C0E530A0E0FA07F9F40E94AE
:10240C00C4200E94C7200E948F210E9464210E9438
:10241C00DC200E949E210E945F210E94FC200E94D1
:10242C00FF200E94AD21E8E4FAE00E94E8200E941F
:10243C00B821E6E0F0E09E2EAF2E72C0E630A0E0B0
:10244C00FA0709F50E94C4200E94C7200E9450215F
:10245C000E94C1210E94D3200E94DC200E949E2158
:10246C000E94C1210E94FC200E94FF200E94F720A4
:10247C000E94C6210E9449210E94C921E7E0F0E098
:10248C009E2EAF2E4DC0E730A0E0FA07F9F40E9463
:10249C00C4200E94C7200E9450210E94C1210E948A
:1024AC00D3200E94DC200E949E210E94C1210E9408
:1024BC00FC200E94D8210E9404210E94C6210E9467
:1024CC00DD21E8E0F0E09E2EAF2E2AC0E830A0E03F
:1024DC00FA0709F50E94C4200E94C7200E94F4202C
:1024EC000E94F2210E94DC20EAE3FAE00E94E8203C
:1024FC000E94FF210E940C220E9404210E94C621EE
:10250C00EAE4FAE00E94581F0E941122E9E0F0E090
:10251C009E2EAF2E05C0E930A0E0FA0709F404D0D6
:10252C000E94192724960895EAE0F0E0E093840ACB
:10253C00F093850AE0E0E03011F00C9480130E94D7
:10254C007F1F14F40C948013ED2DFE2D309799F40D
:10255C000E942C200E943620E0E0F0E060EA72EC51
:10256C000E9423220E942320A0E0B0E080EA92EC9B
:10257C000E942F22A9C0E130A0E0FA0799F40E9432
:10258C002C200E943620E0E0F0E06CE872EC0E9417
:10259C0023220E942320A0E0B0E08CE892EC0E9461
:1025AC002F2292C0E230A0E0FA0799F40E942C206E
:1025BC000E943620E0E0F0E060E772EC0E942322FB
:1025CC000E942320A0E0B0E080E792EC0E942F2232
:1025DC007BC0E430A0E0FA0799F40E942C200E9402
:1025EC003620E0E0F0E068E472EC0E9423220E94C6
:1025FC002320A0E0B0E088E492EC0E942F2264C07B
:10260C00E530A0E0FA0789F40E942C200E943620C5
:10261C000E944D200E9432220E94EF1F0E94232014
:10262C000E9427200E942F224FC0E630A0E0FA071C
:10263C0099F40E942C200E943620E0E0F0E060EF3C
:10264C0071EC0E9423220E942320A0E0B0E080EFD6
:10265C0091EC0E942F2238C0E730A0E0FA0799F4E1
:10266C000E942C200E943620E0E0F0E060EA71EC41
:10267C000E9423220E942320A0E0B0E080EA91EC8B
:10268C000E942F2221C0E830A0E0FA0779F40E94C2
:10269C002C200E9436200E9435220E9423220E9468
:1026AC0023200E943A220E942F220EC0E930A0E083
:1026BC00FA0751F40E94731C0E94810BE1E0F0E0D8
:1026CC00E093DA0BF093DB0B0E942F1D19F40E94A0
:1026DC008C1F51F00E94AB1FE9E0F0E0ED15FE05F8
:1026EC0014F4DE2EEF2E02C0DD24EE24E8EEF3E02F
:1026FC000E94B01FEAE0F0E0E093880AF093890AA8
:10270C00A091780AB091790AEA17FB0714F40E9499
:10271C00C21F08950E943F22A8E7B5E00E946E1FD9
:10272C0011F00C941414E0E0F0E060EA71E40E9403
:10273C0044220E94EB1B14F40C941414ED2DFE2D6A
:10274C00309709F444C0E130A0E0FA0749F40E9444
:10275C004D220E9436200E945A220E943A223CC0EE
:10276C00E230A0E0FA0769F40E944D220E945F2239
:10277C000E9468220E944D20ECEBFAE00E943A2263
:10278C002BC0E330A0E0FA0711F1E430A0E0FA0727
:10279C0029F40E94F31F0E9412201EC0E530A0E015
:1027AC00FA0789F40E94F31F0E947122E093C40A75
:1027BC00F093C50A6093C60A7093C70AECECFAE072
:1027CC000E94272011C0E630A0E0FA0789F4E0E06F
:1027DC000E9474220E947D220E94D6260E94802292
:1027EC000E9423200E94EA1F0E94D6260E94810B81
:1027FC000E942F1D19F40E948C1F51F00E94AB1FD8
:10280C00E5E0F0E0ED15FE0514F4DD24EE2402C045
:10281C00DD24EE24E5E5F0E00E94B01F0E94B51F18
:10282C0014F40E94C21F08950E943F22A8E7B5E04D
:10283C000E946E1F11F00C94E914E0E0F0E060EFE0
:10284C0071E40E944422E0E0F0E06CE072E4E0937A
:10285C008C0AF0938D0A60938E0A70938F0AE0E0D5
:10286C00F0E060E272E4E093940AF093950A6093CE
:10287C00960A7093970A0E94EB1B14F40C94E914BB
:10288C00ED2DFE2D309749F40E94CE1F0E94EA1FB9
:10289C000E94EF1F0E946D1C78C0E130A0E0FA0787
:1028AC0071F40E9483220E948C220E943620E0E068
:1028BC000E945A200E9495220E946D1C66C0E23034
:1028CC00A0E0FA07D9F40E9483220E94A122E09191
:1028DC00940AF091950A6091960A7091970A0E9459
:1028EC002924E093C80AF093C90A6093CA0A70932A
:1028FC00CB0A0E9495220E946D1C47C0E330A0E0D9
:10290C00FA0769F40E942C200E945F220E94682220
:10291C000E947D220E946D1C0E945F222EC0E4301A
:10292C00A0E0FA0749F40E9435220E94A1220E94DD
:10293C005A220E94712221C0E530A0E0FA0779F4F6
:10294C000E9435220E94A1220E945A220E9412202B
:10295C000E94EF1F0E9423200E9427201AC0E630FD
:10296C00A0E0FA07D1F40E94CE1F0E94EA1F0E9439
:10297C006D1C0E945F220E942924E093C40AF093EC
:10298C00C50A6093C60A7093C70AECECFAE00E9481
:10299C00EA1F0E94D6260E94810B0E942F1D19F45B
:1029AC000E948C1F51F00E94AB1FE2E0F0E0ED158D
:1029BC00FE0514F4DD24EE2402C0DD24EE24E2E84E
:1029CC00F0E00E94B01F0E94B51F14F40E94C21FB9
:1029DC000895E4E4FAE00E94581FE2E4FAE0A4E867
:1029EC00B3E0A083B183E0E4FAE0ACE6B7E0A08307
:1029FC00B183EAE4FAE0A0EBB4E00E946E1F11F0A0
:102A0C000C9489150E947F1F14F40C948915ED2DDC
:102A1C00FE2D309739F40E94CE1F0E94EA1F0E94AF
:102A2C00EF1F51C0E130A0E0FA0749F40E94A42244
:102A3C000E945A220E9417200E94EF1F44C0E230CD
:102A4C00A0E0FA0789F40E94A4220E945A220E9454
:102A5C0017200E946D1C0E94AA220E942320A0E035
:102A6C00B0E088E492EC35C0E330A0E0FA0711F155
:102A7C00E430A0E0FA0759F40E944D220E9436205F
:102A8C000E945A220E943A220E94EF1F1CC0E5307D
:102A9C00A0E0FA0759F40E944D220E9436200E94B1
:102AAC004D20ECEBFAE00E943A2209C0E630A0E09F
:102ABC00FA0799F4E0E00E9474220E947D220E94A1
:102ACC00D6260E94AA220E94D626ECECFAE00E949E
:102ADC00EA1F0E94D6260E94810B0E942F1D19F41A
:102AEC000E948C1F51F00E94AB1FE6E0F0E0ED1548
:102AFC00FE0514F4DD24EE2402C0DD24EE24ECE308
:102B0C00F0E00E94B01F0E94B51F14F40E94C21F77
:102B1C000895AA93E091C000E072E1F3E881E0939C
:102B2C00C60021960895BA93AA93AA81F2DFA881D0
:102B3C00B9810E94E51B239608950E94B122E0E81A
:102B4C00EA83EFE3EB830E941227EE85FF85EF3FCC
:102B5C00AFEFFA0749F4E885F985FA93EA93A2E90D
:102B6C00B2E00E94B71BB4C0EF3FAFE7FA0749F4DD
:102B7C00E885F985FA93EA93A3E9B2E00E94B71BC2
:102B8C00A7C0AB85A73010F0E6E0EB871B85E12FE3
:102B9C001150E03019F00E94B822F9CFEC85FD8578
:102BAC006E857F850E94022721F430E00E94B822B6
:102BBC002EC03B850E94C72209F010F40C94F1152D
:102BCC000E94B8220E94C72228F00E94D2220E94A2
:102BDC00D722F8CF0DC00E94C72240F40E94D22207
:102BEC000E94E3220E94EA223150F5CF0E94B822C3
:102BFC00EC85FD856E857F850E94EF220E94EA227E
:102C0C000E94C72220F00E94D2220E94D72210E0FC
:102C1C00EB85E11788F10E94F6220E94FB220E94AC
:102C2C00EF22DF01CB010E94DF19EC83FD836E8361
:102C3C007F830E9402230E94D2220E946D250E9453
:102C4C005C240E2F0E9407230E940E23FF27662769
:102C5C0077270E9495240E9413230E94D2220E945F
:102C6C00F81D0E94EA22E12F1F5FE03089F60E94D6
:102C7C000723EEE2EC93CCCF0E9417233197AA8561
:102C8C00A08330302CF43195A885B985EDE203C0D2
:102C9C00A885B985EBE2EC930E9417230E941723B9
:102CAC003197BF01A32FEAE00E944C26E05DDB01C7
:102CBC00EC930E9417233197BF01A32FEAE00E94E7
:102CCC008E26E05DDB01EC93A885B985E0E0EC9302
:102CDC000E94192760960895BA93AA93EF9761976B
:102CEC000E94102710E0FE01E85AFF4F0190F0817E
:102CFC00E02DE887F987FE01EA5AFF4F0190F08139
:102D0C00E02DEE83FF83AE81BF81E0E0F0E0ED9338
:102D1C00FC93DE01A45ABF4F0E94E51B3197E4914E
:102D2C002E2FE03011F40C948518E12FE03039F49B
:102D3C00253211F411E002C00E941D23DFC1E130E5
:102D4C00C1F4253219F40E941D23D7C112E0E0E032
:102D5C00ED8B00E02D3211F401E0D0C12B3219F4CF
:102D6C00EBE2ED8BCBC1203219F4E0E2ED8BC6C166
:102D7C0002C0E23039F450E013E0203311F4006863
:102D8C00BDC102C0E33091F4203310F02A3308F0B7
:102D9C0007C0AAE05A9F502DE22FE0535E0FAEC140
:102DAC0040E02E3211F414E0A9C10FC0E43099F4C4
:102DBC00203310F02A3308F008C00062AAE04A9FC2
:102DCC00402DE22FE0534E0F99C12C3619F40260BE
:102DDC0015E094C104C0E53011F00C948418E22F76
:102DEC00E33659F40E9424230E942B230E942423AF
:102DFC00A481AA930E94322380C1E53411F0E536F8
:102E0C0009F404C0E63611F00C945217FE017696C4
:102E1C00EE87FF870E9438230E94BC260E943F2326
:102E2C000E944423AD85AA2322F0AD89AB3249F030
:102E3C0017C00E9446230E9429240E943F23EDE2E2
:102E4C00ED8B07FF05C0ED89EA930E94322308C081
:102E5C00EE85FF853196EE87FF873197AD89A0838C
:102E6C0005FF46E0263651F40E9446230E94DB26DD
:102E7C004A93AB89BC890E94EA1809C00E94462378
:102E8C000E94DB264A932A93AC89BD8956DEFE014B
:102E9C0076960E944B231EC0E33739F40E944423DC
:102EAC000E9453230E944B230EC0E037C1F40E94B2
:102EBC0044230E945323EE87FF87AE85BF850E9473
:102ECC00D01B1E2F08600F77403011F0411708F00F
:102EDC0001C0142F40E0E0E0EC8B30E06EC0E43633
:102EEC0011F0E93611F4046002C0E537A1F4EAE010
:102EFC00EC8B01FF08C0E0E0FAEC6AE97BE30E948E
:102F0C0058231AE023C0E0E1F7E260E070E00E9491
:102F1C00582315E01BC0E83511F4086004C0E837ED
:102F2C0011F00C948318E0E1EC8B01FF08C0E0E099
:102F3C00F0E060E070E10E94582318E007C0E0E088
:102F4C00F0E160E070E00E94582314E0403011F092
:102F5C000F7701C041E001FF08C00E9444230E948A
:102F6C00382314960E94BC260FC002FF07C00E9493
:102F7C0044230E9453230E94242606C00E9444230B
:102F8C000E94532366277727EA87FB876C877D8708
:102F9C0002FF12C0AD85AA2342F40E9446230E9470
:102FAC0011260E943F23EDE2ED8BED89E03019F004
:102FBC001F5F4F5F01C00B7F342F00FD14C015172E
:102FCC0010F4351708F00FC007FF08C002FF04C04B
:102FDC000B7F2D89115001C020E301C020E20E941B
:102FEC001D235150ECCF141790F4006102FF06C062
:102FFC000E945D2309F0515011504150E0E3EA93D7
:10300C000E943223503009F051504150ECCF312FF7
:10301C00EC89E030B9F43030A1F003FF06C0EE8546
:10302C00FF852591EE87FF8705C0AE85BF852D9165
:10303C00AE87BF870E941D23503009F0515031508C
:10304C00EACF51C00E946F230E9469262E2F2A308E
:10305C0030F003FF02C0295C01C0295A01C0205D79
:10306C0004FD21C0213360F4A889B9898A899B8920
:10307C00A130E0E0BE07E0E08E07E0E09E0709F437
:10308C000BC0431740F4531710F000FF01C010C0E1
:10309C0020E207FF08C020E3006102FF04C00E9489
:1030AC005D2309F051500E941D23503009F05150FE
:1030BC0031500E946F230E949A260E943F23EC8974
:1030CC00A889B9898A899B89FF27662777270E9457
:1030DC0069260E945823E889F9896A897B890E94AC
:1030EC00022709F0AFCF00FF08C0503031F051502B
:1030FC00E0E2EA930E943223F8CF10E00ACEAE81D0
:10310C00BF810E94B8260E941727EF966F960895EC
:10311C00FF92F82E26971A930A93DE0114960E94BA
:10312C0009268D01E0E0EC83ED83EE83EF83DE0175
:10313C0018960E9409260E94B826FA93EA931A93CD
:10314C000A93E9E9F5E1FA93EA93DE011896C4DDF6
:10315C00198108812896FF900895BA93AA93B98192
:10316C00A881EC918A2FAE2F0E94AC1BA82FEE23C6
:10317C0011F01196F6CFE894EC91ED3211F46894BD
:10318C0002C0EB3209F4119666277727EC918A2F4F
:10319C00AE2F0E94A31BA82FEE2379F0FB01660F24
:1031AC00771F660F771F6E0F7F1F660F771FED91CE
:1031BC00FF27E0536E0F7F1FE9CFFB011EF4E09554
:1031CC00F0953196229608950E94B122E0E0EA83B0
:1031DC00EFE3EB831A930A93EB85FC85EF3FAFEF9C
:1031EC00FA0739F40E947823AAE9B2E00E94B71BCF
:1031FC00ABC0EF3FAFE7FA0739F40E947823ABE995
:10320C00B2E00E94B71BA0C0AC85AA2362F4E9858A
:10321C00FA856B857C850E9429240E947D230E945F
:10322C008223EDE2EC93A885A73010F0E6E0E88766
:10323C001885E12F1150E03039F00E9489230E944B
:10324C00FB220E948E23F5CF0E9493230E94CF2451
:10325C000E947D2310E00E949C230E948E230E94DA
:10326C0093230E94B22588F00E9489230E94E322B6
:10327C000E948E231F5F173238F00E947823AFE92B
:10328C00B2E00E94B71B60C0EACF103029F40E9454
:10329C008223E0E3EC932BC0E12F1150E03039F1A5
:1032AC000E9489230E94FB220E94EF22DF01CB01A6
:1032BC000E94DF190E948E230E9493230E946D2589
:1032CC000E945C240E2F0E9482230E940E23F0E0A9
:1032DC000E9489230E9424260E9495240E941F2567
:1032EC000E94A1230E94F81D0E947D23D5CFE88562
:1032FC00E03031F10E948223EEE2EC93E885E1505C
:10330C00E887EF5FE9F00E94A1230E94E3220E946C
:10331C007D23E985FA856B857C850E945C240E2FC4
:10332C000E9482230E940E23F0E00E94A1230E949F
:10333C0024260E9495240E94F81D0E947D23DECF36
:10334C00AE81BF81E0E0EC93198108812D96089540
:10335C000E94E0267B816A81F981E88177FB770FF7
:10336C0067FD7160972F9E5781F078F0983190F43B
:10337C00AA27BB27882708948795B795A7959A9570
:10338C00D1F7EA23FB23682305C0E8947727EE27BF
:10339C00FF2766276F77769508F4606877F9A9910F
:1033AC00B99189919991EA17FB076807790797FBFF
:1033BC0008950E94A6230E94AE190E94AB2319F413
:1033CC000E94AE2363C1E6F70E94B1235DC10E9447
:1033DC00B723E3E8F9EF62E27EE30E941F250E9427
:1033EC00C123E7DF0E94CA230E94F81D0E94C1235B
:1033FC00E0E0F0E060E07FE30E94B22509F010F419
:10340C000C94111A0E94CF23A0E0B0E080E09FE35F
:10341C000E94D42311E00E94CA23E0E0F0E060E8AF
:10342C007EE30E94B22509F010F40C94251A0E9438
:10343C00CA23E0E0F0E060E07FE30E94D423103088
:10344C0011F00E94DB230E94E323E983FA836B8350
:10345C007C830E94E823A1EBB4EC86E292E40E9408
:10346C001F25DF01CB01EDE1F5EE6DE272E40E9468
:10347C00F81D0E94ED23ACE4B3E584E091E40E94D6
:10348C00CF240E94CA230E941F257F936F93FF9322
:10349C00EF930E94E823A1E1BDEE8EED9FE30E9425
:1034AC00CF240E94ED23AEE5BBE788EA9FE30E94A0
:1034BC00CF24AF91BF918F919F910E946D25C5C074
:1034CC000E94A623EBEDFFE069EC7FE30E94C82489
:1034DC00DF01CB017CDFDAC00E94E02624970E943A
:1034EC0002230E9413230E94AB230E94AE23A5E665
:1034FC00B0ED8BEC90E40E94F4230E9413237F9395
:10350C006F93FF93EF930E94AE23A0E0BDE689E298
:10351C0091E40E94CF240E94FD230E94F423AF91DA
:10352C00BF918F919F910E946D25289608950E94BE
:10353C00A623EDECF3E164ED7EE30E94B22520F4CA
:10354C000E94FD23C9DFA2C00E94FD23EAE7F2E836
:10355C006AE170E40E94B22509F010F40C94BB1AD5
:10356C000E94B1230E94002489C00E94B1230E94B2
:10357C00C8247F936F93FF93EF930E94B1230E9413
:10358C00CF24AF91BF918F919F910E940024ABEDFE
:10359C00BFE089E49FE30E94CF2478C00E94B72348
:1035AC000E94062458F00E94CA230E949C230E9469
:1035BC00B22519F010F00C94E41A03C00E940D24EB
:1035CC0044C0A885AA231AF40E94DB2311E00E94B0
:1035DC00E323A0E0B0E080E89FE30E94F81DDF0148
:1035EC00CB010E94D225E983FA836B837C830E94F2
:1035FC00CA23E3EFF4E065E37FE30E94B22509F010
:10360C0010F40C94181B0E94CF23A981BA818B81D2
:10361C009C810E941224ABEDBFE089EC9FE30E94D9
:10362C00F81D06C00E94E8230E94CA230E9412249F
:10363C00E983FA836B837C83103029F00E94E823A2
:10364C000E94292402C00E94E8231881299608951B
:10365C000E94A6230E94062458F00E94FD230E947B
:10366C009C230E94B22519F010F00C943E1B03C051
:10367C000E940D240BC00E94FD2390DFABEDBFE038
:10368C0089EC9FE30E94E5260E94C82424960895A5
:10369C000E94E02624970E9402230E940227D9F45C
:1036AC00E885F9856A857B850E94022719F40E94BA
:1036BC000D2441C0A885B9858A859B850E940A275F
:1036CC002CF4EBEDFFE069EC7FE335C0EBEDFFE0B4
:1036DC0069EC7FEB30C00E940223A885B9858A85EE
:1036EC009B850E946D250E94AB230E94F6220E94AE
:1036FC000A2764F4AB85AA2322F00E94FD2317DF6E
:10370C001AC00E9418240E94292415C0AB85AA2334
:10371C004AF00E941824ABEDBFE089E490E40E94CB
:10372C00F81D09C00E94FD2302DFABEDBFE089E468
:10373C0090EC0E94CF242C960895AA93E1E0F99185
:10374C00F03310F0FA3308F0EE270895AA93E1E075
:10375C00F991F03229F0F93010F0FE3008F0EE2734
:10376C000895BA93AA93E991F991A991B991CD01D0
:10377C0005900D920020E1F7FC010895BA93AA93ED
:10378C00A991B991EE27FF276D91662311F031961F
:10379C00FBCF0895BA93AA93AA27BB27E991F99175
:1037AC000590002011F01196FBCFFD0108950A92AF
:1037BC00AA93BA93EA93FA93EFB7EA930895ED912B
:1037CC00FD913196FE93EE930895A0917A0AB091F3
:1037DC007B0A0E9406270895ED91FD913197FE9387
:1037EC00EE930895E991EFBFF991E991B991A991FF
:1037FC0009900895A091A80AB091A90A8091AA0AEB
:10380C009091AB0A0895E091AC0AF091AD0A6091E9
:10381C00AE0A7091AF0A0895A091AC0AB091AD0AAE
:10382C008091AE0A9091AF0A0895A091B00AB09120
:10383C00B10A8091B20A9091B30A0E941F25089593
:10384C00A091B40AB091B50A8091B60A9091B70ACA
:10385C000895E0E0E0938A0AE0938B0A0895A09122
:10386C008A0AB0918B0A12970895E0918A0AF09116
:10387C008B0A0895A0EDBAE00E9419260895A09134
:10388C009C0AB0919D0A80919E0A90919F0A08957E
:10389C000E94D626EACFA8EDBAE00E941926089518
:1038AC00A091A00AB091A10A8091A20A9091A30ABA
:1038BC000895A0EEBAE00E9419260895A091A40ADA
:1038CC00B091A50A8091A60A9091A70A08950E942A
:1038DC00D6260895AAE8BAE072CFE0E0E093B80AE1
:1038EC00E093B90AE093BA0AE093BB0AE093C00AEA
:1038FC00E093C10AE093C20AE093C30AE093C80ABA
:10390C00E093C90AE093CA0AE093CB0AECEBFAE025
:10391C00A0E0B0E080E090E0DADFE4ECFAE0A0E0D8
:10392C00B0E080E090E0D3DFECECFAE0A0E0B0E0B7
:10393C0080E090E0CCCFEE0FFF1FAE0FBF1F0895BD
:10394C00AA93EA93FA93EFB7EA930895F0E03097CD
:10395C000895E2E0EA9FF001E45BF040AFEFBFEFC7
:10396C000E9439260895EA0FFB1FEE0FFF1F0895E2
:10397C00E057F741EF2FF0E00895EA0FEE0FE05714
:10398C00E09388000895A0E7B7E10E94EB26EA1BBC
:10399C00FB0BEECFEA0FEE0FA0E70E94EE26EA1B20
:1039AC00E057E0938A00E8EEE0938500E0E9E093CD
:1039BC0084000895EA0FEE0FA0E70E94EE26EA1BA2
:1039CC00E057E09388000895EA0FEE0FE057E0937C
:1039DC008A00E8EEE0938500E0E9E0938400089526
:1039EC00E091DC0BB3CFEA0FEE0FE057E0939800B9
:1039FC000895EA0FEE0FE057E0939A00E8EEE0939B
:103A0C009500E0E9E09394000895E0914C0AF09160
:103A1C004D0A0895E0914E0AF0914F0A0895A09135
:103A2C00C00BB091C10B0E9406270895A091C40B46
:103A3C00B091C50B0E9406270895E8EEE09395001F
:103A4C00E0E9E09394000895A091F90BB091FA0B82
:103A5C000895A0918C0AB0918D0A80918E0A909154
:103A6C008F0A0E940A270895A091900AB091910A9A
:103A7C008091920A9091930A0E940A270895A0912E
:103A8C00980AB091990A80919A0A90919B0A0E9487
:103A9C000A270895E091840AF091850A0895E5DEDD
:103AAC00A8EEBAE00E9419260895DFDEA8EBBAE072
:103ABC000E9419260895AE0FBF1F0E94BC260895C0
:103ACC000E94E5260E94C824DF01CB01E3DF0E949F
:103ADC0024260E9495240E946D2508950E94C226DA
:103AEC00C4CE0E941926EA0FFB1F08950E941926C6
:103AFC00E2CFBBDEA0E5BAE01ECFE0917E0AF091EA
:103B0C007F0A0895DF01CB010E941F2508950E94B2
:103B1C00CF24DF01CB010C94D225A0911C0BB091CA
:103B2C001D0B80911E0B90911F0B0895E091240B9F
:103B3C00F091250B6091260B7091270B08950E9434
:103B4C00C226DBDFA0E5BBE00895A091040BB09189
:103B5C00050B8091060B9091070B089554DEA0E0A5
:103B6C00B0E080E090E40E941F255FCE0E946D259E
:103B7C00DF01CB010C942E1B0E94CF240E94292420
:103B8C000895E091600BF091610B6091620B709164
:103B9C00630B08950E941F25A0E0B0E084EB92E433
:103BAC000E94CF240895E093700BF093710B6093F7
:103BBC00720B7093730B08950E941F25A0E0B0E068
:103BCC0084E393E40E94E5260E94C824DF01CB0124
:103BDC000895E091700BF091710B6091720B7091E4
:103BEC00730B08950E94E5260E94C8240895A0E056
:103BFC00B0E080EA90E40E94CF240895A091600B7D
:103C0C00B091610B8091620B9091630B0E941F2508
:103C1C000895E093880BF093890B60938A0B709353
:103C2C008B0B0895A091600BB091610B8091620B8E
:103C3C009091630B0895E091880BF091890B609142
:103C4C008A0B70918B0B0895E1E0F0E0E093B40BDC
:103C5C00F093B50B08950E9424260E94DB2684E085
:103C6C000E948E1826960895A091E30BB091E40B58
:103C7C000895E091CA0BF091CB0BEA1BFB0BE09380
:103C8C00CE0BF093CF0BA091CE0BB091CF0BEFE2FC
:103C9C00F0E00E946426E093D20BF093D30BA0913A
:103CAC00D60BB091D70BEA0FFB1FE093D60BF0931A
:103CBC00D70BE0934E0AF0934F0AA091D60BB0911C
:103CCC00D70BAC3FE8E0BE070895A091D60BB0919E
:103CDC00D70BAD3BE2E0BE070895A091E50BB09188
:103CEC00E60BE091CC0BF091CD0BEA1BFB0BE093B8
:103CFC00D00BF093D10BA091D00BB091D10BEFE284
:103D0C00F0E00E946426E093D40BF093D50BA091C5
:103D1C00D40BB091D50BE091D80BF091D90BEA1BD9
:103D2C00FB0BE093D80BF093D90BE0934C0AF09378
:103D3C004D0AA091D80BB091D90B0895FA93EA9340
:103D4C0080E00E948E1822960895E091C20BF091AB
:103D5C00C30BE093C00BF093C10B0895E1E0F0E0CE
:103D6C00E093B60BF093B70B08957EDFA931E1E039
:103D7C00BE070895E1E0F0E0E093B80BF093B90BC7
:103D8C000895E3E0F0E0E093B40BF093B50B0895E5
:103D9C00E2E0F0E0E093B80BF093B90B0895A0913A
:103DAC00DD0BB091DE0B0895E8EDFFEFEA17FB0792
:103DBC000895E091DD0BF091DE0B4DCFE093B40B49
:103DCC00F093B50B0895EBDFEFCFE0E0E093DA0B67
:103DDC00E093DB0B0895FA93EA93EBCFA091DA0B07
:103DEC00B091DB0B119708950E94190C2DDE1597DD
:103DFC000895A0914E0AB0914F0A0895EEE4FAE0AE
:103E0C00ACEDB5E0A083B1830895E091F90BF0918E
:103E1C00FA0B309708950E949B0CA0914C0AB0911C
:103E2C004D0AA830E7E0BE070895ECE4FAE0ACEDEB
:103E3C00B5E0A083B1830895FA93EA93E091DD0B8A
:103E4C00F091DE0B0E9424260E94DB26E3CD0E941B
:103E5C0024260E94DB260895E091C00BF091C10B43
:103E6C00F6CF8CE00E948E182E96D4CDE0934E0A9D
:103E7C00F0934F0ABECFE093D60BF093D70BC5CD82
:103E8C00E093D80BF093D90BE2E0F0E097CFE09100
:103E9C00C60BF091C70BE093C40BF093C50BE5E692
:103EAC00F0E08CCFA8E0B7E0A083B1830895A083A5
:103EBC00B183E2E4FAE0A4E8B3E0A083B183E0E4E8
:103ECC00FAE0ACE6B7E0A083B183EAE4FAE0089547
:103EDC00A083B183E8E4FAE0A2E0B8E0A083B18368
:103EEC00E6E4FAE0ACE4B4E0A083B183E0E0E030D7
:103EFC000895E0E0F0E060E271E4E093900AF09362
:103F0C00910A6093920A7093930A5FCCA091900AE5
:103F1C00B091910A8091920A9091930AE0E0F0E0BE
:103F2C0060E070E00E9429260E2EA091980AB091B4
:103F3C00990A80919A0A90919B0AE0E0F0E060E087
:103F4C0070E00E942926E0290895E1E0F0E0DE0E01
:103F5C00EF1E0895E0937A0AF0937B0A0895E1E04E
:103F6C00F0E0E093880AF093890AA091780AB09166
:103F7C00790AEA17FB070895E0E0E093780AE093EA
:103F8C00790A0C949107E4E4FAE0ACEDB5E00895FD
:103F9C00E0E0E093B80AE093B90AE093BA0AE09340
:103FAC00BB0AE093C00AE093C10AE093C20AE09313
:103FBC00C30AE093C80AE093C90AE093CA0AE093E3
:103FCC00CB0AECEBFAE00895A0E0B0E080E090E0E2
:103FDC0008957DDCE4ECFAE0F7CFE0E0F0E060E29D
:103FEC0071ECE093B80AF093B90A6093BA0A709333
:103FFC00BB0AE093C00AE093C10AE093C20AE093C3
:10400C00C30AE093C80AE093C90AE093CA0AE09392
:10401C00CB0AECEBFAE00895A0E0B0E080E291E48A
:10402C000895A0E0B0E080E791E40895E4ECFAE0B4
:10403C00A0E0B0E080E291EC089549DCECECFAE011
:10404C000895A0E0B0E080E292EC0895E0E0E09307
:10405C00B80AE093B90AE093BA0AE093BB0A089550
:10406C00E0E0E093C00AE093C10AE093C20AE09357
:10407C00C30A0895E0E0F0E060EA71E4E093C00A5E
:10408C00F093C10A6093C20A7093C30A0895E0E0EA
:10409C00F0E060E272ECE093C80AF093C90A609316
:1040AC00CA0A7093CB0A0895E093C80AE093C90A30
:1040BC00E093CA0AE093CB0A08950E94122708EEF7
:1040CC0013E022E330E00895ECE4FAE0A4EFB1E071
:1040DC00A083B183EEE4FAE0A0EDB7E0A083B18356
:1040EC00E2E3FAE0ACEDB5E0A083B183E0E3FAE003
:1040FC00A083B183EEE2FAE0A083B183ECE2FAE0B4
:10410C00A083B183EAE2FAE0A083B183ECEDF5E0A1
:10411C00E093280AF093290AEEE3FAE0A083B18336
:10412C00ECE3FAE0A083B183EAE3FAE0A083B18385
:10413C00E8E3FAE0A083B183E6E3FAE0A083B1837D
:10414C000895E4E3FAE0ACEDB5E0A083B1831BCFB6
:10415C00A083B183E2E4FAE00895ACEDB5E0A0836E
:10416C00B1830895E0E4FAE0F8CFE6E4FAE0F5CFA5
:10417C00E8E4FAE0F2CFEAE4FAE0EFCFE2E3FAE0C7
:10418C00ECCFE0E3FAE0E9CFEEE2FAE0E6CFECE2E6
:10419C00FAE0E3CFEAE2FAE0E0CFECEDF5E0E09311
:1041AC00280AF093290AEEE3FAE0D7CFECE3FAE021
:1041BC00D4CFEAE3FAE0D1CFE8E3FAE0CECFE6E3FE
:1041CC00FAE0CBCFA0E2B3E0A083B1830895E8E49A
:1041DC00FAE0A4E3B8E0A083B183CDCFEEE2FAE03D
:1041EC00F1CFA4E3B8E0A083B1830895E4E3FAE04F
:1041FC00B4CFE4E4FAE0A4EFB1E0AACFA8EEB3E0C8
:10420C00A083B1830895EEE2FAE0A8EDB3E0A083B9
:10421C00B183ECE2FAE0ACECB9E0A083B183EAE262
:10422C00FAE0AEEEB3E0A083B183B7CFEAE3FAE0F5
:10423C00A8EDB3E0A083B183E8E3FAE0ACECB9E01D
:10424C00A083B183E6E3FAE0AEEEB3E0A083B183E2
:10425C0078CFE8E4FAE0A4E8B3E0A083B18385CF9B
:10426C00EAE3FAE0A8EDB3E0A083B183E8E3FAE077
:10427C00ACECB9E0A083B183E6E3FAE0AEEEB3E0D8
:10428C00A083B183B3CFEAE4FAE0A4ECB9E0A08355
:10429C00B1830895EEE2FAE0A4EFB1E0A083B1831C
:1042AC00ECE2FAE0ACECB9E0A083B183EAE2FAE02C
:1042BC000895AEEEB3E0A083B1830895E4EBF5E08E
:1042CC00E093280AF093290AEEE3FAE046CFEAE3FA
:1042DC00FAE0A6EDB1E0A083B183E8E3FAE0ACEC40
:1042EC00B9E0A083B183E6E3FAE0E3CFE4E4FAE0DB
:1042FC00ACECB1E02DCFE0E4FAE0A0E4B6E0A083B2
:10430C00B183C1CFE8E4FAE0A2E5B3E0A083B183C6
:10431C002CCFEEE2FAE0A0EEB1E0A083B183ECE2A8
:10432C00FAE0ACECB9E0A083B183EAE2FAE0C1CFE9
:10433C00EAE3FAE0A4EFB1E0A083B183E8E3FAE0AA
:10434C00ACECB9E0A083B183E6E3FAE00895A6E60D
:10435C00B8E0A083B183E0E4FAE0A4EAB6E0A0837D
:10436C00B18391CFE6E4FAE0A8E7B5E0A083B1838E
:10437C00D8010C941F24AAE1B5E0A083B183089561
:10438C00E0E4FAE08FCDE8E4FAE0A4E8B3E0A0833F
:10439C00B183E6E4FAE0A0EBB4E0A083B183D801EA
:1043AC000C941F24E4E4FAE0A0E4B6E0D1CEEAE4F5
:1043BC00FAE0A8E7B5E0A083B183E8E4FAE0A0ED69
:1043CC00B7E0A083B183E6E4FAE0A0EBB4E0A0830D
:1043DC00B183D8010C941F24ECE2FAE0ACECB9E008
:1043EC00A083B183EAE2FAE0A0E2B4E0A083B18357
:1043FC00D4CEE8E3FAE0ACECB9E0A083B183E6E319
:10440C00FAE0A0E2B4E0A083B183F0CEE4E4FAE0F9
:10441C00A0EBB4E09DCEE8E4FAE0A0EDB7E0A08319
:10442C00B183E6E4FAE0A0EBB4E0A083B183D80159
:10443C000E941F24DD24EE240895E093C80AF09313
:10444C00C90A6093CA0A7093CB0AECEBFAE0BCDDA4
:10445C00C0CD3DDA0C94810BECEBFAE0B5CDE0E08D
:10446C00F0E060E271EC0895A0E0B0E080E291EC45
:10447C000895E4E4FAE0A0E4B6E019CDE093900AE4
:10448C00F093910A6093920A7093930A0895E0E076
:10449C00F0E060E271E4E093B80AF093B90A60933B
:1044AC00BA0A7093BB0A0895E0E0FEDDECEBFAE08B
:1044BC000895E091900AF091910A6091920A70919E
:1044CC00930A0895E093C00AF093C10A6093C20A5C
:1044DC007093C30A0895A0DDFAD9EBCFE093B80A24
:1044EC00E093B90AE093BA0AE093BB0AB9CDE0E0D5
:1044FC00DBDDB2CFE4ECFAE067CDE0918C0AF09111
:10450C008D0A60918E0A70918F0A0895E093B80A13
:10451C00F093B90A6093BA0A7093BB0A0895EDDF61
:10452C000E942924E093BC0AF093BD0A6093BE0A52
:10453C007093BF0ADFCFEADFBCDFC4CFE0E0F0E06E
:10454C0060E771ECE3DF8CCDE4ECFAE0A0E0B0E0E6
:10455C0088EC91E40895BA93AA932497E0E0E88359
:10456C00E9830895AC81BD818E819F81E0E0F0E00C
:10457C0060E271E40E941F25EC83FD836E837F83D0
:10458C000895EC81FD816E817F81AC85BD858E8522
:10459C009F850E94B2250895AC85BD858E859F852B
:1045AC000895EDECFCEC6CEC7DE30E941F25EC8790
:1045BC00FD876E877F873F5F0895E0E0F0E060E263
:1045CC0071E40E941F250895EC87FD876E877F8715
:1045DC000895A0E0B0E080E09FE30E94CF2408950E
:1045EC00AC81BD818E819F810895EDECFCEC6CEC6F
:1045FC007DE30E941F250895EC81FD816E817F81F2
:10460C000895A885B9851196A887B987119708953B
:10461C00E02FE05DEC93E02F0895E2DF0E941F2570
:10462C000895E885F9853196E887F98708952A93E6
:10463C00AF81B885E985FA8509950895FE01E65A9A
:10464C00FF4F0190F081E02D08953497DE01A65ABA
:10465C00BF4FED93FC930895AF81B885E985FA853A
:10466C0009950895DE01A65ABF4F0D90BC91A02D5F
:10467C000895EA87FB876C877D870895DFDFE5CF98
:10468C00EA85FB856C857D850895EE87FF87AE8571
:10469C00BF850E94C41B1E2F0895E4DF14960E9450
:1046AC00B8260895E88BF98B6A8B7B8B08950B7F6A
:1046BC00ED89EA93DE01A95ABF4F0D90BC91A02D54
:1046CC00FE01E75AFF4F0190F081E02D0995503023
:1046DC000895E889F9896A897B89AA85BB858C85C7
:1046EC009D850895EE81FF81FA93EA930895E987F9
:1046FC00FA876B877C870895AE81BF811196AE8354
:10470C00BF8311970895AA81BB818C819D810895E7
:10471C00EA83FB836C837D830895EA81FB816C8142
:10472C007D81A985BA858B859C850895E0E0F0E0B4
:10473C0060E87FE30895A985BA858B859C850895EB
:10474C000E94E0260E94CC2608950E94D12608954E
:10475C000E94C7260895FCDFA0E0B0E080E89FE34C
:10476C0008950E94E02624971A9310E0AD81BE8133
:10477C008F8198850895ED83FE836F837887AD8153
:10478C00BE818F8198850895AD81BE818F8198857A
:10479C000895ED81FE816F81788508950E94C8246B
:1047AC00ED83FE836F8378870895F3DF0E942924BD
:1047BC00ED83FE836F8378870895EBDFE5DF0E943E
:1047CC001F250895E981FA816B817C810895A98167
:1047DC00BA818B819C810E941F2508950E941F2500
:1047EC00AEE4BFE88AE491E40E94CF2408950E94CD
:1047FC00CC2608950E946D25DF01CB010C94721A12
:10480C00E0E0F0E060E87FEB0E94B2250895EFEF66
:10481C00FFEF6FE77FE708950E946D25DF01CB0165
:10482C000C949D1A95DF0E942924DF01CB010C9476
:10483C009D1A109639F080EA9FE00197F1F7A89540
:10484C001197C9F7089530976040704009F070587F
:10485C000895552342F4503811F4E0FF04C031960A
:10486C00691F791F6BF050E8572711F45F93CFC085
:10487C005F3F31F0660F000C57956795752F0895C3
:10488C005F9300200AF0CFC0C8C050E8192E152243
:10489C00880F991F9527550F879550E8072E0522ED
:1048AC00660F771F7527550F67950895689401C09B
:1048BC00E8945F93F2DF703818F07F3F08F4A7C0DC
:1048CC0056E1571BAAF4519558300EF4593030F07C
:1048DC00EFEFFFEF6FEF7FE777F91AC077275523DC
:1048EC00B9F0EE0FFF1F661F771F5A95D1F710C056
:1048FC007727583028F0EF2FF62F672F5850F9CF25
:10490C00552331F076956795F795E7955A95D1F73C
:10491C0000200AF480D15F910895689401C0E89456
:10492C00309760407040B1F0002426F0772312F4E9
:10493C00009471D1172E7EE1112032F07A95EE0F92
:10494C00FF1F661F111CF9CFEF2FF62F612D5F9300
:10495C008ADF5F9108954F93AF01FD01DA01AB013E
:10496C00BC01CA01402D012C142E4F910895EA0F61
:10497C00FB1F681F0895E095F0956095EF5FFF4F62
:10498C006F4F08955F9381DF903871F150E81526D1
:10499C0004C05F937ADF903839F1703821F1572FCA
:1049AC00591B2BF112F4D7DFFACF583118F0AA2784
:1049BC00BB278827583028F0AB2FB82F88275850A2
:1049CC00F9CF552329F08695B795A7955A95D9F720
:1049DC00502D512572F0CBDF38F46795F795E7959C
:1049EC00739513F420C0B7DF3EDF5F910895D8F7BD
:1049FC00FBCFEA1BFB0B680B51F010F40094BBDFF0
:104A0C00662392F3EE0FFF1F661F7A95CBF7EE2706
:104A1C00FF27662777275F910895EFEFFFEF6FE78A
:104A2C007FEF5F910895EFEFFFEF6FE77FE75F9107
:104A3C0008955F932ADF703851F3903841F30124C5
:104A4C000894791F23F41CF300203AF3ECCF0F9257
:104A5C001F932F933F934F93112722279927689FDA
:104A6C00A0018F9F302D410D591F6B9F300D411DA3
:104A7C00591F8E9F27D0BF9F25D06A9F23D0BE9FE2
:104A8C001DD0AF9F1BD0AE9F110D291F391F491F81
:104A9C00591FE32FF42F652F522F4F913F912F91D8
:104AAC001F910F9066232AF0550FEE1FFF1F661FF4
:104ABC0002C073954BF2CDDE5F910895100D211D50
:104ACC00391F02C0200D311D491F591F08955F93D6
:104ADC00DCDE703821F411200AF49FCFA4CF90387B
:104AEC0009F495CF01240894970B1BF4D4F3002000
:104AFC00F3CF792F1F932F933F934F9311241127AB
:104B0C00222733274427552790E2AE17BF07860785
:104B1C00410730F0AE1BBF0B860B410B089401C054
:104B2C008894551F221F331F111CAA1FBB1F881FDF
:104B3C00441F9A9551F7F901612D4F913F912F9197
:104B4C001F91662332F0550FEE1FFF1F661F7A95DB
:104B5C0043F27FDE5F91089599239AF0772342F018
:104B6C00971748F029F4AE17BF07860720F031F0ED
:104B7C009894889408959894089408951894889417
:104B8C0008957723C2F7971798F3A9F7EA17FB074D
:104B9C00680788F399F3ECCF0DD124975F939F812D
:104BAC00992311F4289633CF12F428963CCF4F93C7
:104BBC0042E48E81BD81AC8188839983AA83BB83B7
:104BCC00FD01BC01AC81BD818E819F8180DF88811C
:104BDC009981AA81BB81DDDE60DE7A9544DE888115
:104BEC009981AA81BB81AE27A87F21F4BF178607C4
:104BFC00970729F04A9519F0DF01CB01DDCF4F91D2
:104C0C005F91289608950024AF0DB01D0895F1957D
:104C1C00E195F0400895F09560957095E195FF4F02
:104C2C006F4F7F4F0895EE0FFF1FEE0FFF1F08957C
:104C3C00FE2FFF0FFF0B6F2F7F2F08956F2F660F27
:104C4C00660B762F0895EA17FB0768077907E1E0F2
:104C5C0009F4EE270895FA9FF02DEB9FF00DEA9FD3
:104C6C00E02DF10D089570D0F6DF0EF4D0DF08952D
:104C7C00002498E0AA0F001C0E1A10F40E0E01C0AE
:104C8C00A1609A95B9F7EA2FA02D089551D0F0DFC5
:104C9C000EF4E19508950024112490E1AA0FBB1F96
:104CAC00001C111C0E1A1F0A18F40E0E1F1E01C038
:104CBC00A1609A9599F7FD01D001089545D0EBDFDD
:104CCC000EF4A5DF08953F934F935F9300241124B6
:104CDC004427552730E2AA0FBB1F881F991F001CC1
:104CEC00111C441F551F0E1A1F0A460B570B28F494
:104CFC000E0E1F1E461F571F01C0A1603A9559F793
:104D0C00FD01BC01D001CA015F914F913F91089503
:104D1C00E894A7FF02C0A1956894E7FDE195A8DF90
:104D2C00EA2F0EF4E1950895CEDFFD01BC01089544
:104D3C00E894E7FF02C0E1956894A7FF04C0A19531
:104D4C0000F8039400FA0895E894F7FF02C05FDFBF
:104D5C006894B7FF06C0A095B095119600F803941F
:104D6C0000FA0895ED91FC9111970895ED91FD9144
:104D7C006D917C9113970895ED93FD936D937C93B6
:104D8C000895E881F9816A817B810895A881B981B0
:104D9C008A819B810895E883F9836A837B830895D4
:104DAC00A083B1838283938308957A936A93FA9351
:104DBC00EA9308959A938A93BA93AA930895182E16
:104DCC00862F612D192E972F712D1B2EBF2FF12D94
:104DDC001A2EAE2FE12D0895119602D0FE2F1197A9
:104DEC00F999FECFFF93FFB7F894A1BDB2BDF89A25
:104DFC00E0B5FFBFFF910895309760407040089573
:104E0C0000240A160B06089500240A160B06080641
:104E1C00090608955A934A933A932A931A930A933C
:104E2C0008955D814C813B812A8119810881089507
:00000001FF
